:100000000C9434010C94E7060C94BC060C949106F5
:100010000C9466060C943B060C9410060C94E505B3
:100020000C94BA050C9465010C9465010C9465015F
:100030000C9465010C9465010C9465010C946501A8
:100040000C9465010C9465010C9465010C94650198
:100050000C9465010C9465010C9465010C94700579
:100060000C9465010C9465010C9465010C94650178
:100070000C9465010C9465010C9465010C94650168
:100080000C9465010C9465010C9465010C94650158
:100090000C9465010C9465010C9465010C94120795
:1000A0000C9465010C9465010C9465010C94650138
:1000B0000C9465010C9465010C9465010C94650128
:1000C0000C9465010C9465010C9465010C94650118
:1000D0000C9465010C9465010C9465010C94650108
:1000E0000C9465010C9495020C9438030C940B034A
:1000F0000C9410020C9404030C9486020C941605C4
:100100000C944E040C9477020C94E7010C94EA01D1
:100110000C94C9010C940C020C94E3010C94C401DE
:100120000C9416020C9402020C941A020C94DB013B
:100130000C94FE010C94FD020C9432080C94FA010C
:100140000C9401030C94F0010C9408020C94F4013B
:100150000C94DF010C9496020C9467010C94FE023F
:1001600000000A0B02090C0D0E0807030401000031
:10017000000000000000000000000000000000007F
:10018000000000000000000000000000121110003C
:10019000000000000000000000000000000000005F
:1001A00000000000000000002200250028002B00B5
:1001B0002E003100340002010000050108010B018E
:1001C00000002100240027002A002D003000330009
:1001D00001010000040107010A01050505050705E5
:1001E00008080808020202020A0A080804040404B3
:1001F00001010101010101010303030303030303DF
:10020000040707070C0C0C0C0C0C0C0C020202026D
:1002100006060606060606060B0B0B0B0B0B0B0B56
:100220000102102020080810204010204080020108
:1002300002010804020101020408102040808040ED
:1002400020100804020180040201804020100804EC
:10025000020108040201010204081020408001028A
:10026000040810204080320811241FBECFEFD1E2D5
:10027000DEBFCDBF00E00CBF12E0A0E0B2E0E0EDD9
:10028000F4E100E00BBF02C007900D92AA36B1075F
:10029000D9F723E0AAE6B2E001C01D92A632B20768
:1002A000E1F711E0C4E3D1E000E006C021970109C5
:1002B000802FFE010E944A0AC333D10780E008075D
:1002C000A9F70E9452080C94660A0C940000AF92A1
:1002D000BF92CF92DF92EF92FF920F931F93CF9333
:1002E000DF936C017B018B01040F151FEB015E0195
:1002F000AE18BF08C017D10759F06991D601ED912A
:10030000FC910190F081E02DC6011995892B79F7B8
:10031000C501DF91CF911F910F91FF90EF90DF907A
:10032000CF90BF90AF900895282F30E0F901E05AA8
:10033000FE4F9491F901E05EFD4F449126523E4FED
:10034000F9012491222309F435C0992311F1915028
:100350009231F8F4E92FF0E08827EE54FE4F8F4FEA
:100360000C944A0AE301E701C401DB01DF01C90182
:10037000EA01F001F401FA01FE01020208020C0296
:10038000C901100216021A02809180008F778093B3
:100390008000E22FF0E0EE0FFF1FEA55FE4FA5911F
:1003A000B4918FB7F894EC91611148C040954E23F9
:1003B0004C938FBF0895809180008F7DE8CF80910E
:1003C0008000877FE4CF84B58F7784BDE2CF84B58A
:1003D0008F7DFBCF8091B0008F778093B000D9CF15
:1003E0008091B0008F7DF9CF809190008F778093BE
:1003F0009000CFCF809190008F7DF9CF80919000B9
:10040000877FF5CF8091A0008F778093A000C1CF28
:100410008091A0008F7DF9CF8091A000877FF5CFDC
:10042000809120018F7780932001B3CF80912001AC
:100430008F7DF9CF80912001877FF5CF4E2BB8CFEC
:100440003FB7F8948091040390910503A0910603AF
:10045000B091070326B5A89B05C02F3F19F0019660
:10046000A11DB11D3FBFBA2FA92F982F8827BC010E
:10047000CD01620F711D811D911D42E0660F771F36
:10048000881F991F4A95D1F708958F929F92AF9236
:10049000BF92CF92DF92EF92FF924B015C010E94DC
:1004A00020026B017C010E9420026C197D098E09DB
:1004B0009F09683E734081059105A8F321E0821AE7
:1004C0009108A108B10888EEC80E83E0D81EE11C8F
:1004D000F11C81149104A104B10429F7FF90EF905D
:1004E000DF90CF90BF90AF909F908F9008958091B4
:1004F0000C0390910D03CC9690930D0380930C0305
:1005000068EC70E080E090E00C94450280910C0370
:1005100090910D03029690930D0380930C0368EC69
:1005200070E080E090E00C944502089508951F93D8
:10053000CF93DF93C1E0C0936B02882399F1D091F0
:10054000B8001091BA008091BC008A7B8093BC00F7
:1005500060E084E10E94940160E085E10E949401E2
:100560001092D502C093D4021092AF0261E084E1F0
:100570000E94940161E085E10E9494018091B9009C
:100580008E7F8093B9008091B9008D7F8093B900F0
:1005900088E48093B80085E48093BC001093BA008F
:1005A000D093B800DF91CF911F91089520918C02D4
:1005B000260F3327331F21323105ECF42091D50269
:1005C000FC0190E080E0243069F082E00895A09181
:1005D0008C022191AC0144595D4FA40FB52FB11D80
:1005E0002C930196861798F380918C02680F609384
:1005F0008C0280E0089581E0089508958FEF9FEFC9
:1006000008958FEF9FEF089580916A0290E0919591
:10061000819591090895CF92DF92EF92FF920F9307
:100620001F93CF93DF937C01CB018A012091DB02E2
:10063000222389F0EB016B01C40ED51ECC15DD051C
:1006400069F06991D701ED91FC910190F081E02D65
:10065000C7011995F3CF642F0E94D602C801DF911C
:10066000CF911F910F91FF90EF90DF90CF90089561
:10067000CF93DF931F92CDB7DEB769832091DB0262
:100680002223F9F02091FE02203258F021E030E0E0
:10069000FC013383228390E080E00F90DF91CF91C3
:1006A00008958091DC02E82FF0E0E352FD4F99813C
:1006B00090838F5F8093DC028093FE0281E090E064
:1006C000ECCF61E0CE0101960E94D602F7CFCF9227
:1006D000DF92EF92FF920F931F93CF93DF93FC0172
:1006E000C48121E02093DB02C093FD021092DC0262
:1006F0001092FE028385682B8EE093E00E943803FF
:10070000D091FE02D13208F092C00E9420026B010B
:100710007C018091D502811165C082E08093D50271
:1007200081E08093D4028FEF8093D3021092D202A3
:10073000D093D102ADEDB2E0E1EBF2E080E0D8136E
:1007400085C01092B0028091B002CC0FC82BC0932C
:10075000B0028091AF02813009F07CC01092AF02EC
:100760000E9420026B017C018091B0028093BB004B
:100770008091D7029091D802A091D902B091DA026B
:10078000892B8A2B8B2B99F00E9420020091D70293
:100790001091D8022091D9023091DA026C197D09AA
:1007A0008E099F090617170728073907E0F180917E
:1007B000BC0083FDD9CF85EC8093BC000E94200251
:1007C0006B017C018091D502823009F445C0809193
:1007D000D3028F3F61F18091D302803241F1809149
:1007E000D30225C08091D7029091D802A091D9025E
:1007F000B091DA02892B8A2B8B2B09F48ACF0E94C5
:1008000020020091D7021091D8022091D902309194
:10081000DA026C197D098E099F0906171707280748
:10082000390708F076CF8091D6020E949702109285
:10083000DC021092FE021092DB02DF91CF911F9139
:100840000F91FF90EF90DF90CF9008959D9191933D
:100850008F5F75CF85EEB0CF8091D7029091D8028F
:10086000A091D902B091DA02892B8A2B8B2B09F443
:10087000A9CF0E9420020091D7021091D8022091A6
:10088000D9023091DA026C197D098E099F09061789
:1008900017072807390708F095CFC5CF90E080E00B
:1008A00008958F929F92AF92BF920F931F93CF9311
:1008B000DF93CDB7DEB7A1970FB6F894DEBF0FBEBA
:1008C000CDBF19A2423008F44AE08E010F5D1F4FE0
:1008D000842E912CB12CA12CA50194010E94280AF0
:1008E000E62FB901CA01EA3044F5E05DD801EE9384
:1008F0008D01232B242B252B79F790E080E0109796
:1009000069F0FD0101900020E9F73197AF014A1B22
:100910005B0BBD018AE193E00E946701A1960FB6CF
:10092000F894DEBF0FBECDBFDF91CF911F910F9125
:10093000BF90AF909F908F900895E95CD7CFFC0156
:1009400001900020E9F73197AF01481B590BBC011A
:100950008AE193E00C9467010F931F93CF938C016E
:10096000C62F0E9467036C2F6460C8010E94670352
:100970006C2F6B7FC8010E94670383EC90E00197A6
:10098000F1F7CF911F910F9108950F931F93CF937C
:10099000DF938C01D62FC42F607F642B0E94AC04A0
:1009A00080E1D89FB00111246C2BC801DF91CF9159
:1009B0001F910F910C94AC04CF93DF9300D000D023
:1009C0001F921F92CDB7DEB798E0E0E1F2E0DE01C2
:1009D000119601900D929A95E1F790912203981744
:1009E00008F48FEF90E0880F991F21E030E02C0F82
:1009F0003D1F820F931FFC016081606840E08AE127
:100A000093E028960FB6F894DEBF0FBECDBFDF91FE
:100A1000CF910C94C50440E061E08AE193E00E942C
:100A2000C5048BE39FE10197F1F7089541E00E942F
:100A3000C50481E090E00895CF92DF92EF92FF929B
:100A40006B017C0141E06DE28AE193E00E94C50404
:100A500066277727CB016C197D098E099F094AE02B
:100A60000E9451040196FF90EF90DF90CF9008957F
:100A700085ED8093BC008091D7029091D802A0911F
:100A8000D902B091DA020796A11DB11D23E0B695F7
:100A9000A795979587952A95D1F72091BC0024FDBD
:100AA00003C01092D50208954091D7025091D80208
:100AB0006091D9027091DA02452B462B472B69F3DE
:100AC0000097A105B10541F025E32A95F1F7000053
:100AD0000197A109B109E1CF8091D6020C94970248
:100AE0001F920F920FB60F9211242F933F938F9363
:100AF0009F93AF93BF938091000390910103A091C6
:100B00000203B09103033091FF0223E0230F2D373E
:100B100058F50196A11DB11D2093FF02809300039B
:100B200090930103A0930203B09303038091040305
:100B300090910503A0910603B09107030196A11DB2
:100B4000B11D8093040390930503A0930603B09313
:100B50000703BF91AF919F918F913F912F910F907C
:100B60000FBE0F901F90189526E8230F0296A11D27
:100B7000B11DD2CF1F920F920FB60F9211240BB658
:100B80000F922F933F934F935F936F937F938F9326
:100B90009F93AF93BF93EF93FF93E0910E02F09179
:100BA0000F021995FF91EF91BF91AF919F918F9196
:100BB0007F916F915F914F913F912F910F900BBE5D
:100BC0000F900FBE0F901F9018951F920F920FB6A7
:100BD0000F9211240BB60F922F933F934F935F9375
:100BE0006F937F938F939F93AF93BF93EF93FF93F5
:100BF000E0910C02F0910D021995FF91EF91BF91D8
:100C0000AF919F918F917F916F915F914F913F91A4
:100C10002F910F900BBE0F900FBE0F901F90189545
:100C20001F920F920FB60F9211240BB60F922F93B3
:100C30003F934F935F936F937F938F939F93AF9364
:100C4000BF93EF93FF93E0910202F0910302199595
:100C5000FF91EF91BF91AF919F918F917F916F9194
:100C60005F914F913F912F910F900BBE0F900FBE50
:100C70000F901F9018951F920F920FB60F9211248C
:100C80000BB60F922F933F934F935F936F937F9386
:100C90008F939F93AF93BF93EF93FF93E0910002E5
:100CA000F09101021995FF91EF91BF91AF919F9142
:100CB0008F917F916F915F914F913F912F910F9005
:100CC0000BBE0F900FBE0F901F9018951F920F92A2
:100CD0000FB60F9211240BB60F922F933F934F93A1
:100CE0005F936F937F938F939F93AF93BF93EF9394
:100CF000FF93E0910A02F0910B021995FF91EF9199
:100D0000BF91AF919F918F917F916F915F914F9123
:100D10003F912F910F900BBE0F900FBE0F901F9021
:100D200018951F920F920FB60F9211240BB60F92C7
:100D30002F933F934F935F936F937F938F939F93E3
:100D4000AF93BF93EF93FF93E0910802F0910902F4
:100D50001995FF91EF91BF91AF919F918F917F91E5
:100D60006F915F914F913F912F910F900BBE0F901C
:100D70000FBE0F901F9018951F920F920FB60F92F3
:100D800011240BB60F922F933F934F935F936F9362
:100D90007F938F939F93AF93BF93EF93FF93E091D4
:100DA0000602F09107021995FF91EF91BF91AF9163
:100DB0009F918F917F916F915F914F913F912F9173
:100DC0000F900BBE0F900FBE0F901F9018951F92A3
:100DD0000F920FB60F9211240BB60F922F933F93E1
:100DE0004F935F936F937F938F939F93AF93BF9333
:100DF000EF93FF93E0910402F09105021995FF91A2
:100E0000EF91BF91AF919F918F917F916F915F9182
:100E10004F913F912F910F900BBE0F900FBE0F90EF
:100E20001F9018951F920F920FB60F9211240BB6B8
:100E30000F922F933F934F935F936F937F938F9373
:100E40009F93AF93BF93EF93FF938091B900887FF7
:100E5000803609F44DC008F040C0883209F4A7C0BC
:100E600028F5803109F49BC0C8F4882309F4F7C041
:100E7000883009F494C0FF91EF91BF91AF919F9199
:100E80008F917F916F915F914F913F912F910F9033
:100E90000BBE0F900FBE0F901F901895883109F46C
:100EA00086C0803241F78093D30214C0803409F4A5
:100EB0009BC040F48033B9F38833E9F68093D302C2
:100EC00085ECAEC0803509F483C0883509F494C040
:100ED000883489F60E943805CECF883909F48AC053
:100EE00038F5883729F050F4883611F0803719F634
:100EF00083E08093D5021092AE0255C0883809F481
:100F000079C0803919F0803809F0B5CF8091AE02F0
:100F1000803208F06FC0E091AE0281E08E0F8093C6
:100F2000AE028091BB00F0E0E257FD4F80833BC0F2
:100F3000803B39F0D0F4803A09F477C0883A09F060
:100F40009ACF84E08093D50210928D0210928C0289
:100F5000F0E0E0E0199580918C0281110FC081E0F2
:100F600080938C0210926C0209C0803C09F4A8CFD7
:100F7000883C09F4A5CF883B09F07DCFE0918D0234
:100F800081E08E0F80938D02F0E0E459FD4F808167
:100F90008093BB0090918D0280918C0229C080913A
:100FA000B0028093BB0085EC8093BC0064CF90912D
:100FB000D2028091D102981758F5E091D20281E0D7
:100FC0008E0F8093D202F0E0EF54FD4F8081E9CF85
:100FD000E091D20281E08E0F8093D2028091BB001B
:100FE000F0E0EF54FD4F80839091D2028091D102C6
:100FF0009817C8F285E8D8CFE091D20281E08E0F31
:101000008093D2028091BB00F0E0EF54FD4F8083CB
:101010008091D40281115ECF81E08093AF0284EA97
:101020008093BC001092D50226CF85EC8093BC0043
:101030001092D5028091AE02803230F4E091AE027F
:10104000F0E0E257FD4F10826091AE0270E08EE852
:1010500092E0F0E0E0E019951092AE020CCF109211
:10106000D30238CFEEE0F3E01382128288EE93E0F1
:10107000A0E0B0E084839583A683B7838CE192E0FF
:1010800091838083EAE1F3E0138212828EE292E0A0
:101090009183808380E2848380E1818782E08287FC
:1010A00013860895789484B5826084BD84B5816088
:1010B00084BD85B5826085BD85B5816085BD809123
:1010C0006E00816080936E0010928100809181009B
:1010D0008260809381008091810081608093810093
:1010E000809180008160809380008091B100846055
:1010F0008093B1008091B00081608093B0008091B6
:101100009100826080939100809191008160809332
:101110009100809190008160809390008091A10067
:1011200082608093A1008091A10081608093A100E2
:101130008091A00081608093A00080912101826055
:101140008093210180912101816080932101809110
:10115000200181608093200180917A0084608093D7
:101160007A0080917A00826080937A0080917A0080
:10117000816080937A0080917A00806880937A0001
:101180001092C10080911F03886080931F0312E0BA
:101190001093220362E370E080E090E00E94450239
:1011A000609125038AE193E00E94670368EE73E093
:1011B00080E090E00E94450260E38AE193E00E94B3
:1011C000AC04CBE4D6E4CE010197F1F760E38AE109
:1011D00093E00E94AC042197F1F760E38AE193E089
:1011E0000E94AC0483E592E00197F1F760E28AE1A6
:1011F00093E00E94AC0460911F03606240E08AE1CA
:1012000093E00E94C50484E08093200340E06CE0FA
:101210008AE193E00E94C5040E940B05109321030C
:1012200040E066E08AE193E00E94C50440E062E0AD
:101230008AE193E00E94C5048BE39FE10197F1F7F7
:1012400088E08093250360E08AE193E00E946703D1
:1012500087E792E0909301028093000280916A00F8
:101260008C7F826080936A00EC9A86E892E090938B
:1012700003028093020280916A00837F88608093DA
:101280006A00ED9AE1E2F2E02491EBEDF1E0849165
:10129000882399F090E0880F991FFC01E054FE4FDD
:1012A000A591B491FC01EA55FE4F859194918FB7B9
:1012B000F894EC91E22BEC938FBF80E00E94DC0469
:1012C00086E392E00E949F0468EE73E080E090E085
:1012D0000E9445020E940B0580E00E94DC0481E42C
:1012E00092E00E949F04CCE3D0E000E010E0809107
:1012F0000C0390910D03181619060CF07BC060E2E8
:1013000073E080E090E00E94450280910C03909190
:101310000D03019790930D0380930C0380910C03B0
:1013200090910D03BE010E94140ACB01BE010E94E0
:10133000140A90930B0380930A0380910C039091FD
:101340000D03BE010E94140A9093090380930803C1
:1013500080E00E94DC048FE492E00E949F04809170
:101360000A0390910B030A9724F48DE492E00E9403
:101370009F0460910A0370910B03072E000C880BE9
:10138000990B97FF2FC00E941C0588E592E00E94F0
:101390009F0480910803909109030A9724F48DE437
:1013A00092E00E949F046091080370910903072E48
:1013B000000C880B990B97FF19C00E941C058091A7
:1013C0000C0390910D03892B09F091CF61E081E02E
:1013D0000E94940181E00E94DC048AE592E00E9470
:1013E0009F0485CF4AE00E945104CFCF4AE00E947B
:1013F0005104E5CF68E873E180E090E00E94450287
:101400000E940B0580E00E94DC0481E492E00E94CF
:101410009F0460E081E00E9494010115110509F428
:1014200066CF0E94000063CF97FB072E16F400944E
:1014300007D077FD09D00E94520A07FC05D03EF480
:10144000909581959F4F0895709561957F4F089570
:10145000A1E21A2EAA1BBB1BFD010DC0AA1FBB1FB8
:10146000EE1FFF1FA217B307E407F50720F0A21B2A
:10147000B30BE40BF50B661F771F881F991F1A9497
:1014800069F760957095809590959B01AC01BD01C1
:10149000CF010895EE0FFF1F881F8BBF0790F691B5
:1014A000E02D1994AA1BBB1B51E107C0AA1FBB1F4B
:1014B000A617B70710F0A61BB70B881F991F5A95E0
:1014C000A9F780959095BC01CD010895F894FFCFC0
:1014D0009502950295029502950295029502950254
:1014E00000004000140054000000000038030B030B
:1014F0004E04FD0204030103FE0200000000160575
:1015000067014E0496024269656E62656E69646F9A
:101510000052657374616E3A2030303A30300052B8
:10152000657374616E3A20003A0046696E20646506
:0A1530006C20636F6E74656F00009D
:00000001FF
