:100000000C9462000C948A000C948A000C948A0070
:100010000C948A000C948A000C948A000C948A0038
:100020000C948A000C948A000C948A000C948A0028
:100030000C948A000C9439050C948A000C948A0064
:100040000C94EF040C948A000C94BD040C94970457
:100050000C948A000C948A000C948A000C948A00F8
:100060000C948A000C948A000000000024002700F1
:100070002A0000000000250028002B0000000000DE
:1000800023002600290004040404040404040202DA
:100090000202020203030303030301020408102007
:1000A0004080010204081020010204081020000012
:1000B0000008000201000003040700000000000027
:1000C0000000600511241FBECFEFD8E0DEBFCDBF1A
:1000D00011E0A0E0B1E0E8EAF3E102C005900D9282
:1000E000A837B107D9F722E0A8E7B1E001C01D9217
:1000F000AA34B207E1F710E0C2E6D0E004C02197CD
:10010000FE010E94C709C136D107C9F70E94AC059C
:100110000C94D2090C940000E0913202F091330269
:100120000190F081E02D682F82E392E00994FC01B8
:10013000538D448D252F30E0842F90E0821B930B4C
:10014000541710F0CF96089501970895FC01918DF2
:10015000828D981761F0828DDF01A80FB11D5D9629
:100160008C91928D9F5F9F73928F90E008958FEF97
:100170009FEF0895FC01918D828D981731F0828D4B
:10018000E80FF11D858D90E008958FEF9FEF0895A2
:10019000FC01918D228D892F90E0805C9F4F821B06
:1001A00091098F7399270895FC01848DDF01A80FB1
:1001B000B11DA35ABF4F2C91848D90E001968F738F
:1001C0009927848FA689B7892C93A089B1898C91AE
:1001D00080648C93938D848D981306C00288F38974
:1001E000E02D80818F7D80830895EF92FF920F93A1
:1001F0001F93CF93DF93EC0181E0888F9B8D8C8DD3
:10020000981305C0E889F989808185FD24C0F62E00
:100210000B8D10E00F5F1F4F0F731127E02E8C8D99
:10022000E8120CC00FB607FCFACFE889F989808183
:1002300085FFF5CFCE010E94D400F1CF8B8DFE015A
:10024000E80FF11DE35AFF4FF0820B8FEA89FB891B
:100250008081806207C0EE89FF896083E889F9891F
:1002600080818064808381E090E0DF91CF911F9155
:100270000F91FF90EF900895CF93DF93EC01888D5D
:100280008823C9F0EA89FB89808185FD05C0A8899A
:10029000B9898C9186FD0FC00FB607FCF5CF808120
:1002A00085FFF2CFA889B9898C9185FFEDCFCE016A
:1002B0000E94D400E7CFDF91CF91089585E991E0C6
:1002C0000E94C80021E0892B09F420E0822F0895C4
:1002D00080E090E0892B29F00E945E0181110C944E
:1002E00000000895CF92DF92EF92FF920F931F9339
:1002F000CF93DF936C017A018B01C0E0D0E0CE1583
:10030000DF0589F0D8016D918D01D601ED91FC9149
:100310000190F081E02DC6010995892B11F47E0131
:1003200002C02196ECCFC701DF91CF911F910F91B1
:10033000FF90EF90DF90CF900895833081F028F404
:10034000813099F08230A1F008958730A9F088308B
:10035000B9F08430D1F4809180008F7D03C080910A
:1003600080008F7780938000089584B58F7702C0D6
:1003700084B58F7D84BD08958091B0008F7703C0D0
:100380008091B0008F7D8093B0000895CF93DF936C
:10039000282F30E0F901E255FF4F8491F901E6562C
:1003A000FF4FD491F901EA57FF4FC491CC2391F04C
:1003B00081110E949D01EC2FF0E0EE0FFF1FE45829
:1003C000FF4FA591B491EC91ED2381E090E021F4F1
:1003D00080E002C080E090E0DF91CF9108951F930C
:1003E000CF93DF93282F30E0F901E255FF4F84913E
:1003F000F901E656FF4FD491F901EA57FF4FC49136
:10040000CC23C9F0162F81110E949D01EC2FF0E042
:10041000EE0FFF1FEE58FF4FA591B4918FB7F894E0
:10042000111105C09C91ED2FE095E92302C0EC91DC
:10043000ED2BEC938FBFDF91CF911F910895CF9358
:10044000DF9390E0FC01E656FF4F2491FC01EA5750
:10045000FF4F8491882361F190E0880F991FFC0180
:10046000E859FF4FC591D491FC01EE58FF4FA5917B
:10047000B491611109C09FB7F894888120958223B7
:100480008883EC912E230BC0623061F49FB7F894FF
:100490003881822F809583238883EC912E2B2C9397
:1004A0009FBF06C08FB7F894E8812E2B28838FBF9B
:1004B000DF91CF9108958E3008F08E508770806460
:1004C00080937C0080917A00806480937A00809190
:1004D0007A0086FDFCCF809178002091790090E031
:1004E000922B0895CF93DF93EC0160E08E810E9400
:1004F000EF0161E08E810E94EF0160E08E810E9439
:10050000EF018BE891E00197F1F7DF91CF9108952A
:10051000CF92DF92EF92FF920F931F93CF93DF93CF
:100520007C016C0187E0C80ED11CC0E0D0E0062F32
:1005300010E0B8010C2E02C0759567950A94E2F799
:100540006170F60181916F010E94EF012196C43024
:10055000D10579F7C701DF91CF911F910F91FF90DE
:10056000EF90DF90CF900C947202CF92DF92EF92D7
:10057000FF920F931F93CF93DF93EC01F62E642F1E
:100580008C810E94EF018D818F3F19F060E00E9405
:10059000EF018F850F2D10E084FF25C06E0187E0ED
:1005A000C80ED11CE12CF12CB8010E2C02C075959F
:1005B00067950A94E2F76170F60181916F010E94DC
:1005C000EF01FFEFEF1AFF0A88E0E816F10461F788
:1005D000CE01DF91CF911F910F91FF90EF90DF90AF
:1005E000CF900C947202B80184E0759567958A9556
:1005F000E1F7CE010E9488026F2DCE01DF91CF91ED
:100600001F910F91FF90EF90DF90CF900C94880294
:1006100041E00E94B50281E090E0089540E00C9432
:10062000B502EF92FF920F931F93CF93DF93EC01EC
:10063000423018F08F8588608F874B8B1C8A80E44E
:100640008D8B6E8B70E0605C7F4F6F8B61E08C8177
:100650000E941F028D818F3F19F061E00E941F02EE
:1006600061E08E810E941F027E0187E0E80EF11C8E
:1006700000E010E08F8584FD03C084E090E002C0BC
:1006800088E090E0081719074CF461E0F7018191C8
:100690007F010E941F020F5F1F4FECCF8BE39DE095
:1006A0000197F1F760E08C810E94EF0160E08E819C
:1006B0000E94EF018D818F3F19F060E00E94EF01F1
:1006C0006F8564FD1DC063E0CE010E9488020BE4CB
:1006D00016E4C8010197F1F763E0CE010E94880299
:1006E000C8010197F1F763E0CE010E94880283E51B
:1006F00092E00197F1F762E0CE010E94880216C0F5
:100700006062CE010E940E038BE496E40197F1F73C
:100710006F856062CE010E940E0383E592E001972F
:10072000F1F76F856062CE010E940E036F856062F3
:10073000CE010E940E0384E0888B6CE0CE010E9403
:100740000E0361E0CE010E940E038BE39FE101974F
:10075000F1F782E0898B66E0CE01DF91CF911F91A6
:100760000F91FF90EF900C940E03643008F063E05B
:1007700090914502691710F06FEF690FE62FF0E0D6
:10078000EE5CFD4F9489682F690F606882E392E008
:100790000C940E03089580E090E008950E94CD0926
:1007A0006115710579F0FB0101900020E9F731979F
:1007B000AF01461B570BDC01ED91FC910280F381E8
:1007C000E02D099480E090E008958F929F92AF927F
:1007D000BF920F931F93CF93DF93CDB7DEB7A1974F
:1007E0000FB6F894DEBF0FBECDBF19A2423008F499
:1007F0004AE08E010F5D1F4F842E912CA12CB12C4D
:10080000A50194010E94A509E62FB901CA01015072
:100810001109EA3014F4E05D01C0E95CD801EC9301
:10082000232B242B252B61F7B80182E392E00E9451
:10083000D003A1960FB6F894DEBF0FBECDBFDF91F7
:10084000CF911F910F91BF90AF909F908F9008957F
:10085000CF92DF92EF92FF92CF93DF936C01990FCB
:10086000EE08FF08F7FE17C08DE20E948C00EC0135
:1008700066277727CB016C197D098E099F094AE00D
:100880000E94E5038C0F9D1FDF91CF91FF90EF90A9
:10089000DF90CF9008954AE0C701B601DF91CF9174
:1008A000FF90EF90DF90CF900C94E5030C94D00371
:1008B000CF92DF92EF92FF928091930190919401F9
:1008C000019781F5C0908901D0908A018FEFC81AF5
:1008D000D80AD0928A01C092890161E08EE00E941C
:1008E000B5030D2C000CEE08FF08F7FE0CC08DE2DE
:1008F0000E948C0066277727CB016C197D098E0931
:100900009F094AE003C04AE0C701B6010E94E5031F
:1009100066E371E082E392E0FF90EF90DF90CF908A
:100920000C945604FF90EF90DF90CF9008951F92A3
:100930000F920FB60F9211242F933F934F935F9313
:100940006F937F938F939F93AF93BF93EF93FF9397
:1009500085E991E00E94D400FF91EF91BF91AF91A2
:100960009F918F917F916F915F914F913F912F91C7
:100970000F900FBE0F901F9018951F920F920FB6F9
:100980000F9211242F938F939F93EF93FF93E091F6
:10099000A501F091A6018081E091AB01F091AC013D
:1009A00082FD12C090818091AE018F5F8F73209184
:1009B000AF01821751F0E091AE01F0E0EB56FE4F2F
:1009C000958F8093AE0101C08081FF91EF919F913F
:1009D0008F912F910F900FBE0F901F9018951F921F
:1009E0000F920FB60F9211242F933F938F939F93E3
:1009F000AF93BF9380917D0190917E01A0917F0183
:100A0000B091800130917C0123E0230F2D3720F439
:100A10000196A11DB11D05C026E8230F0296A11D58
:100A2000B11D20937C0180937D0190937E01A09362
:100A30007F01B09380018091780190917901A0911C
:100A40007A01B0917B010196A11DB11D80937801BF
:100A500090937901A0937A01B0937B01BF91AF91FC
:100A60009F918F913F912F910F900FBE0F901F90EC
:100A700018951F920F920FB60F9211242F933F9348
:100A80004F935F936F937F938F939F93AF93BF9396
:100A9000EF93FF93E0918501F09186010995FF9115
:100AA000EF91BF91AF919F918F917F916F915F91E6
:100AB0004F913F912F910F900FBE0F901F9018955F
:100AC000E5E9F1E01382128288EE93E0A0E0B0E065
:100AD00084839583A683B78384E091E091838083A8
:100AE00085EC90E09587848784EC90E097878687F3
:100AF00080EC90E0918B808B81EC90E0938B828BEB
:100B000082EC90E0958B848B86EC90E0978B868BC3
:100B1000118E128E138E148EE2E3F2E01382128293
:100B200086E191E0918380838DE084838FEF8583DC
:100B30008CE086838BE087838AE0808789E08187E9
:100B400088E082871386148615861686178641E00C
:100B500060E1CF010C941103789484B5826084BD68
:100B600084B5816084BD85B5826085BD85B58160B1
:100B700085BD80916E00816080936E00109281002F
:100B800080918100826080938100809181008160EA
:100B900080938100809180008160809380008091AB
:100BA000B10084608093B1008091B0008160809337
:100BB000B00080917A00846080937A0080917A00FE
:100BC000826080937A0080917A00816080937A00BD
:100BD00080917A00806880937A001092C10044E08E
:100BE00064E182E392E00E94110360E084E00E94ED
:100BF0001F0262E082E00E941F021092800080E1EA
:100C00008093810084E0809383018FB78093840177
:100C1000F89488EA91E69093820180938101909301
:100C2000870080938600809184018FBF809181002E
:100C3000887F809381009091810080918301982B1F
:100C40009093810028E534E030938601209385015C
:100C500091E090936F0090918100892B80938100A7
:100C600061E082E392E00E940E038BE39FE1019733
:100C7000F1F760E080E00E94B5036EE171E082E38D
:100C800092E00E94560461E080E00E94B5036AE2AF
:100C900071E082E392E00E94560462E080E00E94EC
:100CA000B50368E371E082E392E00E945604C1E07C
:100CB000D0E016E082E00E94C601892B71F463E067
:100CC00080E00E94B5036AE471E082E392E00E9452
:100CD0005604D0939401C093930180919301909115
:100CE0009401019709F0CFC084E00E94C6018130D1
:100CF000910509F05DC02091910130919201232B63
:100D000009F056C0E0908F01F09090012FEFE21AA9
:100D1000F20AF0929001E0928F01909392018093F9
:100D2000910160E08DE00E94B503C7010E94280494
:100D300066E371E082E392E00E94560480E00E9444
:100D40005B02BC01990F880B990B0E947E0820E082
:100D500030E040EA50E40E94330920E030E048EC03
:100D600052E40E94330920E030E040E85AE30E9458
:100D700033096B017C014B015C0160938B01709323
:100D80008C0180938D0190938E0160E08FE00E9432
:100D9000B503A7019601C701B6010E94A0098823E7
:100DA00009F474C067E571E082E392E00E94D00329
:100DB00084E00E94C601892B39F4809191019091C1
:100DC0009201019709F4F2C08091890190918A0102
:100DD0000A9781F580918F0190919001189F700181
:100DE000199FF00C1124F0928801E0928701109273
:100DF00094011092930162E08EE00E94B503C70156
:100E00000E94280466E371E082E392E00E945604A7
:100E100063E080E00E94B50363E671E082E392E064
:100E20000E9456041092900110928F0110928A0134
:100E30001092890180E00E945B02BC01990F880B2F
:100E4000990B0E947E0820E030E040EA50E40E94C6
:100E5000330920E030E048EC52E40E94330920E0FE
:100E600030E040E85AE30E94330960938B017093AD
:100E70008C0180938D0190938E0165E771E085E987
:100E800091E00E9456040E94680114CF26013701A8
:100E9000E89477F82FEF3FEF4FE75FE7C301B20128
:100EA0000E94A00981110DC02FEF3FEF4FE75FE7D0
:100EB000C301B2010E94480818161CF46BE571E0EA
:100EC00073CF2FEF3FEF4FE75FE4C701B6010E94FA
:100ED0002E0918161CF46FE571E066CF2FEF3FEF77
:100EE0004FE75FECC701B6010E94480887FDF3CFCA
:100EF00020E030E0A901C701B6010E94480887FF41
:100F000009C08DE20E948C0046015701B7FAB094E7
:100F1000B7F8B0942AE037ED43EA5BE3C501B401CA
:100F20000E94DC074B015C010E944D086B017C01B3
:100F30000E947C089B01AC01C501B4010E94DB0743
:100F40004B015C014AE0C701B6010E94E5038EE255
:100F50000E948C0020E030E040E251E4C501B40181
:100F60000E9433094B015C010E944D086B01E12C8A
:100F7000F12C4AE0C701B6010E94E503C701B601A2
:100F80000E947C089B01AC01C501B4010E94DB07F3
:100F900020E030E040E251E40E9433090E944D0815
:100FA00080E090E04AE00E94E50302CF10929201B7
:100FB0001092910109CF5058BB27AA270E94F3072E
:100FC0000C94F4080E94E60838F00E94ED0820F026
:100FD00039F49F3F19F426F40C94E3080EF4E095DD
:100FE000E7FB0C94DD08E92F0E94050958F3BA17B6
:100FF000620773078407950720F079F4A6F50C942F
:1010000027090EF4E0950B2EBA2FA02D0B01B90184
:1010100090010C01CA01A0011124FF27591B99F06E
:10102000593F50F4503E68F11A16F040A22F232F7A
:10103000342F4427585FF3CF469537952795A795CA
:10104000F0405395C9F77EF41F16BA0B620B730B71
:10105000840BBAF09150A1F0FF0FBB1F661F771FE2
:10106000881FC2F70EC0BA0F621F731F841F48F497
:10107000879577956795B795F7959E3F08F0B0CF20
:101080009395880F08F09927EE0F97958795089507
:101090000E94B90808F481E008950E940D0988F0C3
:1010A0009F5798F0B92F9927B751B0F0E1F0660F2C
:1010B000771F881F991F1AF0BA95C9F714C0B1306D
:1010C00091F00E942709B1E008950C942709672F39
:1010D000782F8827B85F39F0B93FCCF3869577959C
:1010E0006795B395D9F73EF4909580957095619585
:1010F0007F4F8F4F9F4F0895E89409C097FB3EF4B0
:1011000090958095709561957F4F8F4F9F4F992354
:10111000A9F0F92F96E9BB279395F69587957795D2
:101120006795B795F111F8CFFAF4BB0F11F460FF92
:101130001BC06F5F7F4F8F4F9F4F16C0882311F0EA
:1011400096E911C0772321F09EE8872F762F05C0FE
:10115000662371F096E8862F70E060E02AF09A9599
:10116000660F771F881FDAF7880F9695879597F98E
:101170000895990F0008550FAA0BE0E8FEEF161628
:101180001706E807F907C0F012161306E407F5077B
:1011900098F0621B730B840B950B39F40A2661F0EF
:1011A000232B242B252B21F408950A2609F4A14092
:1011B000A6958FEF811D811D089597F99F6780E89F
:1011C00070E060E008959FEF80EC089500240A9499
:1011D0001616170618060906089500240A94121612
:1011E0001306140605060895092E0394000C11F445
:1011F000882352F0BB0F40F4BF2B11F460FF04C0F2
:101200006F5F7F4F8F4F9F4F089557FD9058440F4A
:10121000551F59F05F3F71F04795880F97FB991F55
:1012200061F09F3F79F08795089512161306140612
:10123000551FF2CF4695F1DF08C01616170618069F
:10124000991FF1CF86957105610508940895E8947A
:10125000BB2766277727CB0197F908950E94B90825
:1012600008F48FEF08950E9446090C94F4080E9438
:10127000E60838F00E94ED0820F0952311F00C9458
:10128000DD080C94E30811240C9428090E94050938
:1012900070F3959FC1F3950F50E0551F629FF001C9
:1012A000729FBB27F00DB11D639FAA27F00DB11DE2
:1012B000AA1F649F6627B00DA11D661F829F22276B
:1012C000B00DA11D621F739FB00DA11D621F839FF2
:1012D000A00D611D221F749F3327A00D611D231FC8
:1012E000849F600D211D822F762F6A2F11249F5716
:1012F00050409AF0F1F088234AF0EE0FFF1FBB1F19
:10130000661F771F881F91505040A9F79E3F5105D7
:1013100080F00C94DD080C9428095F3FE4F3983EBC
:10132000D4F3869577956795B795F795E7959F5F81
:10133000C1F7FE2B880F911D9695879597F9089513
:101340000E94B908880B990B0895A1E21A2EAA1BD6
:10135000BB1BFD010DC0AA1FBB1FEE1FFF1FA21765
:10136000B307E407F50720F0A21BB30BE40BF50B62
:10137000661F771F881F991F1A9469F760957095EB
:10138000809590959B01AC01BD01CF010895EE0FB2
:10139000FF1F0590F491E02D099481E090E0F8940E
:0813A0000C94D209F894FFCF70
:1013A80000000000F500720197003C01C800A6008B
:1013B800BA000000000008037201CB03CA034163AE
:1013C8007475616C2048423A20005469656D706FED
:1013D80020285329203A2000484220706F72204D5F
:1013E800696E20203A20302E3000484220436F6E2C
:1013F80074616E646F2E006E616E00696E66006FB8
:1014080076660050726573696F6E6520426F746FFF
:081418006E2E2E2E000A0000CA
:00000001FF
