:1000000005C3000034C3000032C3000030C3000049
:100010002EC300002CC300002AC3000028C3000028
:1000200026C3000024C3000022C3000020C3000038
:100030001EC300001CC300001AC3000018C3000048
:1000400016C3000014C3000012C3000010C3000058
:100050000EC300000CC300000AC300006DC70000FF
:1000600006C300009BC400006FC4000000C3000072
:10007000FEC20000FCC20000FAC20000F8C200008C
:10008000F6C20000F4C20000F2C20000F0C200009C
:10009000EEC20000ECC20000EAC200000C940C0C9E
:1000A000E6C20000E4C20000E2C20000E0C20000BC
:1000B000DEC20000DCC20000DAC20000D8C20000CC
:1000C000D6C20000D4C20000D2C20000D0C20000DC
:1000D000CEC20000CCC20000CAC20000C8C20000EC
:1000E000C6C200007E038103700374037A03B80361
:1000F000850389038F03930397039D03A103A5033E
:10010000B803AB03AF03B303B208B408B608B8082A
:10011000BA08BD08C008C30800002000230026005C
:1001200029002C002F00320000010000030106010D
:10013000090100002100240027002A002D003000C2
:10014000330001010000040107010A010000220040
:10015000250028002B002E00310034000201000091
:10016000050108010B010505050507050808080834
:10017000020202020A0A080804040404010101013F
:10018000010101010303030303030303040707073A
:100190000C0C0C0C0C0C0C0C0202020206060606DF
:1001A000060606060B0B0B0B0B0B0B0B01021020AC
:1001B000200808102040102040800201020108049D
:1001C0000201010204081020408080402010080431
:1001D000020180040201804020100804020108048A
:1001E00002010102040810204080010204081020CE
:1001F000408000000A0B02090C0D0E0807030401E1
:1002000000000000000000000000000000000000EE
:1002100000000000000000000000000000001211BB
:1002200010000000000000000000000000000000BE
:1002300000000000000000000A4C454F4646000048
:1002400000000000000000000500C90800000000D8
:10025000000000000000000000000B4C454F4E0065
:10026000000000000000000000000500C9080000B8
:100270000000000000000000000000000C563120CB
:10028000454E430000000000000000000500A208E9
:1002900000000000000000000000000000000D56FB
:1002A0003120454E43000000000000000000050022
:1002B000A208000000000000000000000000000094
:1002C0000E563120454E43000000000000000000A3
:1002D0000500A2080000000000000000000000006F
:1002E00000000F563120454E430000000000000082
:1002F00000000500A208000000000000000000004F
:1003000000000000105631204F464600000000005B
:10031000000000000500A20800000000000000002E
:10032000000000000000115631204F46460000003A
:100330000000000000000500A2080000000000000E
:100340000000000000000000125631204F46460019
:1003500000000000000000000500A20800000000EE
:1003600000000000000000000000135631204F463E
:10037000460000000000000000000500A208000088
:100380000000000000000000000000001450505465
:100390000000000000000000000000000200110B3F
:1003A00000000000000000000000000000001550E8
:1003B0005054000000000000000000000000020097
:1003C000100A000000000000000000000000000013
:1003D0000A4D656E75204C65640000000000000049
:1003E00000000D0B496E74656772616E7465730071
:1003F00000000000000E0C416E616C6F6769636F56
:1004000000000000000000000C0D444F4D4F544907
:1004100043410000000000000000000F3C524F422A
:100420004552544F205341554C00000000000E3DF2
:10043000524F4D414E53494C4C4F000000000000BC
:10044000000E3E494E472E205449544F00000000F4
:10045000000000000E46454E43454E44455220568E
:100460003100000000000010494150414741522036
:100470005631000000000000000011324170616739
:100480006172204C6564000000000001000A3345E1
:100490006E63656E646572204C6564000000010047
:1004A0000B28504F54454E43494F4D4554524F0031
:1004B000000100142954454D5045524154555241B4
:1004C0000000000001001550454E43454E44455282
:1004D0002056310000000001000C51454E43454EAE
:1004E0004445522056320000000001000D52454E96
:1004F00043454E4445522056330000000001000E93
:1005000053454E43454E44455220563400000000AA
:1005100001000F54415041474152202020563100E4
:100520000000000100105541504147415220202059
:10053000563200000000010011564150414741521F
:100540002020205633000000000100125741504186
:100550004741522020205634000000000100130AB9
:100560004D656E75205072696E636970616C000034
:10057000000A0D000B496E74656772616E746573D5
:100580000000000000001E1F000C532E416E616C25
:100590006F6769636F0000000000002829000F5694
:1005A000454E54494C41444F5200000000000000A9
:1005B0004649000D4C454453000000000000000077
:1005C00000000000003233000E4E4F4D42524553A2
:1005D000000000000000000000003C3E001056310A
:1005E0004F4E00000000000000000000000000501E
:1005F00053001156314F4646000000000000000035
:100600000000000054570000741B731B11241FBE10
:10061000CFEFD1E2DEBFCDBF00E00CBF12E0A0E023
:10062000B2E0EAE4FEE300E00BBF02C007900D92E7
:10063000A63FB107D9F725E0A6EFB2E001C01D92B1
:10064000AE33B207E1F713E0C5E0D3E000E006C047
:1006500021970109802FFE010E94E31EC430D107BB
:1006600080E00807A9F70E9479190C94141FC8CCE0
:10067000CF92DF92EF92FF920F931F93CF93DF936E
:100680006C017A018B01C0E0D0E0CE15DF0589F066
:10069000D8016D918D01D601ED91FC910190F08111
:1006A000E02DC6011995892B11F47E0102C0219617
:1006B000ECCFC701DF91CF911F910F91FF90EF9089
:1006C000DF90CF90089590E0FC013197E231F10581
:1006D00008F04EC08827EE58FF4F8F4F0C94E31E52
:1006E000809180008F7703C0809180008F7D809300
:1006F0008000089580918000877FF9CF84B58F773F
:1007000002C084B58F7D84BD08958091B0008F773D
:1007100003C08091B0008F7D8093B00008958091D8
:1007200090008F7707C0809190008F7D03C08091EB
:100730009000877F8093900008958091A0008F772C
:1007400007C08091A0008F7D03C08091A000877FAB
:100750008093A0000895809120018F7707C0809139
:1007600020018F7D03C080912001877F809320012D
:100770000895CF93DF9390E0FC01E455FE4F249160
:10078000FC01EA59FE4F8491882361F190E0880FC3
:10079000991FFC01EE5CFE4FC591D491FC01E45B16
:1007A000FE4FA591B491611109C09FB7F89488815B
:1007B000209582238883EC912E230BC0623061F454
:1007C0009FB7F8943881822F809583238883EC919A
:1007D0002E2B2C939FBF06C08FB7F894E8812E2B49
:1007E00028838FBFDF91CF9108953FB7F894809110
:1007F000FB029091FC02A091FD02B091FE0226B591
:10080000A89B05C02F3F19F00196A11DB11D3FBF48
:10081000BA2FA92F982F8827820F911DA11DB11DD6
:10082000BC01CD0142E0660F771F881F991F4A95D2
:10083000D1F708950F931F93CF938C01C0E0F80177
:10084000858DC81798F4D8015E968C91882311F095
:1008500060E001C062E0D8015B96ED91FC915C978D
:10086000EC0FF11D808185DFCF5FE9CFCF911F9124
:100870000F9108950E94F71E88EA93E00E947F1569
:1008800021E0892B09F420E0822F0895611571057C
:1008900079F0FB0101900020E9F73197AF01461B89
:1008A000570BDC01ED91FC910280F381E02D19944E
:1008B00080E090E008954F925F926F927F92EF9266
:1008C000FF920F931F93CF93DF93CDB7DEB7A1971E
:1008D0000FB6F894DEBF0FBECDBF7C01FA01CB018D
:1008E00019A2223008F42AE08E010F5D1F4F422E1C
:1008F000512C612C712CBF01A30192010E947C1C20
:10090000F901CA01015011096A3014F4605D01C097
:10091000695CD8016C93232B242B252B61F7B8013C
:10092000C701B4DFA1960FB6F894DEBF0FBECDBFEE
:10093000DF91CF911F910F91FF90EF907F906F907B
:100940005F904F900895A2CF1F920F920FB60F9213
:1009500011240BB60F922F933F934F935F936F9396
:100960007F938F939F93AF93BF93EF93FF9388EA07
:1009700093E00E94D717FF91EF91BF91AF919F91A4
:100980008F917F916F915F914F913F912F910F9038
:100990000BBE0F900FBE0F901F9018951F920F92D5
:1009A0000FB60F9211240BB60F922F938F939F9334
:1009B000EF93FF93E091B803F091B9038081E09148
:1009C000BE03F091BF0382FD12C090818091C103EC
:1009D0008F5F8F732091C203821751F0E091C103A2
:1009E000F0E0E855FC4F958F8093C10301C08081F2
:1009F000FF91EF919F918F912F910F900BBE0F90D0
:100A00000FBE0F901F9018951F93CF93DF93282F41
:100A100030E0F901EE50FE4F8491F901E455FE4FAC
:100A2000D491F901EA59FE4FC491CC23C1F0162F9D
:100A3000811149DEEC2FF0E0EE0FFF1FE45BFE4F6B
:100A4000A591B4918FB7F894111105C09C91ED2F29
:100A5000E095E92302C0EC91ED2BEC938FBFDF9181
:100A6000CF911F910895863308F0865390917B00B3
:100A7000282F2870977F922B90937B00877080643B
:100A800080937C0080917A00806480937A008091CA
:100A90007A0086FDFCCF809178002091790090E06B
:100AA000922B08958F929F92AF92BF92CF92DF9236
:100AB000EF92FF926B017C0198DE4B015C01C11447
:100AC000D104E104F104E9F090DEDC01CB018819E6
:100AD0009909AA09BB09883E9340A105B10578F39D
:100AE00021E0C21AD108E108F10888EE880E83E0FF
:100AF000981EA11CB11CC114D104E104F10421F71A
:100B0000DECFFF90EF90DF90CF90BF90AF909F909F
:100B10008F9008952FB7F8946091F7027091F802C2
:100B20008091F9029091FA022FBF08956F927F92FF
:100B30008F929F92AF92BF92CF92DF92EF92FF92ED
:100B40000F931F93CF93DF931F92CDB7DEB73C0176
:100B5000912CE12CF12C0FEF1FEFD3015D968C91BE
:100B6000981608F03EC0C92CD12CD3015B96ED91AC
:100B7000FC915C97EC0DFD1D208130E0F901EE50F9
:100B8000FE4F8491F901E455FE4FA490F901EA5912
:100B9000FE4FB490BB2099F0811195DDEB2DF0E074
:100BA000EE0FFF1FE85EFE4FA591B491EC91AE22CF
:100BB00031E020E009F430E0832F922F02C080E082
:100BC00090E0F301268D30E08217930741F40F3F48
:100BD000FFEF1F0709F486018FEFE81AF80A9394D4
:100BE000BCCFEA94EF2859F5F301808D918D081759
:100BF000190769F041E060E0C30105D3D301139602
:100C00001C921E92129715961C921E92149761E0E8
:100C1000F301808D918D0817190709F060E0D30169
:100C200059961C930E9358975B968D919C915C9767
:100C3000FC01E00FF11F808157968C9301C060E0AA
:100C400040E0C301E0D2F82EF301048115810115C3
:100C5000110519F0158214825EC182819381823060
:100C6000910509F4E2C02CF4009769F00197F1F0C6
:100C70004AC18430910509F46FC00CF40CC105978A
:100C800009F4A0C040C1FF2009F445C181E090E013
:100C9000F301938382833EDFD30116966D937D9398
:100CA0008D939C93199701E010E035C1F1101DC0A0
:100CB000F301828582FF0FC082E090E093838283FC
:100CC00029DFD30116966D937D938D939C9319978D
:100CD00052E0E52E0CC083E090E0F301958384831D
:100CE0001382128242E0E42E01C0E12CF12C12DFCB
:100CF000D30116960D911D912D913C911997AB0141
:100D0000BC01401B510B620B730B1F968D919C9184
:100D10005097A0E0B0E084179507A607B70708F042
:100D2000F5C0F8DEF301668377838087918782853B
:100D300081FF05C084E090E093838283E7C080FF59
:100D400005C085E090E093838283A2C086E090E0B6
:100D5000F301938382839CC0F11006C085E090E08C
:100D6000D3019583848331C0D5DEF301C680D7805B
:100D7000E084F184AB01BC014C195D096E097F0967
:100D800083899489A0E0B0E084179507A607B70788
:100D900008F0C1C0828580FF0DC085E090E093839C
:100DA0008283B8DED30116966D937D938D939C93C9
:100DB00019976EC086E090E0F3019383828305E08B
:100DC00010E0A9C0F11008C0D30113961C921E9226
:100DD000129702E010E09FC09DDEF301C680D7802D
:100DE000E084F184AB01BC014C195D096E097F09F7
:100DF00085899689A0E0B0E0481759076A077B0704
:100E000008F489C0828583FD02C023E001C026E08A
:100E1000F12C29837FDED30116966D937D938D93FC
:100E20009C9319972981022F72C0FF2081F083E0E3
:100E300090E0F301938382836DDED30116966D9368
:100E40007D938D939C931997DD24D39401C0D12C6D
:100E5000E12C60DEF30186809780A084B184AB0131
:100E6000BC01481959096A097B0981899289A0E066
:100E7000B0E084179507A607B70708F04AC0FF201F
:100E800011F006E010E0D30113961C930E93129715
:100E900003E010E040C0F1100AC084E090E0F301EC
:100EA000958384831382128232E0D32E01C0D12C29
:100EB000E12C30DED30116968D909D90AD90BC90C4
:100EC0001997AB01BC01481959096A097B091F969A
:100ED0008D919C915097880F991FA0E0B0E0481722
:100EE00059076A077B07A8F083E090E0F301958338
:100EF0008483FF2011F006E010E0D30113961C93C9
:100F00000E93129706C0F11006C05ECF0E2D1F2D56
:100F100002C00D2D1E2DC8010F90DF91CF911F91A2
:100F20000F91FF90EF90DF90CF90BF90AF909F9088
:100F30008F907F906F9008951F920F920FB60F922F
:100F400011242F933F938F939F93AF93BF938091DF
:100F5000F7029091F802A091F902B091FA02309153
:100F6000F60223E0230F2D3720F40196A11DB11DB9
:100F700005C026E8230F0296A11DB11D2093F6029D
:100F80008093F7029093F802A093F902B093FA02CB
:100F90008091FB029091FC02A091FD02B091FE02B3
:100FA0000196A11DB11D8093FB029093FC02A093BA
:100FB000FD02B093FE02BF91AF919F918F913F913F
:100FC0002F910F900FBE0F901F90189585ED809375
:100FD000BC008091BC0084FDFCCF10928303089577
:100FE00040913603262F30E0240F311D2132310588
:100FF000DCF4209183032430C9F4FC0180E090E00C
:10100000861758F4309136032191DC01AC5EBC4F59
:10101000A30FB11D2C930196F3CF80913603680F77
:101020006093360380E0089581E0089582E008959A
:10103000089581E090E030915C0320915B033217CA
:1010400010F480E090E09195819591090895809148
:101050005C0390915B03891730F48F5F80935C038E
:1010600080E090E008958FEF9FEF089580915B03FB
:1010700090E020915C03821B91090895CF92DF924A
:10108000EF92FF920F931F93CF93DF937C01262F54
:10109000972F8A0180918403882391F0C62FD72F40
:1010A0006E01C40ED51ECC15DD0569F06991D7011E
:1010B000ED91FC910190F081E02DC7011995F3CFDE
:1010C000642F822F8DDFC801DF91CF911F910F9187
:1010D000FF90EF90DF90CF900895CF93DF931F9212
:1010E000CDB7DEB76983209184032223D1F020910C
:1010F000A703203240F021E030E0FC01338322835B
:1011000080E090E014C080918503E82FF0E0EA577A
:10111000FC4F998190838F5F809385038093A70311
:1011200004C061E0CE0101965BDF81E090E00F90AA
:10113000DF91CF910895089580E090E00895FC013B
:1011400087890895082E000C990BAA0BBB0BFC0194
:101150003C97E830F105D0F48827EC57FF4F8F4FCC
:101160000C94E31E61E007C061E008C061E009C0C3
:1011700061E00AC060E08EE008C060E08FE005C07A
:1011800060E080E102C060E081E13EDC80E090E070
:10119000089561E08A3009F460E08DE035DC80E09C
:1011A00090E00895CF93DF93EC0182E195E0BEDCFF
:1011B000059701F54091290550E060E070E02AE0D4
:1011C00088EA93E078DB90912905933069F028F460
:1011D000923081F481E090E00FC0943041F095307E
:1011E00049F484E090E008C082E090E005C083E02C
:1011F00090E002C080E090E021E030E03983288375
:10120000DF91CF910895FC01442321F013861486C9
:10121000168615868485258536852115310521F0AC
:101220002130310559F029C0811106C0662321F013
:1012300021E030E036872587648708958385982FDD
:10124000929596959770891B662311F0895F05C06A
:10125000811102C0138602C081508387938589EF74
:10126000890F813D78F081E0983D08F480E0138695
:1012700022E030E0368725870895611104C0168684
:101280001586089580E00895CF93FC01C48121E084
:1012900020938403C093A603109285031092A703A2
:1012A0008485682B85E494E018DF8091A703813260
:1012B00008F046C0909183039111FCCF92E0909387
:1012C000830391E0909382039FEF909381031092A8
:1012D000800380937F03A6E8B3E02FE533E0F901B4
:1012E0009E2F921B981718F49D919193F9CF10920D
:1012F0005E0380915E03CC0FC82BC0935E03809188
:101300005D03813061F410925D0380915E038093F0
:10131000BB008091BC0083FDF8CF85EC01C085EE59
:101320008093BC00809183038230E1F3809181033C
:101330008F3F31F080918103803211F080918103E1
:10134000109285031092A70310928403CF91089501
:101350000F931F93CF938C01C62F96DF6C2F646081
:10136000C80192DF6C2F6B7FC8018EDF83EC90E0A9
:101370000197F1F7CF911F910F910895FF920F936D
:101380001F93CF93DF931F92CDB7DEB78C01F62E5C
:10139000962F907F692F642BC8014983D9DF80E1A4
:1013A000F89EB00111244981642BC8010F90DF9190
:1013B000CF911F910F91FF90CBCF41E0DFDF81E014
:1013C00090E00895CF93DF93CDB7DEB728970FB69F
:1013D000F894DEBF0FBECDBF9C0188E0E3E1F2E0F0
:1013E000DE01119601900D928A95E1F7F901808551
:1013F000841710F44FEF480FFE013196E40FF11DF2
:10140000E40FF11D9081690F606840E0C9012896E2
:101410000FB6F894DEBF0FBECDBFDF91CF91AECF38
:101420004F925F926F927F928F929F92AF92BF92F4
:10143000CF92DF92EF92FF92CF93DF93CBE0D0E099
:1014400087E311DBBC01990F880B990B0E94AC1D3F
:1014500020E030E040EA50E40E94601E20E030E0EE
:1014600048EC52E40E94601E20E030EC4FE754E468
:101470000E94161D6B017C014B015C0142E060E0A3
:1014800085E095E09FDF62EC72E085E095E05BDA55
:1014900043E06DE085E095E095DFA7019601C70187
:1014A000B6010E94C31E882319F068ED72E01AC0CD
:1014B00026013701E89477F82FEF3FEF4FE75FE71A
:1014C000C301B2010E94C31E811110C02FEF3FEF74
:1014D0004FE75FE7C301B2010E94121D181634F4F2
:1014E0006CED72E085E095E0D1D978C02FEF3FEF49
:1014F0004FE75FE4C701B6010E945C1E18161CF49A
:1015000060EE72E0EFCF2FEF3FEF4FE75FECC701E8
:10151000B6010E94121D87FDF3CF20E030E0A90143
:10152000C701B6010E94121D87FF09C08DE20E940B
:101530005F1846015701B7FAB094B7F8B0942AE0A3
:1015400037ED43EA5BE3C501B4010E94AE1C4B01D9
:101550005C010E947E1D6B017C010E94AA1D9B0103
:10156000AC01C501B4010E94AD1C4B015C012AE035
:10157000B701A60185E095E09ED98EE20E945F1832
:1015800020E030E040E251E4C501B4010E94601E59
:101590004B015C010E947E1D6B01E12CF12C2AE0C5
:1015A000B701A60185E095E086D9C701B6010E9482
:1015B000AA1D9B01AC01C501B4010E94AD1C20E035
:1015C00030E040E251E40E94601E0E947E1DAB01AB
:1015D00060E070E02AE085E095E06DD968EE73E0A8
:1015E00080E090E05FDA42E060E085E095E0EADEEE
:1015F00064EE72E085E095E0A6D9219709F020CF4E
:1016000080E090E0DF91CF91FF90EF90DF90CF905E
:10161000BF90AF909F908F907F906F905F904F9012
:101620000895EF92FF920F931F93CF93DF9300D013
:101630001F92CDB7DEB78BE0E82EF12C86E313DAEC
:101640008C0142E060E085E095E0BCDEA801110F6E
:10165000660B770B77FF12C08DE249835A836B8349
:101660007C830E945F1849815A816B817C817095CF
:101670006095509541955F4F6F4F7F4F2AE085E011
:1016800095E019D941E060E085E095E09BDE6BEEE6
:1016900072E085E095E057D968EE73E080E090E075
:1016A00001DA42E060E085E095E08CDE64EE72E015
:1016B00085E095E048D981E0E81AF10809F0BECF4D
:1016C00080E090E00F900F900F900F90DF91CF91FE
:1016D0001F910F91FF90EF900895CF93DF93EC014E
:1016E00040E061E04BDE8BE39FE10197F1F78985F4
:1016F000882331F040E060E0CE01DF91CF9162CEEF
:10170000DF91CF910895CF93DF93EC0110925C03AA
:1017100010925B03109285031092A703109283032B
:1017200081E08093820310925D0361E084E16CD9D3
:1017300061E085E169D9E9EBF0E080818E7F80830B
:1017400080818D7F808388E48093B80085E48093D6
:10175000BC001D826B85CE01DF91CF910C946A187D
:10176000CF93DF93EB018130910509F43AC044F542
:10177000892B09F04DC081E594E0C5DF88E08093B6
:101780005D0460E081E594E07FDD64E081E594E064
:101790000E946A1881E594E0A0DF609157046D7F94
:1017A00060935704686040E081E594E0E7DD44E140
:1017B00050E060E270E08FEF92E00E94FB1E28C0D4
:1017C0008230910591F0039719F541E060E081E5E1
:1017D00094E0F8DD6FEF72E081E594E0B4D841E089
:1017E0000FC081E594E079DF13C040E060E081E55F
:1017F00094E0E8DD6FEF72E081E594E0A4D840E08A
:1018000060E081E594E0DEDDBE0181E594E09BD8F7
:1018100081E0DF91CF9108951F920F920FB60F9242
:1018200011240BB60F922F933F934F935F936F93B7
:101830007F938F939F93AF93BF93EF93FF93809189
:10184000B900887F803609F49CC068F5883209F4B5
:101850005BC090F4803109F454C038F4882309F453
:10186000F6C0883009F44DC0F5C0883109F44CC089
:10187000803209F45DC0EEC0803409F468C048F4D9
:10188000803309F455C0883309F0E4C080938103A4
:10189000D8C0803509F44FC0883509F45DC088345C
:1018A00009F0D8C0D6C0883909F4C7C0A8F4883771
:1018B00009F467C038F4883609F463C0803709F446
:1018C00060C0C8C0883809F4B8C0803909F45FC066
:1018D000803809F0BFC05BC0803B09F486C038F493
:1018E000803A09F466C0883A09F47FC0B3C0803CEE
:1018F00009F4A7C0883C09F4A4C0883B09F48AC055
:10190000A9C080915E0310C09091800380917F03F5
:10191000981770F5E091800381E08E0F809380032B
:10192000F0E0E15AFC4F80818093BB0085EC86C0DB
:10193000809381038EC0E091800381E08E0F8093BD
:1019400080038091BB00F0E0E15AFC4F80839091CE
:10195000800380917F036EC0E091800381E08E0F51
:10196000809380038091BB00F0E0E15AFC4F8083BC
:101970008091820381116DC081E080935D0384EAD0
:1019800061C083E08093830310925A03CFCF80918C
:101990005A03803208F051C0E0915A0381E08E0F63
:1019A00080935A038091BB00F0E0E65CFC4F80839B
:1019B000BDCF85EC8093BC001092830380915A03C5
:1019C000803230F4E0915A03F0E0E65CFC4F108284
:1019D00060915A0370E0E0913803F09139038AE393
:1019E00093E0199510925A0335C084E080938303E5
:1019F0001092370310923603E0913403F0913503CF
:101A0000199580913603811105C081E080933603DA
:101A100010921403E091370381E08E0F8093370317
:101A2000F0E0EC5EFC4F80818093BB009091370327
:101A300080913603981708F479CF85E88093BC002D
:101A400009C085EC8093BC001092830303C0109200
:101A50008103BCDAFF91EF91BF91AF919F918F917C
:101A60007F916F915F914F913F912F910F900BBE9E
:101A70000F900FBE0F901F9018952F923F924F928C
:101A80005F926F927F928F929F92AF92BF92CF920E
:101A9000DF92EF92FF920F931F93CF93DF9300D0CB
:101AA0001F92CDB7DEB75C019E2C70E061507109CA
:101AB0001B01280E391EDA01C9018827B7FD83955D
:101AC0009927AA27BB27882E882341F0CC24DD2420
:101AD0007601C21AD30AE40AF50A02C069017A0142
:101AE000A114B10409F44EC0D1011C92802F90E0E2
:101AF000A0E0B0E089839A83AB83BC83C701B601C1
:101B000029813A814B815C810E947C1C29013A0128
:101B100069817A818B819C810E94C71E9701860111
:101B2000061B170B280B390BB901A8010A30110548
:101B30002105310518F4F10180E30BC0D901C8017A
:101B40000A97A109B1090697A105B10528F4F10189
:101B500087E3840F82931F014114510461047104CF
:101B600031F0730162012A143B0441F606C0C10141
:101B70002A143B0451F4882019F083E2D5018C9398
:101B8000C50117C080E090E014C0882039F011E052
:101B9000211A3108FC0131972DE22083F101EA1569
:101BA000FB0571F3911002C080E201C080E38293D3
:101BB000F6CF0F900F900F900F90DF91CF911F9164
:101BC0000F91FF90EF90DF90CF90BF90AF909F90DC
:101BD0008F907F906F905F904F903F902F900895DF
:101BE000FC01892B79F08491811101C0089580E076
:101BF00094919C3719F48F5F3196FACF9111FCCFF5
:101C00008F5F089580E008952F923F924F925F92E8
:101C10006F927F928F929F92AF92BF92CF92DF92FC
:101C2000EF920F931F93CF93DF931F921F92CDB725
:101C3000DEB76B01142F4DB75EB75A8349838130ED
:101C4000910509F452C01CF4892B21F106C282309F
:101C5000910509F4BDC0039709F0FFC1E091740438
:101C6000F09175048091760490917704A0917804A6
:101C7000B091790480839183A283B38380917A04A5
:101C80008483DB015296ED91FC91539760E08C9137
:101C90001995E5C1DB015296ED91FC91539761E0F6
:101CA0008C9119959093750480937404009709F4AE
:101CB000D6C1FC01408151816281738140937604D9
:101CC00050937704609378047093790484818E3EF6
:101CD0000CF48EEE80937A0480917A0483310CF4B4
:101CE000E8C082E180937A04E4C0DB015F968C91C6
:101CF000829FA001839F500D1124809176049091C2
:101D00007704A0917804B0917904BC01CD01640FEF
:101D1000751F811D911D00917A04F601B68C603407
:101D2000F2E47F07FFE08F07910514F50B1574F0BF
:101D3000D6015A964D905D906D907C905D970B11F9
:101D40000EC064157505860597054CF460937604FE
:101D5000709377048093780490937904AAC040929A
:101D60007604509277046092780470927904A1C04E
:101D700028EE33E040E050E00E94561C20937604A9
:101D80003093770440937804509379040D5F009367
:101D90007A04B0166CF00B118CC0F601828D938D15
:101DA000A48DB58D82179307A407B5070CF081C0E9
:101DB000F601828D938DA48DB58D809376049093DA
:101DC0007704A0937804B0937904B0927A0471C038
:101DD000DB015F964C91429FC001439F900D1124FF
:101DE0004091760450917704609178047091790461
:101DF0009A01AB01281B390B4109510900917A0462
:101E0000283EB3E03B07410551050CF1F601618D19
:101E100060175CF085899689A789B08D06130EC07E
:101E200082179307A407B5074CF4209376043093E8
:101E3000770440937804509379043BC080937604F0
:101E400090937704A0937804B093790432C0A8EEFD
:101E5000B3E00E94721C60937604709377048093C1
:101E6000780490937904EDEFE00FE0937A04D601C3
:101E700059962C915997E2176CF0E2131AC05596B7
:101E80008D909D90AD90BC905897681579058A0506
:101E90009B057CF4F601458956896789708D4093CE
:101EA00076045093770460937804709379042093B8
:101EB0007A042DB63EB6D6011196FD0101900020A0
:101EC000E9F731975F01AA1ABB0AF60180A191A137
:101ED0000E944D1CD60154962C9130E02B5F3F4F51
:101EE000A20EB31E8A0D9B1DEDB7FEB7E81BF90BC2
:101EF0000FB6F894FEBF0FBEEDBF2DB73EB72F5FF4
:101F00003F4F5901B601C9010E946919D5010D90D1
:101F10000020E9F74D01609176047091770480917B
:101F200078049091790428EE422E23E0522E612C01
:101F3000712CA30192010E94561CF6016489635022
:101F4000E12C0AE0C401019798DDF5010190002021
:101F5000E9F71082F50101900020E9F731978EE250
:101F60008083F50101900020E9F731974F018A182D
:101F70009B08609176047091770480917804909129
:101F80007904A30192010E94561C9B01AC0197FFAA
:101F900007C050954095309521953F4F4F4F5F4F6B
:101FA000EE24E3940AE064E0C501880D991D65DD27
:101FB00065E272E0C5010E94021FF5010190002058
:101FC000E9F71082D5010D900020E9F7E1E0F2E099
:101FD00001900020E9F73197E150F2401197F69512
:101FE000E79580917A0463E00E94D61EEF5FFD4F73
:101FF000E80FF11D87FDFA9580818C93D6019096AC
:102000006D917C919197C5010E94421CE091600402
:10201000F0916104B50183E090E019951123C1F0BE
:102020008091760490917704A0917804B09179041E
:10203000E0917404F091750480839183A283B3834B
:10204000D6015296ED91FC91539760E08C911995D1
:102050000FB6F8943EBE0FBE2DBE80E001C081E0F9
:10206000E981FA810FB6F894FEBF0FBEEDBF0F9065
:102070000F90DF91CF911F910F91EF90DF90CF9054
:10208000BF90AF909F908F907F906F905F904F9098
:102090003F902F9008952F923F924F925F926F92B0
:1020A0007F928F929F92AF92BF92CF92DF92EF92E8
:1020B0000F931F93CF93DF931F921F92CDB7DEB77D
:1020C0006B01142F4DB75EB75A8349838130910558
:1020D000C9F11CF4892B09F124C18230910509F45E
:1020E00050C0039709F01DC1809176049091770448
:1020F000A0917804B0917904E0917404F091750492
:1021000080839183A283B383DB015296ED91FC918E
:10211000539760E08C91199506C1DB015296ED91C1
:10212000FC91539761E08C9119959093750480937D
:102130007404009709F4F7C0FC0180819181A281A9
:10214000B3813DC0DB015F968C91829FA001839F8C
:10215000500D11248091760490917704A091780419
:10216000B0917904840F951FA11DB11DFB01428D13
:10217000538D648D758D84179507A607B70744F5B1
:102180001EC0DB015F968C91829FA001839F500D42
:1021900011248091760490917704A0917804B091F5
:1021A0007904841B950BA109B109FB014589568966
:1021B0006789708D481759076A077B074CF480932D
:1021C000760490937704A0937804B093790408C0C0
:1021D0004093760450937704609378047093790465
:1021E0002DB63EB6D6011196FD0101900020E9F70B
:1021F0003197EA1BFB0BD60154968C9190E0049624
:10220000E80FF91F2DB73EB72E1B3F0B0FB6F89402
:102210003EBF0FBE2DBF4DB75EB74F5F5F4F5A0138
:10222000B601CA010E946919D5010D900020E9F795
:102230004D016091760470917704809178049091BB
:10224000790424E6422E512C612C712CA3019201B9
:102250000E94561CF60164896250E12C0AE0C40118
:1022600001970BDCF50101900020E9F71082F501E0
:1022700001900020E9F731978EE28083F50101900B
:102280000020E9F731974F018A189B086091760486
:10229000709177048091780490917904A301920160
:1022A0000E94561C9B01AC0197FF07C050954095BA
:1022B000309521953F4F4F4F5F4FEE24E3940AE056
:1022C00063E0C501880D991DD8DB65E272E0C501A8
:1022D0000E94021FE0916004F0916104B50183E067
:1022E00090E019951123C1F08091760490917704C4
:1022F000A0917804B0917904E0917404F091750490
:1023000080839183A283B383D6015296ED91FC9191
:10231000539760E08C9119950FB6F8943EBE0FBEAE
:102320002DBE80E001C081E029813A810FB6F8948A
:102330003EBF0FBE2DBF0F900F90DF91CF911F9129
:102340000F91EF90DF90CF90BF90AF909F908F90C4
:102350007F906F905F904F903F902F9008956F9275
:102360007F928F929F92AF92BF92CF92DF92EF9225
:102370000F931F93CF93DF93CDB7DEB76B01142F6D
:10238000ADB6BEB681309105C9F11CF4892B09F1B7
:10239000D8C08230910509F448C0039709F0D1C034
:1023A0008091760490917704A0917804B09179049B
:1023B000E0917404F091750480839183A283B383C8
:1023C000DB015296ED91FC91539760E08C91199549
:1023D000BAC0DB015296ED91FC91539761E08C916C
:1023E00019959093750480937404009709F4ABC019
:1023F000FC0180819181A281B3812DC080917604FE
:1024000090917704A0917804B0917904820F931F82
:10241000A11DB11DFB01428D538D648D758D8417F7
:102420009507A607B70704F516C08091760490912A
:102430007704A0917804B0917904821B930BA109D1
:10244000B109FB01458956896789708D481759077D
:102450006A077B074CF48093760490937704A093EB
:102460007804B093790408C04093760450937704BD
:1024700060937804709379048DB69EB6D601119658
:10248000FD0101900020E9F73197EA1BFB0BD60113
:1024900054968C9190E00496E80FF91F8DB79EB783
:1024A0008E1B9F0B0FB6F8949EBF0FBE8DBFADB7AE
:1024B000BEB711963D01B601CD010BD7F3010190D6
:1024C0000020E9F7CF012091760430917704409104
:1024D000780450917904D60154966C9154976F5FAB
:1024E000E12C5F960C910197C8DA65E272E0C301B6
:1024F0000E94021FE0916004F0916104B30183E047
:1025000090E019951123C1F08091760490917704A1
:10251000A0917804B0917904E0917404F09175046D
:1025200080839183A283B383D6015296ED91FC916F
:10253000539760E08C9119950FB6F8949EBE0FBE2C
:102540008DBE80E001C081E00FB6F894BEBE0FBE24
:10255000ADBEDF91CF911F910F91EF90DF90CF90A3
:10256000BF90AF909F908F907F906F9008959F92B3
:10257000AF92BF92CF92DF92EF92FF920F931F9391
:10258000CF93DF93CDB7DEB78B01942EEDB6FEB6B9
:102590008330910534F481309105A4F5892BE9F05D
:1025A000A9C0039709F0A6C08091760490917704A2
:1025B000A0917804B0917904E0917404F0917504CD
:1025C00080839183A283B383DB015296ED91FC91CA
:1025D000539760E08C9119958FC0DB015296ED9175
:1025E000FC91539761E08C911995909375048093B9
:1025F0007404009709F480C0FC0180819181A2815C
:10260000B38113C081E090E0A0E0B0E04091760497
:10261000509177046091780470917904452B462B92
:10262000472B19F080E090E0DC01809376049093D2
:102630007704A0937804B0937904CDB6DEB6F801A0
:102640003196DF010D900020E9F7CD018E1B9F0B25
:102650000496EDB7FEB7E81BF90B0FB6F894FEBF72
:102660000FBEEDBF2DB73EB72F5F3F4F5901B801E9
:10267000C9012FD68091760490917704A0917804B7
:10268000B0917904892B8A2B8B2B19F46BE172E0C2
:1026900002C06DE172E0C5010E94021F65E272E0B6
:1026A000C5010E94021FE0916004F0916104B50130
:1026B00083E090E019959920C1F080917604909183
:1026C0007704A0917804B0917904E0917404F091BA
:1026D000750480839183A283B383D8015296ED91D0
:1026E000FC91539760E08C9119950FB6F894DEBE7B
:1026F0000FBECDBE80E001C081E00FB6F894FEBEF3
:102700000FBEEDBEDF91CF911F910F91FF90EF9023
:10271000DF90CF90BF90AF909F9008952F923F92FF
:102720004F925F926F927F928F929F92AF92BF92E1
:10273000CF92DF92EF92FF920F931F93CF93DF938D
:10274000CDB7DEB78B01542E2DB63EB68130910544
:1027500009F48DC01CF4892B09F12BC1823091053D
:1027600009F455C0039709F024C180917604909133
:102770007704A0917804B0917904E0917404F09109
:10278000750480839183A283B383DB015296ED911C
:10279000FC91539760E08C91199598C0DB0190965D
:1027A0008D919C9191971CDAF82E882309F48EC0A4
:1027B000D8015296ED91FC91539761E08C91199557
:1027C0009093750480937404009709F47FC0FC0112
:1027D00040815181628173814093760450937704E4
:1027E00060937804709379048F2D90E0A0E0B0E0BE
:1027F000481759076A077B070CF46AC010927604E1
:1028000010927704109278041092790461C0DB0171
:1028100090968D919C919197E3D940917604509137
:1028200077046091780470917904141615061606E1
:1028300017062CF4415051096109710933C0452B29
:10284000462B472B09F0B5C09091730492FFB1C09D
:1028500090E00197092E000CAA0BBB0B8093760425
:1028600090937704A0937804B093790431C0FB016E
:1028700080A191A1B5D940917604509177046091DF
:1028800078047091790490E00197092E000CAA0B4E
:10289000BB0B481759076A077B076CF44F5F5F4F04
:1028A0006F4F7F4F40937604509377046093780482
:1028B000709379040DC0481759076A077B0709F020
:1028C00078C08091730482FD99CF73C081E0AAC063
:1028D0008DB69EB6F801848990E06C01FFEFCF1AA7
:1028E000DF0A2DB73EB72C193D090FB6F8943EBF4D
:1028F0000FBE2DBFADB7BEB711963D01D8011196E1
:10290000FD0101900020E9F73197EA1BFB0B0596CA
:10291000E80FF91F2E1B3F0B0FB6F8943EBF0FBEFA
:102920002DBF8DB79EB701965C01B801D2D44090FF
:102930007604D8019096ED90FC909197DD24A60145
:1029400060E070E0C3010E94FB1EE114F10409F095
:102950003DC0B301C5010E94021F65E272E0C501DE
:102960000E94021FE0916004F0916104B50183E0D0
:1029700090E019955520C1F08091760490917704EC
:10298000A0917804B0917904E0917404F0917504F9
:1029900080839183A283B383D8015296ED91FC91F9
:1029A000539760E08C9119950FB6F8949EBE0FBEB8
:1029B0008DBE80E037C0EC3741F0BFEFEB1AFB0A69
:1029C000F7013197E491E111F6CF4A944110F5CF28
:1029D000462DD301E1E0CE1AD108CD012A2F241BC8
:1029E00030E02C153D057CF4F70124912C3711F0D3
:1029F0002C9301C01C921196FFEFEF1AFF0AFC0105
:102A000020812111EACFDC0180E2F3010190002056
:102A1000E9F73197E619F709EC15FD0508F099CFAC
:102A20008D93F3CF0FB6F8943EBE0FBE2DBEDF914F
:102A3000CF911F910F91FF90EF90DF90CF90BF90BB
:102A4000AF909F908F907F906F905F904F903F904E
:102A50002F900895CF93DF93D82FC0E09091670413
:102A6000C917A0F4609168047091690482E2C89F5C
:102A7000600D711D112442E250E080ED94E0F9D622
:102A80008091D0048D1729F0CF5FE8CF80E090E0EF
:102A900002C080ED94E0DF91CF910895FC01538D49
:102AA000448D252F30E0842F90E0821B930B541728
:102AB00010F0CF96089501970895FC01918D828DB5
:102AC000981761F0828DDF01A80FB11D5D968C9182
:102AD000928D9F5F9F73928F90E008958FEF9FEF8D
:102AE0000895FC01918D828D981731F0828DE80F49
:102AF000F11D858D90E008958FEF9FEF0895FC0103
:102B0000918D228D892F90E0805C9F4F821B9109CF
:102B10008F739927089580E090E0892B21F00E941F
:102B20003C04811125C080E090E0892B41F080E0D9
:102B300090E0892B21F00E94000081111CC080E0F0
:102B400090E0892B41F080E090E0892B21F00E94F9
:102B50000000811113C080E090E0892BA1F080E09B
:102B600090E0892B81F00E94000081110AC0089535
:102B70000E940000D8CF0E940000E1CF0E94000018
:102B8000EACF0C9400000895AF92BF92CF92DF92EB
:102B9000EF92FF920F931F93CF93DF93CDB7DEB7E2
:102BA00067970FB6F894DEBF0FBECDBFEDB6FEB689
:102BB0008823A1F1E0916004F091610460E070E08D
:102BC00081E090E0199560917B0415E1169FB001BA
:102BD000112463587B4FE0916004F091610482E01E
:102BE00090E01995E0917B041E9FF0011124E25AB8
:102BF000FB4F82A9811102C080A982AB809173042E
:102C00008160809373040E948A0560936B047093C3
:102C10006C0480936D0490936E0474C181E090E025
:102C20009F8B8E8BE0915E04F0915F04CE014696FF
:102C300019958C01892B51F00E948A0560936B04D1
:102C400070936C0480936D0490936E0402301105B0
:102C500089F03CF40130110509F093C110E005E161
:102C600041C00330110509F44DC00430110509F4C9
:102C700038C187C110E005E180917B0490E0089F96
:102C8000F001099FF00D1124E25AFB4F22A930A94F
:102C9000321714F4215005C02091730422FF03C0A1
:102CA00021A922AB11E0089FF001099FF00D11242A
:102CB000E25AFB4F82A96AD2892BF1F220C12091FE
:102CC000730422FF03C020A922AB11E0089FF0018A
:102CD000099FF00D1124E25AFB4F82A957D2892B8C
:102CE00009F00DC180917B0490E0089FF001099FDD
:102CF000F00D1124E25AFB4F22A931A92317FCF64B
:102D00002F5FE2CFE0917B0415E11E9FF0011124BB
:102D1000E25AFB4F82A93AD2FC018089918900973F
:102D200029F097FD2EC10397DCF12BC190917B0414
:102D3000933008F026C19F5F90937B0402890F3F78
:102D400011F410E018C010E0809164041817C8F75F
:102D5000609162047091630425E1129F600D711D02
:102D6000112445E150E0CE01019683D58981801779
:102D700011F01F5FE9CF609162047091630435E147
:102D80001302600D711D112480917B04E5E18E9F7B
:102D9000C001112445E150E084589B4F6AD52DC0F5
:102DA000828958DE892B09F4ECC0E0916004F0912F
:102DB000610460E070E081E090E01995E0917B04AF
:102DC0001E9FF0011124E25AFB4F82A9DFD16C0152
:102DD000BC016F5F7F4FE0916004F091610482E07D
:102DE00090E01995F601828935DE8C01009741F457
:102DF000809173048D7F8093730481E0C5DEC1C030
:102E0000FC0182899389892B99F3809173048260F4
:102E1000809373040E948A0560936B0470936C0422
:102E200080936D0490936E04F801808991898230BB
:102E3000910549F12CF4009771F00197C1F0A1C000
:102E40008430910509F43BC064F1059709F099C0FD
:102E5000C801C0D142C041E0F60180899189029742
:102E600009F040E0B80180E090E058DC36C041E075
:102E7000F60180899189029709F040E0B80180E06D
:102E800090E075DB2AC041E0F601808991890297C4
:102E900009F040E021E030E0B80180E090E05FDA46
:102EA0001CC041E0F60180899189029709F040E059
:102EB00021E030E0B80180E090E0EDD80EC041E0C4
:102EC000F60180899189029709F040E021E030E025
:102ED000B80180E090E00E94040E882309F451C0FC
:102EE00087CF80917B04811106C0809173048E7F0F
:102EF0008093730446C0815080937B047ECF11235E
:102F000009F43FC0E0917B0425E1E29FF001112428
:102F1000E25AFB4F82A93AD1009799F1CDB6DEB6BD
:102F20008C010F5F1F4FF80101900020E9F7CF01DE
:102F3000801B910B0296EDB7FEB7E81BF90B0FB69D
:102F4000F894FEBF0FBEEDBF2DB73EB72F5F3F4FCA
:102F5000590161E272E0C90160D7B801C50152D7D9
:102F60006FE172E0C5014ED7E0916004F091610419
:102F7000B50183E090E019950FB6F894DEBE0FBE60
:102F8000CDBE0FB6F894FEBE0FBEEDBE67960FB66F
:102F9000F894DEBF0FBECDBFDF91CF911F910F918F
:102FA000FF90EF90DF90CF90BF90AF900895FC011D
:102FB000848DDF01A80FB11DA35ABF4F2C91848DC2
:102FC00090E001968F739927848FA689B7892C93F7
:102FD000A089B1898C9180648C93938D848D981392
:102FE00006C00288F389E02D80818F7D808308955B
:102FF000EF92FF920F931F93CF93DF93EC0181E049
:10300000888F9B8D8C8D981305C0E889F989808104
:1030100085FD23C0F62E0B8D10E00F5F1F4F0F7341
:103020001127E02E8C8DE8120BC00FB607FCFACFEB
:10303000E889F989808185FFF5CFCE01B8DFF2CF2D
:103040008B8DFE01E80FF11DE35AFF4FF0820B8FCD
:10305000EA89FB898081806207C0EE89FF896083ED
:10306000E889F98980818064808381E090E0DF9144
:10307000CF911F910F91FF90EF900895CF93DF9321
:10308000EC01888D8823C1F0EA89FB89808185FD68
:1030900005C0A889B9898C9186FD0EC00FB607FCC2
:1030A000F5CF808185FFF2CFA889B9898C9185FF02
:1030B000EDCFCE017CDFE8CFDF91CF910895E09195
:1030C0000505F09106050190F081E02D682F85E05F
:1030D00095E019940F931F93CF93DF93EC01623027
:1030E00018F08D8188608D83688762E370E080E0EE
:1030F00090E00E9452056C85CE010E94440968EE62
:1031000073E080E090E00E94520560E3CE010E94EF
:10311000A8090BE416E4C8010197F1F760E3CE01BA
:103120000E94A809C8010197F1F760E3CE010E944F
:10313000A80983E592E00197F1F760E2CE010E94D1
:10314000A8096D81606240E0CE010E94BE0984E062
:103150008E8340E06CE0CE010E94BE09CE010E9449
:103160006D0B82E08F8340E066E0CE010E94BE09D5
:1031700040E062E0CE010E94BE098BE39FE101972F
:10318000F1F7DF91CF911F910F910895CF93DF93C6
:10319000D82FC0E090916704C917A0F4609165042E
:1031A0007091660483E1C89F600D711D112443E195
:1031B00050E082EF94E05DD38091F2048D1729F006
:1031C000CF5FE8CF80E090E002C082EF94E0DF9133
:1031D000CF910895CF92DF92EF92FF920F931F93BA
:1031E000CF93DF93CDB7DEB78C01CDB6DEB6DC0171
:1031F0005296ED91FC91539761E08C9119957C0169
:103200009093750480937404009739F50F5F1F4FF6
:10321000F80101900020E9F7CF01801B910B039684
:103220002DB73EB7281B390B0FB6F8943EBF0FBE23
:103230002DBF8DB79EB701967C0167E272E0EDD598
:10324000B801C701DFD565E272E0C701DBD5E091C7
:103250006004F0916104B70125C0FC0101900020D9
:10326000E9F7CF018E199F090396ADB7BEB7A81B2A
:10327000B90B0FB6F894BEBF0FBEADBF0DB71EB7EA
:103280000F5F1F4F67E272E0C801C7D5B701C801E1
:10329000B9D565E272E0C801B5D5E0916004F0915E
:1032A0006104B80183E090E019950FB6F894DEBE92
:1032B0000FBECDBE80E00FB6F894DEBE0FBECDBE11
:1032C000DF91CF911F910F91FF90EF90DF90CF9002
:1032D0000895CF93DF93EC016F5F7F4F9ED563E23C
:1032E00072E0CE018FD567E272E0CE01DF91CF911F
:1032F00089C5CF93DF931F921F92CDB7DEB7789425
:1033000084B5826084BD84B5816084BD85B58260EA
:1033100085BD85B5816085BD80916E00816080939B
:103320006E00109281008091810082608093810004
:103330008091810081608093810080918000816014
:10334000809380008091B10084608093B10080916F
:10335000B00081608093B000809191008260809382
:103360009100809191008160809391008091900004
:103370008160809390008091A10082608093A10081
:103380008091A10081608093A1008091A000816064
:103390008093A0008091210182608093210180911F
:1033A00021018160809321018091200181608093BF
:1033B000200180917A00846080937A0080917A0065
:1033C000826080937A0080917A00816080937A0095
:1033D00080917A00806880937A001092C10085E025
:1033E00095E00E94830B88E08093110560E085E002
:1033F00095E00E94440964E085E095E06BDE61E0C1
:103400008DE00E94B90360E087E30E94B90360E0A9
:1034100088E30E94B90361E08EE00E94B90361E095
:103420008FE00E94B90361E080E10E94B90361E08E
:1034300081E10E94B90360E070E080E090E00E94CA
:10344000B00B82E195E00E941A0480911C058E7FEA
:1034500080931C05809173048C608093730488E8CA
:1034600093E1A0E0B0E080936F0490937004A09388
:103470007104B093720485E1D82E809100028823F4
:1034800021F08091730480FF45C080917304982FD0
:1034900091709093000291110CC083FF39C0E091AC
:1034A0005E04F0915F04CE0101961995039781F5B2
:1034B0005CC081FFEFC081E090E09A838983E09156
:1034C0005E04F0915F04CE01019619958C01843061
:1034D000910509F4D8C0892B09F055C080916F047B
:1034E00090917004A0917104B0917204892B8A2B81
:1034F0008B2B09F0D2C08091730480FD09C0E0914C
:103500006004F091610460E070E081E090E0199562
:1035100002DBB3CF6DE672E085E095E00E94A30484
:1035200041E060E085E095E00E94E20962E872E037
:1035300085E095E00E94A30442E060E085E095E02C
:103540000E94E20968E972E085E095E00E94A30428
:1035500043E060E085E095E00E94E2096DEA72E0F8
:1035600085E095E00E94A30490CF10927B046091C7
:1035700062047091630445E150E08CE794E079D1F6
:1035800081E002DBC5CF0E948A0560936B047093D3
:103590006C0480936D0490936E04E0917B04DE9E36
:1035A000F0011124E25AFB4F82A9F0DD7C01FC01FD
:1035B000828950DADC0150962D913C91519722304E
:1035C000310541F13CF42115310569F02130310517
:1035D000A9F084CF24303105C9F154F125303105EB
:1035E00009F442C07BCF41E0F701808991890297BD
:1035F00009F040E0BD01C80191D842C041E0F701A7
:1036000080899189029709F040E0BD01C8010E94BC
:10361000B71236C029813A8141E0F701808991894A
:10362000029709F040E0BD01C8010E94AF1128C017
:1036300029813A8141E0F70180899189029709F057
:1036400040E0BD01C8010E944B101AC029813A8197
:1036500041E0F70180899189029709F040E0BD01BE
:10366000C8010E94040E0CC00330110509F036CFCA
:103670005296ED91FC91539760E08C91199503C09F
:10368000882309F42BCF809173048D7F809373047A
:1036900081E001C080E078DA21CF0E948A050091A4
:1036A0006B0410916C0420916D0430916E04DC0168
:1036B000CB01801B910BA20BB30B00916F041091F7
:1036C0007004209171043091720480179107A20751
:1036D000B30708F410CF809173048C7F8093730438
:1036E00010927B0408CF0895DF92EF92FF920F9320
:1036F0001F93CF93DF93E8EAF3E01382128288EE00
:1037000093E0A0E0B0E084839583A683B7832DE2A5
:1037100032E03183208325EC30E03587248724ECA8
:1037200030E03787268720EC30E0318B208B21EC8E
:1037300030E0338B228B22EC30E0358B248B26EC6F
:1037400030E0378B268B118E128E138E148EE5E4AB
:10375000F4E01382128284839583A683B7838FE378
:1037600092E091838083E1E3F5E01382128281E5A8
:10377000E82E82E0F82EF182E082118697E2D92EBF
:10378000D48204E1028714E013871486C2E1D5E0F5
:103790008DE592E0998388831B821A821B868FEFC6
:1037A0009FEF998F888F86E990E0988B8F878AEFBB
:1037B00090E09A8B898B8A8528E532E03C8B2B8BB5
:1037C0002CE231E03E8B2D8B877F87608A8741E03A
:1037D00060E0CE010E9403091B821A821D821C82B6
:1037E00087E692E0998388838FE092E09C8F8B8FAD
:1037F0001D8F1E8EE1E5F4E013821282F182E082D9
:103800001186D482028713871486E5E0F5E01382DF
:103810001282F182E0821186D48202871387148695
:10382000EEE5F4E08FE595E09583848388E0868378
:1038300080ED93E09087878385E1818788E392E03C
:10384000938782878CE08487118A128A138A148A6C
:10385000158A82ED98E09183808380EB9BE09383CF
:103860008283DF91CF911F910F91FF90EF90DF90B6
:103870000895FB01DC0102C005900D9241505040BB
:10388000D8F70895FB01DC010D900020E9F71197AE
:1038900005900D920020E1F70895FC0105900020AD
:1038A000E9F7809590958E0F9F1F0895052E97FB41
:1038B00016F400940FD057FD05D01ED007FC02D09F
:1038C00046F408C050954095309521953F4F4F4F95
:1038D0005F4F089590958095709561957F4F8F4FBC
:1038E0009F4F08952BD0A59F900DB49F900DA49F3E
:1038F000800D911D11240895A1E21A2EAA1BBB1B55
:10390000FD010DC0AA1FBB1FEE1FFF1FA217B307AB
:10391000E407F50720F0A21BB30BE40BF50B661FC1
:10392000771F881F991F1A9469F760957095809585
:1039300090959B01AC01BD01CF010895A29FB001FC
:10394000B39FC001A39F700D811D1124911DB29FD3
:10395000700D811D1124911D08955058BB27AA2771
:103960000ED070C161D130F066D120F031F49F3FAC
:1039700011F41EF456C10EF4E095E7FB4CC1E92F9B
:1039800072D180F3BA17620773078407950718F09E
:1039900071F49EF58AC10EF4E0950B2EBA2FA02D7E
:1039A0000B01B90190010C01CA01A0011124FF27EC
:1039B000591B99F0593F50F4503E68F11A16F040E7
:1039C000A22F232F342F4427585FF3CF46953795E6
:1039D0002795A795F0405395C9F77EF41F16BA0BAB
:1039E000620B730B840BBAF09150A1F0FF0FBB1F59
:1039F000661F771F881FC2F70EC0BA0F621F731FA2
:103A0000841F48F4879577956795B795F7959E3FFE
:103A100008F0B3CF9395880F08F09927EE0F97958C
:103A200087950895D4D008F481E008950CD00AC198
:103A300002D140F0F9D030F021F45F3F19F0EBC033
:103A4000511134C1EEC00FD198F39923C9F3552316
:103A5000B1F3951B550BBB27AA2762177307840781
:103A600038F09F5F5F4F220F331F441FAA1FA9F337
:103A700033D00E2E3AF0E0E830D091505040E69529
:103A8000001CCAF729D0FE2F27D0660F771F881F8A
:103A9000BB1F261737074807AB07B0E809F0BB0B79
:103AA000802DBF01FF2793585F4F2AF09E3F51059D
:103AB00068F0B1C0FBC05F3FECF3983EDCF3869545
:103AC00077956795B795F7959F5FC9F7880F911D13
:103AD0009695879597F90895E1E0660F771F881FFF
:103AE000BB1F621773078407BA0720F0621B730BB2
:103AF000840BBA0BEE1F88F7E0950895BCD088F0D0
:103B00009F5790F0B92F9927B751A0F0D1F0660FC9
:103B1000771F881F991F1AF0BA95C9F712C0B130E4
:103B200081F0C3D0B1E00895C0C0672F782F8827F7
:103B3000B85F39F0B93FCCF3869577956795B39523
:103B4000D9F73EF490958095709561957F4F8F4F92
:103B50009F4F0895E89409C097FB3EF49095809597
:103B6000709561957F4F8F4F9F4F9923A9F0F92F43
:103B700096E9BB279395F695879577956795B795C1
:103B8000F111F8CFFAF4BB0F11F460FF1BC06F5FA7
:103B90007F4F8F4F9F4F16C0882311F096E911C0B9
:103BA000772321F09EE8872F762F05C0662371F0DA
:103BB00096E8862F70E060E02AF09A95660F771FEE
:103BC000881FDAF7880F9695879597F90895990FCA
:103BD0000008550FAA0BE0E8FEEF16161706E807D7
:103BE000F907C0F012161306E407F50798F0621BF8
:103BF000730B840B950B39F40A2661F0232B242BCD
:103C0000252B21F408950A2609F4A140A6958FEFEB
:103C1000811D811D089597F99F6780E870E060E03D
:103C200008959FEF80EC089500240A941616170655
:103C300018060906089500240A941216130614069D
:103C400005060895092E0394000C11F4882352F000
:103C5000BB0F40F4BF2B11F460FF04C06F5F7F4FB8
:103C60008F4F9F4F089557FD9058440F551F59F09F
:103C70005F3F71F04795880F97FB991F61F09F3F59
:103C800079F087950895121613061406551FF2CF82
:103C90004695F1DF08C0161617061806991FF1CFD2
:103CA00086957105610508940895E894BB276627F9
:103CB0007727CB0197F908958ADF08F48FEF0895ED
:103CC0000BD0C0CFB1DF28F0B6DF18F0952309F094
:103CD000A2CFA7CF1124EACFC6DFA0F3959FD1F3DF
:103CE000950F50E0551F629FF001729FBB27F00DAA
:103CF000B11D639FAA27F00DB11DAA1F649F6627FF
:103D0000B00DA11D661F829F2227B00DA11D621F4D
:103D1000739FB00DA11D621F839FA00D611D221F07
:103D2000749F3327A00D611D231F849F600D211DEB
:103D3000822F762F6A2F11249F5750408AF0E1F08E
:103D400088234AF0EE0FFF1FBB1F661F771F881FD7
:103D500091505040A9F79E3F510570F05CCFA6CF1F
:103D60005F3FECF3983EDCF3869577956795B795C2
:103D7000F795E7959F5FC1F7FE2B880F911D9695EC
:103D8000879597F9089523DF880B990B0895DB0138
:103D90008F939F93A7DDBF91AF91A29F800D911D3F
:103DA000A39F900DB29F900D1124089587FB082EBC
:103DB000062687FD819567FD61950DD00EF49195DE
:103DC00007FC81950895EE0FFF1F881F8BBF07909A
:103DD000F691E02D1994991B79E004C0991F96176C
:103DE00008F0961B881F7A95C9F78095089581E0A1
:103DF00090E0F89419C0DC0101C06D93415050402F
:103E0000E0F70895FB01DC010D900020E9F7119720
:103E100001900D920020E1F70895FB01DC01019073
:103E20000D920020E1F7089513E0C5E0D3E000E033
:103E300005C0802FFE01C7DF2196011DC630D107C6
:0A3E400080E00807B1F7F894FFCF07
:103E4A00016166706E756D206B4D475450450002D6
:103E5A0003040500004000140054004E0059003EBF
:103E6A00003C003A005D005B0000000000F81738D3
:103E7A00034E153E187F155D157115000000006D83
:103E8A00083E089C08180836082708190800000088
:103E9A0000DD0938039C089B08000000003A043A38
:103EAA00049F08000000001A0496059F0853656CD9
:103EBA00656363696F6E6120456E7465722D2D2D81
:103ECA003E003C2D2D2D2D2D45717569706F2034C6
:103EDA002D2D2D2D2D3E20003C2D2D2D2D486F6C86
:103EEA0061204D756E646F2D2D2D2D3E003C2D2DBC
:103EFA004D656E752042617369636F2053452D2DA0
:103F0A003E0054656D70657261747572613A2D2D4B
:103F1A002D2D2D2D2D2D2D006E616E00696E6600E2
:103F2A006F76660020202020202000526573757469
:063F3A006C61646F3A00A7
:020000023000CC
:10E000000D9489F10D94B2F10D94B2F10D94B2F129
:10E010000D94B2F10D94B2F10D94B2F10D94B2F1F0
:10E020000D94B2F10D94B2F10D94B2F10D94B2F1E0
:10E030000D94B2F10D94B2F10D94B2F10D94B2F1D0
:10E040000D94B2F10D94B2F10D94B2F10D94B2F1C0
:10E050000D94B2F10D94B2F10D94B2F10D94B2F1B0
:10E060000D94B2F10D94B2F10D94B2F10D94B2F1A0
:10E070000D94B2F10D94B2F10D94B2F10D94B2F190
:10E080000D94B2F10D94B2F10D94B2F10D94B2F180
:10E090000D94B2F10D94B2F10D94B2F10D94B2F170
:10E0A0000D94B2F10D94B2F10D94B2F10D94B2F160
:10E0B0000D94B2F10D94B2F10D94B2F10D94B2F150
:10E0C0000D94B2F10D94B2F10D94B2F10D94B2F140
:10E0D0000D94B2F10D94B2F10D94B2F10D94B2F130
:10E0E0000D94B2F141546D656761323536300041AF
:10E0F000726475696E6F206578706C6F72657220DE
:10E1000073746B3530305632206279204D4C530099
:10E11000426F6F746C6F616465723E004875683F52
:10E1200000436F6D70696C6564206F6E203D200048
:10E130004350552054797065202020203D20005FF9
:10E140005F4156525F415243485F5F3D2000415658
:10E1500052204C696243205665723D20004743437C
:10E160002056657273696F6E203D20004350552024
:10E1700049442020202020203D20004C6F7720663D
:10E18000757365202020203D20004869676820665F
:10E190007573652020203D200045787420667573D6
:10E1A00065202020203D20004C6F636B2066757336
:10E1B000652020203D20004D617220203720323024
:10E1C000313300312E362E3800342E332E350056A2
:10E1D00023202020414444522020206F7020636F70
:10E1E00064652020202020696E73747275637469E1
:10E1F0006F6E2061646472202020496E74657272B3
:10E20000757074006E6F20766563746F7200726A49
:10E210006D702020006A6D70200057686174207056
:10E220006F72743A00506F7274206E6F7420737541
:10E2300070706F72746564004D7573742062652030
:10E2400061206C6574746572002000577269747483
:10E25000696E672045450052656164696E672045B7
:10E26000450045452065727220636E743D00504F35
:10E27000525400303D5A65726F2061646472003FF1
:10E280003D43505520737461747300403D454550C3
:10E29000524F4D207465737400423D426C696E6B41
:10E2A000204C454400453D44756D70204545505215
:10E2B0004F4D00463D44756D7020464C415348001B
:10E2C000483D48656C70004C3D4C69737420492F83
:10E2D0004F20506F72747300513D51756974005234
:10E2E0003D44756D702052414D00563D73686F7707
:10E2F00020696E7465727275707420566563746FF0
:10E30000727300593D506F727420626C696E6B00BD
:10E310002A0011241FBECFEFD1E2DEBFCDBF01E046
:10E320000CBF12E0A0E0B2E0EEE1FDEF03E00BBFB6
:10E3300002C007900D92A030B107D9F712E0A0E01B
:10E34000B2E001C01D92AE30B107E1F70F9460F367
:10E350000D948DFE01E20EBF0FEF0DBF11241FBE05
:10E360000D9460F30D9400F020E030E040ED57E0B4
:10E3700005C0FA013197F1F72F5F3F4F2817390792
:10E38000C0F308959C01260F311DC901A0E0B0E043
:10E390002F5F3F4FABBFFC018791882361F08093D3
:10E3A000C6008091C00086FFFCCF8091C0008064D1
:10E3B0008093C000EACF08958DE08093C6008091DD
:10E3C000C00086FFFCCF8091C00080648093C000B5
:10E3D0008AE08093C6008091C00086FFFCCF8091C8
:10E3E000C00080648093C00008950F94C2F10F9420
:10E3F000DCF10895FC019081992359F09093C600B7
:10E400008091C00086FFFCCF8091C0008064809323
:10E41000C0003196992379F70895282F982F929567
:10E420009F70892F805D8A3308F0895F8093C600D2
:10E430008091C00086FFFCCF8091C00080648093F3
:10E44000C000822F8F70982F905D9A3308F0995FEB
:10E450009093C6008091C00086FFFCCF8091C000E1
:10E4600080648093C00008959C01FB01853691056E
:10E470001CF46330710594F0C90164E670E00F94F8
:10E480002EFE605D7F4F6093C6008091C00086FFC6
:10E49000FCCF8091C00080648093C0002B30310598
:10E4A00014F43297B4F0C90164E670E00F942EFEC4
:10E4B0006AE070E00F942EFE605D7F4F6093C600AF
:10E4C0008091C00086FFFCCF8091C0008064809363
:10E4D000C000C9016AE070E00F942EFEC0968093E0
:10E4E000C6008091C00086FFFCCF8091C000806490
:10E4F0008093C00008951F93182F8EE692EE60E07F
:10E500000F94C2F11093C6008091C00086FFFCCF2B
:10E510008091C00080648093C0000F94DCF11F9153
:10E5200008952F923F924F925F926F927F928F92B7
:10E530009F92AF92BF92CF92DF92EF92FF920F9392
:10E540001F93DF93CF93CDB7DEB762970FB6F894E2
:10E55000DEBF0FBECDBF382E622ECA01DB015C01CB
:10E560006D01772420E2222E2E010894411C511CBB
:10E570008BC081E0A81680E0B80681E0C80680E084
:10E58000D80628F0C601AA27BB270F940DF2BB2797
:10E59000AD2D9C2D8B2D0F940DF28A2D0F940DF225
:10E5A0002092C6008091C00086FFFCCF8091C00001
:10E5B00080648093C0009DE29093C6008091C0006B
:10E5C00086FFFCCF8091C00080648093C0002092C1
:10E5D000C6008091C00086FFFCCF8091C00080649F
:10E5E0008093C00019828601750188249924A1E0D6
:10E5F0003A1651F03A1620F0B2E03B1661F409C029
:10E600000BBFF701779007C0C7010F9477FE782EF4
:10E6100002C0F7017080872D0F940DF22092C60082
:10E620008091C00086FFFCCF8091C0008064809301
:10E63000C000872D8052F401EF70F0708F3520F408
:10E64000E40DF51D708204C0E40DF51D8EE280839B
:10E650000894E11CF11C011D111D0894811C911CE2
:10E6600090E18916910409F0C2CF80E190E0A0E02A
:10E67000B0E0A80EB91ECA1EDB1E198AC2010F9493
:10E68000FAF10F94DCF16A94662009F072CF629679
:10E690000FB6F894DEBF0FBECDBFCF91DF911F91B3
:10E6A0000F91FF90EF90DF90CF90BF90AF909F9031
:10E6B0008F907F906F905F904F903F902F90089534
:10E6C0002F923F924F925F926F927F928F929F9282
:10E6D000AF92BF92CF92DF92EF92FF920F931F9370
:10E6E000DF93CF93CDB7DEB7CD53D1400FB6F894BB
:10E6F000DEBF0FBECDBF01E20EBF0FEF0DBF94B75F
:10E70000F894A89514BE80916000886180936000A1
:10E7100010926000789493FF05C0E0910002F091A0
:10E7200001021995279A2F9A8091C00082608093E8
:10E73000C00080E18093C40088E18093C1000000A4
:10E74000EE24FF24870144E0A42EB12CCC24DD2448
:10E7500024C0C5010197F1F70894E11CF11C011DCB
:10E76000111D21E2E2162EE4F20620E0020720E06D
:10E77000120718F031E0C32ED12CC801B70127ECE5
:10E780003BE140E050E00F9441FE611571058105C9
:10E79000910519F485B1805885B98091C00087FD35
:10E7A00003C0C114D104A9F2A6014F5F5F4FC25E3E
:10E7B000DE4F59834883CE51D140C25EDE4F8881FF
:10E7C0009981CE51D140019711F00D9410FEC05D9A
:10E7D000DE4F19821882C053D14060E0C15DDE4F28
:10E7E0001882CF52D14088249924C35DDE4F19820C
:10E7F0001882CD52D140C05EDE4F188219821A8233
:10E800001B82C052D140CE5CDE4F188219821A8220
:10E810001B82C253D140EE24FF2487010BBFF701B6
:10E8200007911691C45CDE4F19830883CC53D14005
:10E830000D940BFEC25EDE4F28813981CE51D1404E
:10E840002130310509F52091C600C25EDE4F1982E4
:10E850001882CE51D14022C02F5F3F4F4F4F5F4FA4
:10E86000213082E138078AE7480780E0580780F0C6
:10E87000C45CDE4FE881F981CC53D140EF5FFF4F9C
:10E8800019F0EE27FF27099420E030E040E050E047
:10E890008091C00087FFE0CF2091C600C35DDE4FAE
:10E8A00048815981CD52D1404F5F5F4FC35DDE4FEC
:10E8B00059834883CD52D140213209F063C64A3092
:10E8C000510508F05FC60894811C911C53E0851621
:10E8D000910409F059C600E010E018C081E280936D
:10E8E000C6008091C00086FFFCCF8091C00080648C
:10E8F0008093C0002F5F3F4F2931310579F70F9486
:10E90000DCF10F5F1F4F0530110519F020E030E0FA
:10E91000E5CF10920A0210920B0210920C02109294
:10E920000D02109206021092070210920802109235
:10E930000902109202021092030210920402109235
:10E9400005028FEE90EE60E00F94F5F180E191EE1C
:10E9500060E00F94C2F18091C00087FFFCCF9091DE
:10E96000C600903608F09F759032B8F09093C600BC
:10E970008091C00086FFFCCF8091C00080648093AE
:10E98000C000A0E2A093C6008091C00086FFFCCF2B
:10E990008091C00080648093C000983409F4D7C18E
:10E9A0009934B8F4923409F459C1933458F490333B
:10E9B00019F1903308F4E3C59F33A1F1903409F0C5
:10E9C000DEC5BDC0953409F470C1963409F0D7C5D1
:10E9D00098C1923509F42BC2933538F49C3409F46C
:10E9E000F5C1913509F0CBC518C2963509F445C279
:10E9F000993509F0C4C567C483E792EE62E00F94CD
:10EA0000F5F110920602109207021092080210927D
:10EA1000090210920A0210920B0210920C0210923C
:10EA20000D0213C18FE792EE62E00F94F5F18FEEC5
:10EA300090EE60E00F94F5F181E291EE60E00F94CA
:10EA4000C2F187EB91EE60E00F94F5F180E391EE77
:10EA500060E00F94C2F184EE90EE60E00F94F5F167
:10EA60008FE391EE60E00F94C2F186E090E061E008
:10EA700070E00F9434F20F94DCF18DE591EE60E0DC
:10EA80000F94C2F189EC91EE60E00F94F5F18EE401
:10EA900091EE60E00F94C2F183EC91EE60E00F9490
:10EAA000F5F18CE691EE60E00F94C2F18EE10F94E7
:10EAB0000DF288E90F940DF281E00F940DF20F949E
:10EAC000DCF18BE791EE60E00F94C2F119E0E0E039
:10EAD000F0E010935700E4918E2F0F940DF20F94F5
:10EAE000DCF18AE891EE60E00F94C2F1E3E0F0E03F
:10EAF00010935700E4918E2F0F940DF20F94DCF1D8
:10EB000089E991EE60E00F94C2F1E2E0F0E0109349
:10EB10005700E4918E2F0F940DF20F94DCF188EAE8
:10EB200091EE60E00F94C2F1E1E0F0E01093570045
:10EB30001491812F0F940DF20F94DCF107CF8BE825
:10EB400092EE62E00F94F5F18BE492EE60E00F94A8
:10EB5000F5F10F94DCF100E010E019C0C8016F2D51
:10EB60000F947FFEFF2031F489E492EE60E00F9471
:10EB7000C2F10BC0F092C6008091C00086FFFCCFAE
:10EB80008091C00080648093C0000F5F1F4FC80158
:10EB900081519F41A0E0B0E0ABBFFC01F790BAE229
:10EBA000FB1621F0E2E000301E07C1F60F94DCF105
:10EBB0000F94DCF187E592EE60E00F94F5F10F948D
:10EBC000DCF1CC24DD2400E010E01EC0C8010F946D
:10EBD00077FEF82E882331F489E492EE60E00F94FA
:10EBE000C2F10BC08093C6008091C00086FFFCCFAD
:10EBF0008091C00080648093C000FE1419F00894D6
:10EC0000C11CD11C0F5F1F4FC80181519F41A0E063
:10EC1000B0E0ABBFFC01E790FAE2EF1621F022E092
:10EC20000030120799F60F94DCF10F94DCF182E6C4
:10EC300092EE60E00F94C2F1C60161E070E00F94C3
:10EC400034F20F94DCF10F94DCF110920202109276
:10EC50000302109204021092050278CE89E992EE26
:10EC600062E00F94F5F1279A2F9A16C02F9880E052
:10EC700090E0E0EDF7E03197F1F7019684369105E9
:10EC8000C1F72F9A80E090E0E0EDF7E03197F1F7DF
:10EC9000019684369105C1F78091C00087FFE6CFC9
:10ECA0008091C00087FFFCCF64C485EA92EE62E0E9
:10ECB0000F94F5F140910202509103026091040219
:10ECC0007091050281E020E10F9491F2809102029F
:10ECD00090910302A0910402B091050280509F4FD1
:10ECE000AF4FBF4F8093020290930302A0930402A0
:10ECF000B093050280509041A040B04008F426CE69
:10ED0000A4CF83EB92EE62E00F94F5F140910602FE
:10ED100050910702609108027091090280E020E1A1
:10ED20000F9491F28091060290910702A09108023F
:10ED3000B091090280509F4FAF4FBF4F80930602A2
:10ED400090930702A0930802B0930902FFCD80ECD4
:10ED500092EE62E00F94F5F183E792EE60E00F949B
:10ED6000F5F18FE792EE60E00F94F5F18BE892EE0B
:10ED700060E00F94F5F189E992EE60E00F94F5F10F
:10ED800085EA92EE60E00F94F5F183EB92EE60E09D
:10ED90000F94F5F180EC92EE60E00F94F5F187ECC2
:10EDA00092EE60E00F94F5F188ED92EE60E00F9442
:10EDB000F5F18FED92EE60E00F94F5F18AEE92EEB0
:10EDC00060E00F94F5F183E093EEBDCD87EC92EE19
:10EDD00062E00F94F5F181E40F947BF282E40F94EA
:10EDE0007BF283E40F947BF284E40F947BF285E45E
:10EDF0000F947BF286E40F947BF287E40F947BF20E
:10EE000088E40F947BF28AE40F947BF28BE40F94F6
:10EE10007BF28CE40F947BF299CD88ED92EE62E068
:10EE20000F94F5F1772473948824992409C48FED05
:10EE300092EE62E00F94F5F140910A0250910B02BC
:10EE400060910C0270910D0282E020E10F9491F22A
:10EE500080910A0290910B02A0910C02B0910D02D8
:10EE600080509F4FAF4FBF4F80930A0290930B0289
:10EE7000A0930C02B0930D0269CD8AEE92EE62E08F
:10EE80000F94F5F184EE90EE60E00F94F5F18FECC5
:10EE900091EE60E00F94F5F1662477244301CC5D98
:10EEA000DE4F19821882C452D140D401C301B695F5
:10EEB000A79597958795CA5DDE4F88839983AA8326
:10EEC000BB83C652D140CC5DDE4FA881B981C4520C
:10EED000D1401196CC5DDE4FB983A883C452D14096
:10EEE000CD0162E070E00F9434F2B0E2B093C6005E
:10EEF0008091C00086FFFCCF8091C0008064809329
:10EF0000C000EDE2E093C6008091C00086FFFCCF18
:10EF10008091C00080648093C000F0E2F093C6004E
:10EF20008091C00086FFFCCF8091C00080648093F8
:10EF3000C000CA5DDE4FE880F9800A811B81C6529D
:10EF4000D140BB27A12F902F8F2D0F940DF2CA5DBA
:10EF5000DE4F8881C652D1400F940DF2B0E2FB2EF5
:10EF6000F092C6008091C00086FFFCCF8091C00067
:10EF700080648093C0000DE30093C6008091C000C0
:10EF800086FFFCCF8091C00080648093C00010E2B7
:10EF90001093C6008091C00086FFFCCF8091C00016
:10EFA00080648093C0008BBEF3012791C65DDE4F65
:10EFB0002883CA52D140A22EBB24CC24DD2408943D
:10EFC000611C711C811C911C8BBEF3018791282E42
:10EFD0003324442455240894611C711C811C911C09
:10EFE0008BBEF3013791C55DDE4F3883CB52D140E4
:10EFF0000894611C711C811C911C8BBEF30147910C
:10F00000C45DDE4F4883CC52D140ADEFEA2EAFEF66
:10F01000FA2EAFEF0A2FAFEF1A2F6E0C7F1C801E57
:10F02000911E142D032DF22CEE24EA0CFB1C0C1D5A
:10F030001D1D0F940DF220E22093C6008091C000A8
:10F0400086FFFCCF8091C00080648093C000C65DC5
:10F05000DE4F8881CA52D1400F940DF230E23093D6
:10F06000C6008091C00086FFFCCF8091C000806404
:10F070008093C000C45DDE4F8881CC52D1400F9494
:10F080000DF240E24093C6008091C00086FFFCCFA5
:10F090008091C00080648093C000C55DDE4F888190
:10F0A000CB52D1400F940DF250E25093C6008091A4
:10F0B000C00086FFFCCF8091C00080648093C000B8
:10F0C0008FEFE8168FEFF80680E0080780E018075A
:10F0D00031F484E092EE60E00F94C2F1DFC0D80119
:10F0E000C7018070907CA070B0708050904CA040A0
:10F0F000B040D1F52FEF3FE340E050E0E222F322B1
:10F1000004231523CA5DDE4FA880B980CA80DB8046
:10F11000C652D140AE0CBF1CC01ED11EAA0CBB1CD7
:10F12000CC1CDD1C8EE092EE60E00F94C2F1BB2798
:10F13000A12F902F8F2D0F940DF28E2D0F940DF285
:10F1400030E23093C6008091C00086FFFCCF8091F2
:10F15000C00080648093C0004EE34093C60080915D
:10F16000C00086FFFCCF87C08EE09EEFA0E0B0E03D
:10F17000E822F9220A231B239CE0E91694E9F90608
:10F1800090E0090790E0190709F088C0C45DDE4FE0
:10F19000A881CC52D140EA2EFF2400E010E0102FCD
:10F1A0000F2DFE2CEE24C55DDE4FB881CB52D14031
:10F1B000EB0EF11C011D111DD601C501817090706F
:10F1C000A070B070DC0199278827E80EF91E0A1F8D
:10F1D0001B1F20EF30E040E050E0A222B322C42207
:10F1E000D52241E1AA0CBB1CCC1CDD1C4A95D1F7F1
:10F1F000EA0CFB1C0C1D1D1D81E090E0A0E0B0E0BE
:10F20000282239224A225B2235E1220C331C441C7D
:10F21000551C3A95D1F7E20CF31C041D151D57013E
:10F220006801AA0CBB1CCC1CDD1C85E192EE60E0E1
:10F230000F94C2F1C801AA27BB270F940DF2BB2778
:10F24000A12F902F8F2D0F940DF28E2D0F940DF274
:10F2500090E29093C6008091C00086FFFCCF809121
:10F26000C00080648093C000AEE3A093C60080918C
:10F27000C00086FFFCCF8091C00080648093C000F6
:10F28000C601AA27BB270F940DF2BB27AD2D9C2DDD
:10F290008B2D0F940DF28A2D0F940DF20F94DCF14B
:10F2A000CC5DDE4FE881F981C452D140F99709F471
:10F2B0004DCBF4E0EF2EF12C012D112D6E0C7F1CA7
:10F2C000801E911EF2CD83E093EE62E00F94F5F183
:10F2D0008AE192EE60E00F94C2F18091C00087FF56
:10F2E000FCCF1091C6001F751093C6008091C0001E
:10F2F00086FFFCCF8091C00080648093C0000F9493
:10F30000DCF1812F81548A3108F036C1163409F4BA
:10F3100095C0173490F4133409F44EC0143430F40B
:10F320001134F1F0123409F01DC130C0143409F465
:10F3300059C0153409F016C16BC01A3409F4C4C0A1
:10F340001B3438F4173409F48FC0183409F00AC19B
:10F35000A1C01B3409F4D2C01C3409F003C1E8C0B9
:10F360008FEF81B90DC082B1809582B980E090E0C5
:10F37000E0EDF7E03197F1F70196883C9105C1F790
:10F380008091C00087FFEFCF12B8EFC08FEF84B934
:10F390000DC085B1809585B980E090E0E0EDF7E0A3
:10F3A0003197F1F70196883C9105C1F78091C00033
:10F3B00087FFEFCF15B8D9C08FEF87B90DC088B1DF
:10F3C000809588B980E090E0E0EDF7E03197F1F7C3
:10F3D0000196883C9105C1F78091C00087FFEFCF6F
:10F3E00018B8C3C08FEF8AB90DC08BB180958BB9A7
:10F3F00080E090E0E0EDF7E03197F1F70196883C8E
:10F400009105C1F78091C00087FFEFCF1BB8ADC059
:10F410008FEF8DB90DC08EB180958EB980E090E0F0
:10F42000E0EDF7E03197F1F70196883C9105C1F7DF
:10F430008091C00087FFEFCF1EB897C08FEF80BBD1
:10F440000DC081B3809581BB80E090E0E0EDF7E0F6
:10F450003197F1F70196883C9105C1F78091C00082
:10F4600087FFEFCF11BA81C08FEF83BB0DC084B38C
:10F47000809584BB80E090E0E0EDF7E03197F1F714
:10F480000196883C9105C1F78091C00087FFEFCFBE
:10F4900014BA6BC08FEF809301010FC080910201FD
:10F4A00080958093020180E090E0E0EDF7E03197F5
:10F4B000F1F70196883C9105C1F78091C00087FF64
:10F4C000EDCF1092020151C08FEF809304010FC065
:10F4D0008091050180958093050180E090E0E0ED4A
:10F4E000F7E03197F1F70196883C9105C1F78091DB
:10F4F000C00087FFEDCF1092050137C08FEF8093DA
:10F5000007010FC08091080180958093080180E079
:10F5100090E0E0EDF7E03197F1F70196883C910536
:10F52000C1F78091C00087FFEDCF109208011DC088
:10F530008FEF80930A010FC080910B01809580931B
:10F540000B0180E090E0E0EDF7E03197F1F70196F4
:10F55000883C9105C1F78091C00087FFEDCF1092E4
:10F560000B0103C085E292EEEEC98091C00087FFD7
:10F57000FCCF8091C600EAC988E392EEE4C98CE131
:10F5800091EEE1C988249924933011F1943028F444
:10F59000913089F09230B8F408C0953061F195301F
:10F5A000F0F0963009F048C043C02B3109F042C951
:10F5B00091E06BE13FC96227C15DDE4F2883CF52E6
:10F5C000D14092E037C9B22FA0E0622793E032C960
:10F5D000822F90E0A82BB92B622794E02BC92E3004
:10F5E00009F039C3622795E0C05DDE4F19821882A9
:10F5F000C053D1401FC9E1E0F0E0EC0FFD1FC05D3A
:10F60000DE4F08811981C053D140E00FF11F2083E4
:10F610000F5F1F4FC05DDE4F19830883C053D14079
:10F6200062270A171B0709F005C9D80196E002C92D
:10F63000261709F010C303C0973009F0FBC87724E0
:10F640009981933109F412C19431C8F4963009F4C8
:10F65000D8C0973050F4923009F406C1933009F4C1
:10F660006DC0913009F059C253C0913109F477C08F
:10F67000923108F0BBC0903109F04FC2F5C098310B
:10F6800009F487C0993150F4953109F4EFC09531F0
:10F6900008F4C6C1963109F040C2C2C19A3109F4DA
:10F6A0006CC09A3108F491C09B3109F45BC09D3164
:10F6B00009F033C29D81903359F48F81882311F46E
:10F6C0009EE11CC0813011F091E018C098E916C08D
:10F6D000892F807591F0903539F4E0E0F0E089E011
:10F6E0008093570094910AC0983539F4E3E0F0E034
:10F6F00089E080935700949101C090E01A821B82A8
:10F700008D818C831D829E831F8227E030E009C299
:10F710001A8288E08B8381E48C8386E58D8382E581
:10F720008E8389E48F8383E5888780E589878FE5E9
:10F730008A8782E38B872BE030E0F3C18A818139AD
:10F7400041F0823941F0803911F48FE005C080E04A
:10F7500003C082E001C08AE01A828B8344C0772410
:10F76000739482C08D81882311F48EE12CC0813086
:10F7700011F081E028C088E926C01A82E1E0F0E0BB
:10F7800089E08093570084918B831C8224E030E0D1
:10F79000C8C18B81803589F48C81883039F4E2E0EE
:10F7A000F0E089E08093570084910DC0E0E0F0E044
:10F7B00089E080935700849106C0E3E0F0E089E09F
:10F7C0008093570084911A82DFCF8D81836C99E0FA
:10F7D000E1E0F0E0082E90935700E89507B600FCB2
:10F7E000FDCF1A821B8223E030E09BC180EC8A832C
:10F7F000CE5CDE4F188219821A821B82C253D1401E
:10F800008EC18A8190E0A0E0B0E0582F44273327D2
:10F8100022278B8190E0A0E0B0E0DC0199278827C7
:10F82000282B392B4A2B5B2B8D8190E0A0E0B0E098
:10F83000282B392B4A2B5B2B8C8190E0A0E0B0E089
:10F84000BA2FA92F982F8827282B392B4A2B5B2BCF
:10F85000220F331F441F551FC05EDE4F288339839C
:10F860004A835B83C052D1401A8259C13A81C95C34
:10F87000DE4F3883C753D140CA5CDE4F1882C6536F
:10F88000D1408B81C82EDD24CA5CDE4F488159816E
:10F89000C653D140C42AD52A933109F082C0CE5C28
:10F8A000DE4F88819981AA81BB81C253D1408050AB
:10F8B000904CA340B04030F583E0CE5CDE4FE88052
:10F8C000F9800A811B81C253D140F70100935B008C
:10F8D00080935700E89507B600FCFDCFCE5CDE4F65
:10F8E000088119812A813B81C253D14000501F4FAA
:10F8F0002F4F3F4FCE5CDE4F088319832A833B8313
:10F90000C253D140C05EDE4F488159816A817B81FC
:10F91000C052D140DE011B9631E08C9111962C91A2
:10F9200011971296C75CDE4F2883C953D140C85C3B
:10F93000DE4F1882C853D14090E0C85CDE4FE881AA
:10F94000F981C853D1408E2B9F2B0C01FA01609393
:10F950005B0030935700E89511244E5F5F4F6F4F67
:10F960007F4F0EEFE02E0FEFF02ECE0CDF1CC114F8
:10F97000D10499F685E0C05EDE4F088119812A81A5
:10F980003B81C052D140F80120935B008093570027
:10F99000E89507B600FCFDCF81E180935700E8951C
:10F9A00035C0C05EDE4F88819981AA81BB81C0527B
:10F9B000D140B695A795979587957C018601ABE0D8
:10F9C000AA2EB12CAC0EBD1E0BC0D5016D915D01F0
:10F9D000C7010F947FFE0894E11CF11C01501040F8
:10F9E0000115110591F7A60160E070E0440F551F65
:10F9F000661F771FC05EDE4FE880F9800A811B8199
:10FA0000C052D1404E0D5F1D601F711F1A82C05E33
:10FA1000DE4F488359836A837B83C052D1407FC0C5
:10FA2000FA80C55CDE4FF882CB53D140C65CDE4F16
:10FA30001882CA53D1408B81C82EDD24C65CDE4FAC
:10FA400008811981CA53D140C02AD12A1A828981DA
:10FA5000BE016D5F7F4F843121F59601C05EDE4FA0
:10FA6000E880F9800A811B81C052D1400BBFF701A9
:10FA700087919691DB018C9311969C936E5F7F4FDB
:10FA8000D801C7010296A11DB11DC05EDE4F88835B
:10FA90009983AA83BB83C052D14022503040F1F6F3
:10FAA00036C0C05EDE4F288139814A815B81C052F9
:10FAB000D1400894C108D108760100E010E0089414
:10FAC000C11CD11C0894E11CF11C011D111DE20E8A
:10FAD000F31E041F151F21BDBB27A52F942F832FB5
:10FAE00082BD2F5F3F4F4F4F5F4FF89A80B5DB01CC
:10FAF0008D93BD012E153F054007510761F7C05E8C
:10FB0000DE4F288339834A835B83C052D1409601FC
:10FB10002D5F3F4FFB01108204C080EC8A8322E0FE
:10FB200030E08BE18093C6008091C00086FFFCCF5F
:10FB30008091C00080648093C000C15DDE4FF88179
:10FB4000CF52D140F093C6008091C00086FFFCCF19
:10FB50008091C00080648093C000432F3093C60022
:10FB60008091C00086FFFCCF8091C00080648093AC
:10FB7000C000922F2093C6008091C00086FFFCCF6A
:10FB80008091C00080648093C0008EE08093C600A6
