:100000000C945D000C9485000C9485000C94850084
:100010000C9485000C9485000C9485000C9485004C
:100020000C9485000C9485000C9485000C9485003C
:100030000C9485000C9450030C9485000C9485005E
:100040000C9406030C9485000C94D4020C94AE021C
:100050000C9485000C9485000C9485000C9485000C
:100060000C9485000C94850000000008000201003B
:100070000003040700000000000000000000000072
:10008000250028002B0000000000240027002A0083
:10009000040404040404040402020202020203032E
:1000A0000303030301020408102040800102040836
:1000B0001020010204081020C40411241FBECFEF39
:1000C000D8E0DEBFCDBF11E0A0E0B1E0EEE0F2E1AC
:1000D00002C005900D92A432B107D9F721E0A4E245
:1000E000B1E001C01D92A63DB207E1F710E0CDE5F9
:1000F000D0E004C02197FE010E942206CC35D10732
:10010000C9F70E9477030C9405090C94000090E055
:10011000FC01EC55FF4F2491FC01E057FF4F849107
:10012000882399F090E0880F991FFC01EA57FF4F50
:10013000A591B491FC01E458FF4F859194918FB73C
:10014000F894EC91E22BEC938FBF0895CF92DF925D
:10015000EF92FF920F931F93CF93DF936C017A017D
:100160008B01C0E0D0E0CE15DF0589F0D8016D919C
:100170008D01D601ED91FC910190F081E02DC60139
:100180000995892B11F47E0102C02196ECCFC7019D
:10019000DF91CF911F910F91FF90EF90DF90CF9063
:1001A0000895089580E090E00895FC01538D448DFA
:1001B000252F30E0842F90E0821B930B541710F012
:1001C000CF96089501970895FC01918D828D98171F
:1001D00061F0828DDF01A80FB11D5D968C91928D2B
:1001E0009F5F9F73928F90E008958FEF9FEF089528
:1001F000FC01918D828D981731F0828DE80FF11DF1
:10020000858D90E008958FEF9FEF0895FC01918D0B
:10021000228D892F90E0805C9F4F821B91098F7304
:100220009927089589E391E00E94060121E0892B36
:1002300009F420E0822F0895FC01848DDF01A80FCE
:10024000B11DA35ABF4F2C91848D90E001968F73FE
:100250009927848FA689B7892C93A089B1898C911D
:1002600080648C93938D848D981306C00288F389E3
:10027000E02D80818F7D80830895EF92FF920F9310
:100280001F93CF93DF93EC0181E0888F9B8D8C8D42
:10029000981305C0E889F989808185FD24C0F62E70
:1002A0000B8D10E00F5F1F4F0F731127E02E8C8D09
:1002B000E8120CC00FB607FCFACFE889F9898081F3
:1002C00085FFF5CFCE010E941C01F1CF8B8DFE0181
:1002D000E80FF11DE35AFF4FF0820B8FEA89FB898B
:1002E0008081806207C0EE89FF896083E889F9898F
:1002F00080818064808381E090E0DF91CF911F91C5
:100300000F91FF90EF900895CF93DF93EC01888DCC
:100310008823C9F0EA89FB89808185FD05C0A88909
:10032000B9898C9186FD0FC00FB607FCF5CF80818F
:1003300085FFF2CFA889B9898C9185FFEDCFCE01D9
:100340000E941C01E7CFDF91CF91089580E090E0FB
:10035000892B29F00E94120181110C94000008954C
:1003600090E0FC01E859FF4F3491FC01EC55FF4F40
:100370002491FC01E057FF4FE491EE2309F43BC0C8
:10038000332339F1333091F038F43130A9F0323081
:1003900001F584B58F7D12C0373091F03830A1F06F
:1003A0003430B9F4809180008F7D03C0809180004B
:1003B0008F77809380000DC084B58F7784BD09C08E
:1003C0008091B0008F7703C08091B0008F7D8093C3
:1003D000B000F0E0EE0FFF1FE458FF4FA591B4917D
:1003E0008FB7F894EC91611103C020952E2301C0C2
:1003F0002E2B2C938FBF08953FB7F894809129013D
:1004000090912A01A0912B01B0912C0126B5A89BB7
:1004100005C02F3F19F00196A11DB11D3FBFBA2F96
:10042000A92F982F8827820F911DA11DB11DBC01F6
:10043000CD0142E0660F771F881F991F4A95D1F7BB
:1004400008951F93CF93DF93182FC8E0D0E017FFD4
:1004500002C061E001C060E087E00E94B001110FBE
:1004600060E088E00E94B00161E088E00E94B00195
:10047000219769F760E086E00E94B00161E086E0C4
:10048000DF91CF911F910C94B00180913301909135
:10049000340101968530910511F481E090E090934C
:1004A0003401809333018091330190913401823083
:1004B000910559F1A4F4019709F04BC061E082E085
:1004C0000E94B001E09135010E2E000CFF0BE050B0
:1004D000FF4F80810E94210260E085E038C08330B8
:1004E000910529F10497A9F561E083E00E94B0012C
:1004F000E09138010E2E000CFF0BE050FF4F808181
:100500000E94210260E082E022C061E085E00E945A
:10051000B001E09136010E2E000CFF0BE050FF4FB2
:10052000808180680E94210260E084E010C061E068
:1005300084E00E94B001E09137010E2E000CFF0B09
:10054000E050FF4F80810E94210260E083E00E9422
:10055000B0018CEC86BD08950E9428061F920F9270
:100560000FB60F9211242F933F934F935F936F9386
:100570007F938F939F93AF93BF93EF93FF9389E301
:1005800091E00E941C01FF91EF91BF91AF919F916B
:100590008F917F916F915F914F913F912F910F902C
:1005A0000FBE0F901F9018951F920F920FB60F92CB
:1005B00011242F938F939F93EF93FF93E091490121
:1005C000F0914A018081E0914F01F091500182FD4C
:1005D00012C09081809152018F5F8F7320915301DF
:1005E000821751F0E0915201F0E0E75CFE4F958FE9
:1005F0008093520101C08081FF91EF919F918F9173
:100600002F910F900FBE0F901F9018951F920F9271
:100610000FB60F9211242F933F938F939F93AF9315
:10062000BF938091250190912601A0912701B0915F
:1006300028013091240123E0230F2D3720F4019667
:10064000A11DB11D05C026E8230F0296A11DB11DF5
:10065000209324018093250190932601A0932701E4
:10066000B09328018091290190912A01A0912B013A
:10067000B0912C010196A11DB11D80932901909389
:100680002A01A0932B01B0932C01BF91AF919F91B0
:100690008F913F912F910F900FBE0F901F90189543
:1006A0001F920F920FB60F9211242F933F934F93E7
:1006B0005F936F937F938F939F93AF93BF93EF93CA
:1006C000FF93E0913101F09132010995FF91EF9193
:1006D000BF91AF919F918F917F916F915F914F915A
:1006E0003F912F910F900FBE0F901F901895CF93B1
:1006F000DF9300D000D0CDB7DEB7789484B58260A8
:1007000084BD84B5816084BD85B5826085BD85B5B5
:10071000816085BD80916E00816080936E00109233
:1007200081008091810082608093810080918100AE
:10073000816080938100809180008160809380003F
:100740008091B10084608093B1008091B00081609D
:100750008093B00080917A00846080937A008091C9
:100760007A00826080937A0080917A008160809321
:100770007A0080917A00806880937A001092C1009C
:10078000E0914901F0914A0112E01083E0914501A6
:10079000F09146011082E0914701F09148018FEC01
:1007A000808310925101E0914D01F0914E0186E05D
:1007B0008083E0914B01F0914C01808180618083C6
:1007C000E0914B01F0914C01808188608083E09141
:1007D0004B01F0914C01808180688083E0914B0156
:1007E000F0914C0180818F7D808387E00E9487009B
:1007F00088E00E94870086E00E94870085E00E94D2
:10080000870084E00E94870083E00E94870082E0E6
:100810000E948700109234011092330110928000E0
:1008200080E18093810010932F018FB78093300176
:10083000F89480E197E290932E0180932D0190939C
:10084000870080938600809130018FBF8091810066
:10085000887F809381009091810080912F01982B57
:100860009093810025E432E03093320120933101EE
:1008700091E090936F0090918100892B809381008B
:1008800090E4992E2CE1A22E21E0B22E8E010F5F72
:100890001F4F90927C0080917A00806480937A0050
:1008A00080917A0086FDFCCF60917800809179007C
:1008B00070E0782B072E000C880B990B0E942905FD
:1008C00020E030E04AEF5EE30E948D050E94F104D3
:1008D0007F936F93BF92AF921F930F930E942D0649
:1008E000F80101900020E9F73197AF01401B510B4F
:1008F000B80189E391E00E94A60042E050E061E285
:1009000071E089E391E00E94A60089818F70809355
:1009100035018A818F70809336018B818F7080932F
:1009200037018C818F70809338010E94FC012B016C
:100930003C010F900F900F900F900F900F9088EC4C
:10094000C82ED12CE12CF12C0E94FC01DC01CB0142
:1009500084199509A609B709883E9340A105B105F8
:1009600058F021E0C21AD108E108F10888EE480EDB
:1009700083E0581E611C711CC114D104E104F10410
:1009800019F70E94A60185CFE9E3F1E013821282F4
:1009900088EE93E0A0E0B0E084839583A683B783DC
:1009A0008EE091E09183808385EC90E09587848749
:1009B00084EC90E09787868780EC90E0918B808B29
:1009C00081EC90E0938B828B82EC90E0958B848B12
:1009D00086EC90E0978B868B118E128E138E148E80
:1009E00008950E94F8046894B1110C948705089545
:1009F0000E946C0588F09F5798F0B92F9927B7513E
:100A0000B0F0E1F0660F771F881F991F1AF0BA95B2
:100A1000C9F714C0B13091F00E948605B1E0089585
:100A20000C948605672F782F8827B85F39F0B93F77
:100A3000CCF3869577956795B395D9F73EF4909565
:100A40008095709561957F4F8F4F9F4F0895E894E3
:100A500009C097FB3EF490958095709561957F4F06
:100A60008F4F9F4F9923A9F0F92F96E9BB279395B4
:100A7000F695879577956795B795F111F8CFFAF4C4
:100A8000BB0F11F460FF1BC06F5F7F4F8F4F9F4FF5
:100A900016C0882311F096E911C0772321F09EE853
:100AA000872F762F05C0662371F096E8862F70E0B9
:100AB00060E02AF09A95660F771F881FDAF7880F93
:100AC0009695879597F9089557FD9058440F551FAF
:100AD00059F05F3F71F04795880F97FB991F61F0C0
:100AE0009F3F79F087950895121613061406551F37
:100AF000F2CF4695F1DF08C0161617061806991FA3
:100B0000F1CF86957105610508940895E894BB2797
:100B100066277727CB0197F908950E94A0050C94CA
:100B200011060E94030638F00E940A0620F0952361
:100B300011F00C94FA050C94000611240C9487050E
:100B40000E94640570F3959FC1F3950F50E0551F07
:100B5000629FF001729FBB27F00DB11D639FAA2712
:100B6000F00DB11DAA1F649F6627B00DA11D661F61
:100B7000829F2227B00DA11D621F739FB00DA11D82
:100B8000621F839FA00D611D221F749F3327A00D3C
:100B9000611D231F849F600D211D822F762F6A2FD8
:100BA00011249F5750409AF0F1F088234AF0EE0F3D
:100BB000FF1FBB1F661F771F881F91505040A9F76A
:100BC0009E3F510580F00C94FA050C9487055F3F19
:100BD000E4F3983ED4F3869577956795B795F795A6
:100BE000E7959F5FC1F7FE2B880F911D969587951E
:100BF00097F9089597F99F6780E870E060E008959D
:100C00009FEF80EC089500240A9416161706180624
:100C10000906089500240A94121613061406050600
:100C20000895092E0394000C11F4882352F0BB0F91
:100C300040F4BF2B11F460FF04C06F5F7F4F8F4FF4
:100C40009F4F0895EE0FFF1F0590F491E02D09943A
:100C500081E090E0F8940C940509AEE0B0E0E3E3A5
:100C6000F6E00C94DC080D891E8986E08C831A83DB
:100C700009838FEF9FE79E838D83AE01475E5F4FB1
:100C80006F89788DCE0101960E9450062F8138859C
:100C9000F801E20FF31F10822E96E4E00C94F8089E
:100CA000ACE0B0E0E6E5F6E00C94CE087C016B0128
:100CB0008A01FC0117821682838181FFBDC1CE01AA
:100CC00001964C01F7019381F60193FD859193FF05
:100CD00081916F01882309F4ABC1853239F493FD0A
:100CE000859193FF81916F01853229F4B70190E0DE
:100CF0000E943808E7CF512C312C20E02032A0F49C
:100D00008B3269F030F4803259F0833269F420611B
:100D10002CC08D3239F0803339F4216026C0226036
:100D2000246023C0286021C027FD27C030ED380F84
:100D30003A3078F426FF06C0FAE05F9E300D1124A9
:100D4000532E13C08AE0389E300D1124332E2062BA
:100D50000CC08E3221F426FD6BC1206406C08C3697
:100D600011F4206802C0883641F4F60193FD8591A4
:100D700093FF81916F018111C1CF982F9F7D955471
:100D8000933028F40C5F1F4FFFE3F9830DC08336C7
:100D900031F0833771F0833509F05BC022C0F80170
:100DA000808189830E5F1F4F44244394512C54014A
:100DB00015C03801F2E06F0E711CF801A080B180FF
:100DC00026FF03C0652D70E002C06FEF7FEFC50105
:100DD0002C870E942D082C0183012C852F77222E31
:100DE00017C03801F2E06F0E711CF801A080B180CD
:100DF00026FF03C0652D70E002C06FEF7FEFC501D5
:100E00002C870E9422082C012C852068222E830129
:100E100023FC1BC0832D90E048165906B0F4B7019F
:100E200080E290E00E9438083A94F4CFF50127FC64
:100E3000859127FE81915F01B70190E00E943808FB
:100E400031103A94F1E04F1A51084114510471F7EE
:100E5000E5C0843611F0893639F5F80127FF07C05F
:100E600060817181828193810C5F1F4F08C0608116
:100E70007181072E000C880B990B0E5F1F4F2F7688
:100E8000722E97FF09C090958095709561957F4F60
:100E90008F4F9F4F2068722E2AE030E0A4010E94FD
:100EA0007008A82EA81844C0853729F42F7EB22ECA
:100EB0002AE030E025C0F22FF97FBF2E8F36C1F037
:100EC00018F4883579F0B4C0803719F0883721F0EC
:100ED000AFC02F2F2061B22EB4FE0DC08B2D8460C9
:100EE000B82E09C024FF0AC09F2F9660B92E06C0F5
:100EF00028E030E005C020E130E002C020E132E02F
:100F0000F801B7FE07C060817181828193810C5F17
:100F10001F4F06C06081718180E090E00E5F1F4F1F
:100F2000A4010E947008A82EA818FB2DFF777F2E21
:100F300076FE0BC0372D3E7FA51450F474FE0AC018
:100F400072FC08C0372D3E7E05C0BA2C372D03C079
:100F5000BA2C01C0B52C34FF0DC0FE01EA0DF11D05
:100F60008081803311F4397E09C032FF06C0B3940A
:100F7000B39404C0832F867809F0B39433FD13C073
:100F800030FF06C05A2CB31418F4530C5B18B32C62
:100F9000B31468F4B70180E290E03C870E943808FF
:100FA000B3943C85F5CFB31410F43B1801C0312C39
:100FB00034FF12C0B70180E390E03C870E943808FC
:100FC0003C8532FF17C031FD03C088E790E002C0C6
:100FD00088E590E0B7010CC0832F867859F031FF87
:100FE00002C08BE201C080E237FD8DE2B70190E0E4
:100FF0000E943808A51438F4B70180E390E00E94FD
:1010000038085A94F7CFAA94F401EA0DF11D8081B3
:10101000B70190E00E943808A110F5CF332009F401
:1010200051CEB70180E290E00E9438083A94F6CFA2
:10103000F7018681978102C08FEF9FEF2C96E2E146
:101040000C94EA08FC010590615070400110D8F73B
:10105000809590958E0F9F1F0895FC016150704000
:1010600001900110D8F7809590958E0F9F1F0895DD
:101070000F931F93CF93DF93FB01238121FD03C0C7
:101080008FEF9FEF28C022FF16C046815781248131
:1010900035814217530744F4A081B1819D012F5F30
:1010A0003F4F318320838C93268137812F5F3F4FC1
:1010B0003783268310C0EB01092F182F0084F18598
:1010C000E02D0995892BE1F68E819F8101969F8302
:1010D0008E83812F902FDF91CF911F910F910895D3
:1010E000FA01AA27283051F1203181F1E8946F9359
:1010F0006E7F6E5F7F4F8F4F9F4FAF4FB1E03ED0FF
:10110000B4E03CD0670F781F891F9A1FA11D680F9C
:10111000791F8A1F911DA11D6A0F711D811D911DCF
:10112000A11D20D009F468943F912AE0269F112444
:101130003019305D3193DEF6CF010895462F4770A8
:10114000405D4193B3E00FD0C9F7F6CF462F4F7003
:10115000405D4A3318F0495D31FD4052419302D061
:10116000A9F7EACFB4E0A695979587957795679507
:10117000BA95C9F700976105710508959B01AC0107
:101180000A2E06945795479537952795BA95C9F72E
:10119000620F731F841F951FA01D08952F923F9209
:1011A0004F925F926F927F928F929F92AF92BF9277
:1011B000CF92DF92EF92FF920F931F93CF93DF9323
:1011C000CDB7DEB7CA1BDB0B0FB6F894DEBF0FBE80
:1011D000CDBF09942A88398848885F846E847D84CD
:1011E0008C849B84AA84B984C884DF80EE80FD80CF
:1011F0000C811B81AA81B981CE0FD11D0FB6F89445
:0E120000DEBF0FBECDBFED010895F894FFCF05
:10120E003F065B4F666D7D077F6F000000003D015E
:10121E00A600D50084010601E400F80025303464F0
:04122E00000D0A00A5
:00000001FF
