:100000000C941F010C947A030C944F030C9424035A
:100010000C94F9020C94CE020C94A3020C94780276
:100020000C944D020C9440010C9440010C9440013E
:100030000C9440010C9440010C9440010C9440013C
:100040000C9440010C9440010C9440010C9440012C
:100050000C9440010C9440010C9440010C94030258
:100060000C9440010C9440010C9440010C9440010C
:100070000C9440010C9440010C9440010C944001FC
:100080000C9440010C9440010C9440010C944001EC
:100090000C9440010C9440010C9440010C944001DC
:1000A0000C9440010C9440010C9440010C944001CC
:1000B0000C9440010C9440010C9440010C944001BC
:1000C0000C9440010C9440010C9440010C944001AC
:1000D0000C9440010C9440010C9440010C9440019C
:1000E0000C9440010C9461010C94C9010C946F01B3
:1000F0000C94C1010C94F8010C94A6010C94DC0141
:100100000C94F2010C94BD010C94AB010C94CC0145
:100110000C94FC010C94C5010C9402020C9468012F
:100120000C94E0010C94EE010C94D2010C94D601D5
:100130000C94EA010C94E40100000A0B02090C0D76
:100140000E0807030401000000000000000000008A
:10015000000000000000000000000000000000009F
:10016000000000001211100000000000000000005C
:10017000000000000000000000000000000000007F
:100180002200250028002B002E003100340002013F
:100190000000050108010B010000210024002700D8
:1001A0002A002D0030003300010100000401070186
:1001B0000A010505050507050808080802020202EC
:1001C0000A0A0808040404040101010101010101F3
:1001D0000303030303030303040707070C0C0C0CBE
:1001E0000C0C0C0C020202020606060606060606A7
:1001F0000B0B0B0B0B0B0B0B010210202008081034
:100200002040102040800201020108040201010286
:10021000040810204080804020100804020180045F
:1002200002018040201008040201080402010102BA
:10023000040810204080010204081020408011248E
:100240001FBECFEFD1E2DEBFCDBF00E00CBF12E09A
:10025000A0E0B2E0E2E0F9E000E00BBF02C00790EE
:100260000D92A031B107D9F722E0A0E1B2E001C0C0
:100270001D92AB31B207E1F70E94A5030C947F04F5
:100280000C94000090E0FC01E850FE4F24918E5445
:100290009E4FFC018491882399F090E0880F991F6C
:1002A000FC01E856FE4FA591B491FC01E258FE4FC7
:1002B000859194918FB7F894EC91E22BEC938FBFDA
:1002C000089581E090E090931102809310020895C8
:1002D00082E090E09093110280931002089583E0F1
:1002E00090E090931102809310020895282F30E03F
:1002F000F901E85CFE4F9491F901E850FE4F4491FA
:100300002E543E4FF9012491222309F435C099233C
:1003100011F191509231F8F4E92FF0E08827EC5672
:10032000FE4F8F4F0C947704C501C901A601BD0192
:10033000C101AB01CC01D201D601DC01E001E40135
:10034000EA01EE01AB01F201F801FC0180918000AD
:100350008F7780938000E22FF0E0EE0FFF1FE258CE
:10036000FE4FA591B4918FB7F894EC91611148C0FC
:1003700040954E234C938FBF0895809180008F7DD0
:10038000E8CF80918000877FE4CF84B58F7784BDEC
:10039000E2CF84B58F7DFBCF8091B0008F778093C3
:1003A000B000D9CF8091B0008F7DF9CF80919000BF
:1003B0008F7780939000CFCF809190008F7DF9CF81
:1003C00080919000877FF5CF8091A0008F778093F8
:1003D000A000C1CF8091A0008F7DF9CF8091A000B7
:1003E000877FF5CF809120018F7780932001B3CF55
:1003F000809120018F7DF9CF80912001877FF5CFFB
:100400004E2BB8CF08951F920F920FB60F92112462
:100410002F933F938F939F93AF93BF938091170236
:1004200090911802A0911902B0911A02309116020F
:1004300023E0230F2D3758F50196A11DB11D209300
:1004400016028093170290931802A0931902B0939A
:100450001A028091120290911302A0911402B0919D
:1004600015020196A11DB11D8093120290931302F3
:10047000A0931402B0931502BF91AF919F918F91F9
:100480003F912F910F900FBE0F901F90189526E867
:10049000230F0296A11DB11DD2CF1F920F920FB64E
:1004A0000F9211240BB60F922F933F934F935F93AC
:1004B0006F937F938F939F93AF93BF93EF93FF932C
:1004C000E0910E02F0910F021995FF91EF91BF910B
:1004D000AF919F918F917F916F915F914F913F91DC
:1004E0002F910F900BBE0F900FBE0F901F9018957D
:1004F0001F920F920FB60F9211240BB60F922F93EB
:100500003F934F935F936F937F938F939F93AF939B
:10051000BF93EF93FF93E0910C02F0910D021995B8
:10052000FF91EF91BF91AF919F918F917F916F91CB
:100530005F914F913F912F910F900BBE0F900FBE87
:100540000F901F9018951F920F920FB60F921124C3
:100550000BB60F922F933F934F935F936F937F93BD
:100560008F939F93AF93BF93EF93FF93E09102021A
:10057000F09103021995FF91EF91BF91AF919F9177
:100580008F917F916F915F914F913F912F910F903C
:100590000BBE0F900FBE0F901F9018951F920F92D9
:1005A0000FB60F9211240BB60F922F933F934F93D8
:1005B0005F936F937F938F939F93AF93BF93EF93CB
:1005C000FF93E0910002F09101021995FF91EF91E4
:1005D000BF91AF919F918F917F916F915F914F915B
:1005E0003F912F910F900BBE0F900FBE0F901F9059
:1005F00018951F920F920FB60F9211240BB60F92FF
:100600002F933F934F935F936F937F938F939F931A
:10061000AF93BF93EF93FF93E0910A02F0910B0227
:100620001995FF91EF91BF91AF919F918F917F911C
:100630006F915F914F913F912F910F900BBE0F9053
:100640000FBE0F901F9018951F920F920FB60F922A
:1006500011240BB60F922F933F934F935F936F9399
:100660007F938F939F93AF93BF93EF93FF93E0910B
:100670000802F09109021995FF91EF91BF91AF9196
:100680009F918F917F916F915F914F913F912F91AA
:100690000F900BBE0F900FBE0F901F9018951F92DA
:1006A0000F920FB60F9211240BB60F922F933F9318
:1006B0004F935F936F937F938F939F93AF93BF936A
:1006C000EF93FF93E0910602F09107021995FF91D5
:1006D000EF91BF91AF919F918F917F916F915F91BA
:1006E0004F913F912F910F900BBE0F900FBE0F9027
:1006F0001F9018951F920F920FB60F9211240BB6F0
:100700000F922F933F934F935F936F937F938F93AA
:100710009F93AF93BF93EF93FF93E0910402F09107
:1007200005021995FF91EF91BF91AF919F918F9124
:100730007F916F915F914F913F912F910F900BBEE1
:100740000F900FBE0F901F901895789484B582601B
:1007500084BD84B5816084BD85B5826085BD85B565
:10076000816085BD80916E00816080936E001092E3
:10077000810080918100826080938100809181005E
:1007800081608093810080918000816080938000EF
:100790008091B10084608093B1008091B00081604D
:1007A0008093B0008091910082608093910080914D
:1007B000910081608093910080919000816080938E
:1007C00090008091A10082608093A1008091A1009F
:1007D00081608093A1008091A00081608093A0003F
:1007E00080912101826080932101809121018160AB
:1007F000809321018091200181608093200180916C
:100800007A00846080937A0080917A00826080937D
:100810007A0080917A00816080937A0080917A00DA
:10082000806880937A001092C10089E00E944201A2
:100830008AE00E9442018BE00E94420181E691E041
:10084000909301028093000280916A008C7F826005
:1008500080936A00EC9A88E691E09093030280937B
:10086000020280916A00837F886080936A00ED9A1B
:100870008FE691E090930B0280930A0280916900C9
:100880008F73806880936900EB9AC0E0D0E080911C
:1008900010029091110261E0009721F081309105E2
:1008A00089F460E089E00E94760161E08AE00E94BC
:1008B000760161E08BE00E947601209741F30E946F
:1008C0000000E5CF8230910531F461E089E00E94BB
:1008D000760160E0EBCF039781F761E089E00E9449
:1008E000760161E08AE00E94760160E0E3CFEE0FDE
:1008F000FF1F881F8BBF0790F691E02D1994F89485
:02090000FFCF27
:1009020002020202020202020202020202020202C5
:00000001FF
