:100000000C9462000C948A000C948A000C948A0070
:100010000C948A000C948A000C948A000C948A0038
:100020000C948A000C948A000C948A000C948A0028
:100030000C948A000C94E2030C948A000C948A00BD
:100040000C9498030C948A000C9466030C9440035F
:100050000C948A000C948A000C948A000C948A00F8
:100060000C948A000C948A000000000024002700F1
:100070002A0000000000250028002B0000000000DE
:1000800023002600290004040404040404040202DA
:100090000202020203030303030301020408102007
:1000A0004080010204081020010204081020000012
:1000B0000008000201000003040700000000000027
:1000C0000000FB0511241FBECFEFD8E0DEBFCDBF7F
:1000D00011E0A0E0B1E0EAE1F2E102C005900D928A
:1000E000A632B107D9F721E0A6E2B1E001C01D9226
:1000F000AC3DB207E1F710E0C2E6D0E004C02197C2
:10010000FE010E942806C136D107C9F70E940904E2
:100110000C940B090C940000CF92DF92EF92FF92A7
:100120000F931F93CF93DF936C017A018B01C0E093
:10013000D0E0CE15DF0589F0D8016D918D01D60193
:10014000ED91FC910190F081E02DC6010995892B7C
:1001500011F47E0102C02196ECCFC701DF91CF914F
:100160001F910F91FF90EF90DF90CF900895089529
:1001700080E090E00895FC01538D448D252F30E000
:10018000842F90E0821B930B541710F0CF960895A4
:1001900001970895FC01918D828D981761F0828DF1
:1001A000DF01A80FB11D5D968C91928D9F5F9F73AB
:1001B000928F90E008958FEF9FEF0895FC01918D4D
:1001C000828D981731F0828DE80FF11D858D90E0BA
:1001D00008958FEF9FEF0895FC01918D228D892F57
:1001E00090E0805C9F4F821B91098F73992708953F
:1001F0008BE391E00E94EC0021E0892B09F420E0E0
:10020000822F0895FC01848DDF01A80FB11DA35A30
:10021000BF4F2C91848D90E001968F739927848F26
:10022000A689B7892C93A089B1898C9180648C931D
:10023000938D848D981306C00288F389E02D808108
:100240008F7D80830895EF92FF920F931F93CF933A
:10025000DF93EC0181E0888F9B8D8C8D981305C016
:10026000E889F989808185FD24C0F62E0B8D10E088
:100270000F5F1F4F0F731127E02E8C8DE8120CC0FB
:100280000FB607FCFACFE889F989808185FFF5CFA1
:10029000CE010E940201F1CF8B8DFE01E80FF11D0E
:1002A000E35AFF4FF0820B8FEA89FB8980818062DD
:1002B00007C0EE89FF896083E889F98980818064BD
:1002C000808381E090E0DF91CF911F910F91FF90AB
:1002D000EF900895CF93DF93EC01888D8823C9F0C8
:1002E000EA89FB89808185FD05C0A889B9898C913F
:1002F00086FD0FC00FB607FCF5CF808185FFF2CFDA
:10030000A889B9898C9185FFEDCFCE010E940201A9
:10031000E7CFDF91CF91089580E090E0892B29F01D
:100320000E94F80081110C9400000895833081F040
:1003300028F4813099F08230A1F008958730A9F037
:100340008830B9F08430D1F4809180008F7D03C073
:10035000809180008F7780938000089584B58F7797
:1003600002C084B58F7D84BD08958091B0008F77E1
:1003700003C08091B0008F7D8093B0000895CF932B
:10038000DF93282F30E0F901E255FF4F8491F90106
:10039000E656FF4FD491F901EA57FF4FC491CC23A1
:1003A00091F081110E949601EC2FF0E0EE0FFF1FFB
:1003B000E458FF4FA591B491EC91ED2381E090E0DA
:1003C00021F480E002C080E090E0DF91CF910895B9
:1003D0001F93CF93DF93282F30E0F901E255FF4FB1
:1003E0008491F901E656FF4FD491F901EA57FF4F86
:1003F000C491CC23C9F0162F81110E949601EC2FD5
:10040000F0E0EE0FFF1FEE58FF4FA591B4918FB7AC
:10041000F894111105C09C91ED2FE095E92302C0DD
:10042000EC91ED2BEC938FBFDF91CF911F9108954D
:10043000CF93DF9390E0FC01E656FF4F2491FC013F
:10044000EA57FF4F8491882361F190E0880F991F4C
:10045000FC01E859FF4FC591D491FC01EE58FF4FC4
:10046000A591B491611109C09FB7F8948881209536
:1004700082238883EC912E230BC0623061F49FB7F6
:10048000F8943881822F809583238883EC912E2BDA
:100490002C939FBF06C08FB7F894E8812E2B28833A
:1004A0008FBFDF91CF9108953FB7F89480912B01D2
:1004B00090912C01A0912D01B0912E0126B5A89B01
:1004C00005C02F3F19F00196A11DB11D3FBFBA2FE6
:1004D000A92F982F8827820F911DA11DB11DBC0146
:1004E000CD0142E0660F771F881F991F4A95D1F70B
:1004F00008958F929F92AF92BF92CF92DF92EF9228
:10050000FF926B017C010E9454024B015C01C114FB
:10051000D104E104F104F1F00E945402DC01CB01AA
:1005200088199909AA09BB09883E9340A105B1051C
:1005300070F321E0C21AD108E108F10888EE880EB4
:1005400083E0981EA11CB11CC114D104E104F10484
:1005500019F7DDCFFF90EF90DF90CF90BF90AF9075
:100560009F908F9008951F93CF93DF93182FC8E02B
:10057000D0E017FF02C061E001C060E087E00E94A8
:10058000E801110F60E088E00E94E80161E088E086
:100590000E94E801219769F760E086E00E94E80187
:1005A00061E086E0DF91CF911F910C94E80180918A
:1005B00035019091360101968530910511F481E065
:1005C00090E09093360180933501809135019091B0
:1005D00036018230910559F1A4F4019709F04BC01E
:1005E00061E082E00E94E801E09137010E2E000CEC
:1005F000FF0BEE5FFE4F80810E94B30260E085E05A
:1006000038C08330910529F10497A9F561E083E0B2
:100610000E94E801E0913A010E2E000CFF0BEE5F04
:10062000FE4F80810E94B30260E082E022C061E060
:1006300085E00E94E801E09138010E2E000CFF0BCE
:10064000EE5FFE4F808180680E94B30260E084E02C
:1006500010C061E084E00E94E801E09139010E2EB3
:10066000000CFF0BEE5FFE4F80810E94B30260E042
:1006700083E00E94E8018CEC86BD08950E942E065E
:100680001F920F920FB60F9211242F933F934F9307
:100690005F936F937F938F939F93AF93BF93EF93EA
:1006A000FF938BE391E00E940201FF91EF91BF91D4
:1006B000AF919F918F917F916F915F914F913F91FA
:1006C0002F910F900FBE0F901F9018951F920F92B1
:1006D0000FB60F9211242F938F939F93EF93FF9355
:1006E000E0914B01F0914C018081E0915101F0913A
:1006F000520182FD12C09081809154018F5F8F73EF
:1007000020915501821751F0E0915401F0E0E55C31
:10071000FE4F958F8093540101C08081FF91EF912E
:100720009F918F912F910F900FBE0F901F90189552
:100730001F920F920FB60F9211242F933F938F9316
:100740009F93AF93BF938091270190912801A0912F
:100750002901B0912A013091260123E0230F2D3782
:1007600020F40196A11DB11D05C026E8230F0296B5
:10077000A11DB11D2093260180932701909328018C
:10078000A0932901B0932A0180912B0190912C0113
:10079000A0912D01B0912E010196A11DB11D809354
:1007A0002B0190932C01A0932D01B0932E01BF91AA
:1007B000AF919F918F913F912F910F900FBE0F900E
:1007C0001F9018951F920F920FB60F9211242F931E
:1007D0003F934F935F936F937F938F939F93AF93C9
:1007E000BF93EF93FF93E0913301F09134010995AA
:1007F000FF91EF91BF91AF919F918F917F916F91F9
:100800005F914F913F912F910F900FBE0F901F90CE
:100810001895CF93DF93CDB7DEB728970FB6F8942E
:10082000DEBF0FBECDBF789484B5826084BD84B531
:10083000816084BD85B5826085BD85B5816085BDDB
:1008400080916E00816080936E0010928100809193
:10085000810082608093810080918100816080931B
:100860008100809180008160809380008091B10040
:1008700084608093B1008091B00081608093B0006B
:1008800080917A00846080937A0080917A008260FF
:1008900080937A0080917A00816080937A008091C1
:1008A0007A00806880937A001092C100E0914B0139
:1008B000F0914C0182E08083E0914701F091480182
:1008C0001082E0914901F0914A018FEC80831092EF
:1008D0005301E0914F01F091500186E08083E09157
:1008E0004D01F0914E01808180618083E0914D0146
:1008F000F0914E01808188608083E0914D01F091FC
:100900004E01808180688083E0914D01F0914E011D
:1009100080818F7D808361E087E00E94180261E022
:1009200088E00E94180261E086E00E94180261E0FF
:1009300085E00E94180261E084E00E94180261E0F4
:1009400083E00E94180261E082E00E94180261E0E8
:100950008DE00E94180260E08DE00E94E80160E0F6
:100960008AE00E94180260E089E00E94180261E0BB
:100970008AE00E94E80161E089E00E94E8011092AB
:100980003601109235011092800080E18093810041
:1009900021E0209331018FB780933201F89480E4F5
:1009A0009FE19093300180932F0190938700809373
:1009B0008600809132018FBF80918100887F809373
:1009C00081009091810080913101982B909381005A
:1009D00047ED52E0509334014093330120936F0070
:1009E00090918100892B809381008AE0682E712C80
:1009F0009CE3A92EB12C2EE1E22E21E0F22E8E01F5
:100A00000B5F1F4FCE0101964C0180910001909128
:100A10000101892B79F570920101609200018091AA
:100A2000DA019091DB01181619067CF42091D801A7
:100A30003091D901232B49F401979093DB018093E6
:100A4000DA01B092D901A092D8018091D801909199
:100A5000D90101979093D9018093D8012091DA01AF
:100A60003091DB01232B31F4019721F461E08DE01B
:100A70000E94E801C090DA01D090DB011C141D0433
:100A80003CF08091D8019091D901181619064CF4C8
:100A90008091000190910101019790930101809351
:100AA00000018AE00E94BF01892B89F46AE070E0AE
:100AB00080E090E00E9479029FEFC91AD90AD09293
:100AC000DB01C092DA0160E08DE00E94E80189E07C
:100AD0000E94BF01892B11F56AE070E080E090E090
:100AE0000E9479028091D8019091D901019690934A
:100AF000D9018093D801CC976CF08091DA01909164
:100B0000DB0101969093DB018093DA011092D90109
:100B10001092D80160E08DE00E94E80189E00E9417
:100B2000BF01892B31F48AE00E94BF01892B09F4AF
:100B30004BC08091DB018F938091DA018F93FF92FC
:100B4000EF921F930F930E9433068091D9018F93E8
:100B50008091D8018F93FF92EF929F928F920E9483
:100B60003306F80101900020E9F73197AF01401BEF
:100B7000510BB8018BE391E00E948C0042E050E001
:100B800063E271E08BE391E00E948C008D818F70B5
:100B9000809337018E818F708093380189818F70A7
:100BA000809339018A818F7080933A0164E670E006
:100BB00080E090E00E9479020FB6F894DEBF0FBE8D
:100BC000CDBF0E948C0121CF1092DB011092DA017F
:100BD0001092D9011092D80161E08DE00E94E801E5
:100BE00064EF71E080E090E00E94790260E08DE0C7
:100BF0000E94E8019ECFEBE3F1E01382128288EEBF
:100C000093E0A0E0B0E084839583A683B78380E17E
:100C100091E09183808385EC90E09587848784ECD4
:100C200090E09787868780EC90E0918B808B81ECB9
:100C300090E0938B828B82EC90E0958B848B86EC9A
:100C400090E0978B868B118E128E138E148E0895E2
:100C5000EE0FFF1F0590F491E02D099481E090E0E4
:100C6000F8940C940B09AEE0B0E0E9E3F6E00C94E4
:100C7000E2080D891E8986E08C831A8309838FEF31
:100C80009FE79E838D83AE01475E5F4F6F89788DAE
:100C9000CE0101960E9456062F813885F801E20F99
:100CA000F31F10822E96E4E00C94FE08ACE0B0E056
:100CB000ECE5F6E00C94D4087C016B018A01FC01A0
:100CC00017821682838181FFBDC1CE0101964C013E
:100CD000F7019381F60193FD859193FF81916F0157
:100CE000882309F4ABC1853239F493FD859193FFD4
:100CF00081916F01853229F4B70190E00E943E088E
:100D0000E7CF512C312C20E02032A0F48B3269F057
:100D100030F4803259F0833269F420612CC08D3276
:100D200039F0803339F4216026C02260246023C06A
:100D3000286021C027FD27C030ED380F3A3078F405
:100D400026FF06C0FAE05F9E300D1124532E13C01B
:100D50008AE0389E300D1124332E20620CC08E3272
:100D600021F426FD6BC1206406C08C3611F4206886
:100D700002C0883641F4F60193FD859193FF81917D
:100D80006F018111C1CF982F9F7D9554933028F426
:100D90000C5F1F4FFFE3F9830DC0833631F08337BB
:100DA00071F0833509F05BC022C0F801808189832E
:100DB0000E5F1F4F44244394512C540115C0380139
:100DC000F2E06F0E711CF801A080B18026FF03C015
:100DD000652D70E002C06FEF7FEFC5012C870E9488
:100DE00033082C0183012C852F77222E17C0380160
:100DF000F2E06F0E711CF801A080B18026FF03C0E5
:100E0000652D70E002C06FEF7FEFC5012C870E9457
:100E100028082C012C852068222E830123FC1BC06E
:100E2000832D90E048165906B0F4B70180E290E0B7
:100E30000E943E083A94F4CFF50127FC859127FEE5
:100E400081915F01B70190E00E943E0831103A9411
:100E5000F1E04F1A51084114510471F7E5C084368E
:100E600011F0893639F5F80127FF07C060817181DB
:100E7000828193810C5F1F4F08C060817181072EB2
:100E8000000C880B990B0E5F1F4F2F76722E97FF69
:100E900009C090958095709561957F4F8F4F9F4FBA
:100EA0002068722E2AE030E0A4010E947608A82E65
:100EB000A81844C0853729F42F7EB22E2AE030E0EE
:100EC00025C0F22FF97FBF2E8F36C1F018F4883578
:100ED00079F0B4C0803719F0883721F0AFC02F2FD8
:100EE0002061B22EB4FE0DC08B2D8460B82E09C0D7
:100EF00024FF0AC09F2F9660B92E06C028E030E07C
:100F000005C020E130E002C020E132E0F801B7FE88
:100F100007C060817181828193810C5F1F4F06C081
:100F20006081718180E090E00E5F1F4FA4010E94FC
:100F30007608A82EA818FB2DFF777F2E76FE0BC013
:100F4000372D3E7FA51450F474FE0AC072FC08C011
:100F5000372D3E7E05C0BA2C372D03C0BA2C01C0F8
:100F6000B52C34FF0DC0FE01EA0DF11D80818033E8
:100F700011F4397E09C032FF06C0B394B39404C0A3
:100F8000832F867809F0B39433FD13C030FF06C079
:100F90005A2CB31418F4530C5B18B32CB31468F424
:100FA000B70180E290E03C870E943E08B3943C8504
:100FB000F5CFB31410F43B1801C0312C34FF12C02C
:100FC000B70180E390E03C870E943E083C8532FFF9
:100FD00017C031FD03C088E790E002C088E590E0CB
:100FE000B7010CC0832F867859F031FF02C08BE225
:100FF00001C080E237FD8DE2B70190E00E943E081B
:10100000A51438F4B70180E390E00E943E085A949A
:10101000F7CFAA94F401EA0DF11D8081B70190E0A9
:101020000E943E08A110F5CF332009F451CEB7013C
:1010300080E290E00E943E083A94F6CFF701868164
:10104000978102C08FEF9FEF2C96E2E10C94F0089D
:10105000FC010590615070400110D8F78095909583
:101060008E0F9F1F0895FC01615070400190011088
:10107000D8F7809590958E0F9F1F08950F931F931B
:10108000CF93DF93FB01238121FD03C08FEF9FEFFF
:1010900028C022FF16C0468157812481358142171E
:1010A000530744F4A081B1819D012F5F3F4F3183ED
:1010B00020838C93268137812F5F3F4F3783268390
:1010C00010C0EB01092F182F0084F185E02D099540
:1010D000892BE1F68E819F8101969F838E83812FDC
:1010E000902FDF91CF911F910F910895FA01AA27B8
:1010F000283051F1203181F1E8946F936E7F6E5F5B
:101100007F4F8F4F9F4FAF4FB1E03ED0B4E03CD008
:10111000670F781F891F9A1FA11D680F791F8A1FEB
:10112000911DA11D6A0F711D811D911DA11D20D052
:1011300009F468943F912AE0269F11243019305D0C
:101140003193DEF6CF010895462F4770405D4193FD
:10115000B3E00FD0C9F7F6CF462F4F70405D4A334A
:1011600018F0495D31FD4052419302D0A9F7EACF12
:10117000B4E0A6959795879577956795BA95C9F741
:1011800000976105710508959B01AC010A2E069434
:101190005795479537952795BA95C9F7620F731FED
:1011A000841F951FA01D08952F923F924F925F922A
:1011B0006F927F928F929F92AF92BF92CF92DF9267
:1011C000EF92FF920F931F93CF93DF93CDB7DEB7CC
:1011D000CA1BDB0B0FB6F894DEBF0FBECDBF099460
:1011E0002A88398848885F846E847D848C849B84B7
:1011F000AA84B984C884DF80EE80FD800C811B81C5
:10120000AA81B981CE0FD11D0FB6F894DEBF0FBEF3
:0A121000CDBFED010895F894FFCF63
:10121A000A003F065B4F666D7D077F6F0000000086
:10122A0023018C00BB006A01EC00CA00DE002530F5
:06123A003264000D0A0001
:00000001FF
