:100000000C9438020C9460020C9460020C94600210
:100010000C9460020C9460020C9460020C946002D8
:100020000C9460020C9460020C9460020C946002C8
:100030000C9460020C9460020C9460020C946002B8
:100040000C949C050C9460020C948B040C94650435
:100050000C9460020C9460020C9460020C94600298
:100060000C9460020C946002110513051505170528
:1000700019051C051F0522050000000023002600AD
:10008000290000000000240027002A0000000000D2
:10009000250028002B0004040404040404040202C4
:1000A00002020202030303030303010204081020F7
:1000B0004080010204081020010204081020000002
:1000C0000008000201000003040700000000000017
:1000D00000000A4C454F46460000000000000000AA
:1000E00000000500290500000000000000000000DD
:1000F000000000000B4C454F4E00000000000000C7
:1001000000000000050029050000000000000000BC
:100110000000000000000C563120454E4300000056
:1001200000000000000005000305000000000000C2
:1001300000000000000000000D563120454E430035
:1001400000000000000000000500030500000000A2
:10015000000000000000000000000E563120454E57
:10016000430000000000000000000500030500003F
:100170000000000000000000000000000F563120C9
:10018000454E43000000000000000000050003058C
:1001900000000000000000000000000000001056F9
:1001A00031204F464600000000000000000005001E
:1001B0000305000000000000000000000000000037
:1001C000115631204F46460000000000000000009C
:1001D0000500030500000000000000000000000012
:1001E0000000125631204F4646000000000000007B
:1001F00000000500030500000000000000000000F2
:1002000000000000135631204F4646000000000059
:1002100000000000050003050000000000000000D1
:1002200000000000000014505054000000000000C6
:100230000000000000000200930300000000000026
:1002400000000000000000000A4D656E75204C653E
:10025000640000000000000000000D0B496E746592
:100260006772616E7465730000000000000E0C413F
:100270006E616C6F6769636F000000000000000032
:100280000C0D444F4D4F5449434100000000000005
:100290000000000F3C524F424552544F20534155ED
:1002A0004C00000000000E3D524F4D414E53494C52
:1002B0004C4F000000000000000E3E494E472E202B
:1002C0005449544F00000000000000000E46454E07
:1002D00043454E44455220563100000000000010B6
:1002E0004941504147415220563100000000000072
:1002F00000001132417061676172204C656400003A
:1003000000000001000A33456E63656E646572206B
:100310004C656400000001000B28504F54454E43CB
:10032000494F4D4554524F000001001450454E4373
:10033000454E4445522056310000000001000C514A
:10034000454E43454E4445522056320000000001C0
:10035000000D52454E43454E444552205633000051
:10036000000001000E53454E43454E444552205671
:10037000340000000001000F544150414741522019
:100380002020563100000000010010554150414727
:100390004152202020563200000000010011564139
:1003A00050414741522020205633000000000100F8
:1003B000125741504147415220202056340000003E
:1003C000000100130A4D656E75205072696E6369F5
:1003D00070616C0000000A0D000B496E7465677255
:1003E000616E7465730000000000001E1F000C5356
:1003F0002E416E616C6F6769636F00000000000042
:100400002828000F56454E54494C41444F52000095
:1004100000000000004649000D4C45445300000018
:10042000000000000000000000003233000E4E4FBC
:100430004D42524553000000000000000000003C07
:100440003E001056314F4E0000000000000000003A
:10045000000000005053001156314F464600000086
:10046000000000000000000000545700EE16ED16DA
:1004700011241FBECFEFD8E0DEBFCDBF11E0A0E05A
:10048000B1E0ECE5F1E302C005900D92A436B107AE
:10049000D9F723E0A4E6B1E001C01D92AD32B20766
:1004A000E1F712E0C7E3D2E004C02197FE010E9409
:1004B0007118C633D107C9F70E944D150C94A118C5
:1004C0000C940000FC01538D448D252F30E0842FC7
:1004D00090E0821B930B541710F0CF96089501976C
:1004E0000895FC01918D828D981761F0828DDF0156
:1004F000A80FB11D5D968C91928D9F5F9F73928F17
:1005000090E008958FEF9FEF0895FC01918D828D0B
:10051000981731F0828DE80FF11D858D90E00895D8
:100520008FEF9FEF0895FC01918D228D892F90E030
:10053000805C9F4F821B91098F739927089582E8F1
:1005400091E00E94930221E0892B09F420E0822FA0
:10055000089580E090E0892B29F00E949F0281118C
:100560000C9400000895CF92DF92EF92FF920F93C8
:100570001F93CF93DF936C017A018B01C0E0D0E031
:10058000CE15DF0589F0D8016D918D01D601ED9171
:10059000FC910190F081E02DC6010995892B11F4A1
:1005A0007E0102C02196ECCFC701DF91CF911F9150
:1005B0000F91FF90EF90DF90CF900895833081F0FE
:1005C00028F4813099F08230A1F008958730A9F0A5
:1005D0008830B9F08430D1F4809180008F7D03C0E1
:1005E000809180008F7780938000089584B58F7705
:1005F00002C084B58F7D84BD08958091B0008F774F
:1006000003C08091B0008F7D8093B00008953FB704
:10061000F89480917E0190917F01A0918001B0912A
:10062000810126B5A89B05C02F3F19F00196A11D99
:10063000B11D3FBFBA2FA92F982F8827820F911D78
:10064000A11DB11DBC01CD0142E0660F771F881FBF
:10065000991F4A95D1F70895089580E090E0089594
:10066000FC01878908950E9483186115710579F04E
:10067000FB0101900020E9F73197AF01461B570BB2
:10068000DC01ED91FC910280F381E02D099480E082
:1006900090E008954F925F926F927F92EF92FF9257
:1006A0000F931F93CF93DF93CDB7DEB7A1970FB60C
:1006B000F894DEBF0FBECDBF7C01FA01CB0119A2B9
:1006C000223008F42AE08E010F5D1F4F422E512C7C
:1006D000612C712CBF01A30192010E942218F90123
:1006E000CA01015011096A3014F4605D01C0695CEF
:1006F000D8016C93232B242B252B61F7B801C7015C
:100700000E943503A1960FB6F894DEBF0FBECDBF91
:10071000DF91CF911F910F91FF90EF907F906F909D
:100720005F904F9008954F925F926F927F92BF9229
:10073000CF92DF92EF92FF920F931F93CF93DF93AD
:100740000BE010E090E4B92EB0927C0080917A002A
:10075000806480937A0080917A0086FDFCCFC091FE
:10076000780080917900D0E0D82B62E08EED92E0A5
:100770000E94E1136E010D2E000CEE08FF08D7FF5A
:1007800014C0E091DE02F091DF020190F081E02DD3
:100790006DE28EED92E0099544275527BA014C1978
:1007A0005D096E097F092AE003C02AE0B701A601AE
:1007B0008EED92E00E944A030E9407032B013C0148
:1007C00088EEC82E83E0D82EE12CF12C0E9407037E
:1007D000DC01CB0184199509A609B709883E93402D
:1007E000A105B10558F021E0C21AD108E108F108CD
:1007F00088EE480E83E0581E611C711CC114D104A0
:10080000E104F10419F762E08EED92E00E94E11339
:1008100062E571E08EED92E00E943503015011090E
:1008200009F092CF80E090E0DF91CF911F910F917E
:10083000FF90EF90DF90CF90BF907F906F905F9090
:100840004F900895FC01848DDF01A80FB11DA35ABC
:10085000BF4F2C91848D90E001968F739927848FE0
:10086000A689B7892C93A089B1898C9180648C93D7
:10087000938D848D981306C00288F389E02D8081C2
:100880008F7D80830895CF93DF93EC01888D88233B
:10089000C9F0EA89FB89808185FD05C0A889B989ED
:1008A0008C9186FD0FC00FB607FCF5CF808185FFC8
:1008B000F2CFA889B9898C9185FFEDCFCE010E9436
:1008C0002204E7CFDF91CF9108951F920F920FB6C8
:1008D0000F9211242F933F934F935F936F937F93C6
:1008E0008F939F93AF93BF93EF93FF9382E891E031
:1008F0000E942204FF91EF91BF91AF919F918F9140
:100900007F916F915F914F913F912F910F900FBE0B
:100910000F901F9018951F920F920FB60F921124EF
:100920002F938F939F93EF93FF93E0919201F09118
:1009300093018081E0919801F091990182FD12C0AC
:10094000908180919B018F5F8F7320919C01821712
:1009500051F0E0919B01F0E0EE57FE4F958F8093B0
:100960009B0101C08081FF91EF919F918F912F9109
:100970000F900FBE0F901F9018951F93CF93DF938A
:10098000282F30E0F901E254FF4F8491F901E65538
:10099000FF4FD491F901EA56FF4FC491CC23C9F01F
:1009A000162F81110E94DE02EC2FF0E0EE0FFF1FE8
:1009B000E457FF4FA591B4918FB7F894111105C07A
:1009C0009C91ED2FE095E92302C0EC91ED2BEC9387
:1009D0008FBFDF91CF911F910895CF93DF93EC01EB
:1009E00060E08E810E94BD0461E08E810E94BD04A2
:1009F00060E08E810E94BD048BE891E00197F1F7E1
:100A0000DF91CF910895082E000C990BAA0BBB0B18
:100A1000FC013C97E830F105C8F4EC5CFF4F0C9406
:100A2000711861E007C061E008C061E009C061E0E1
:100A30000AC060E08EE008C060E08FE005C060E0C2
:100A400080E102C060E081E10E94BD0480E090E0AE
:100A5000089561E08A3009F460E08DE00E94BD04F1
:100A600080E090E00895CF93DF9390E0FC01E6559D
:100A7000FF4F2491FC01EA56FF4F8491882361F1D6
:100A800090E0880F991FFC01EE57FF4FC591D4915C
:100A9000FC01E457FF4FA591B491611109C09FB7C4
:100AA000F8948881209582238883EC912E230BC0B3
:100AB000623061F49FB7F8943881822F8095832348
:100AC0008883EC912E2B2C939FBF06C08FB7F89490
:100AD000E8812E2B28838FBFDF91CF9108950F934C
:100AE0001F93CF938C01C0E0F801858DC817A0F447
:100AF000D8015E968C91882311F060E001C062E01D
:100B0000D8015B96ED91FC915C97EC0FF11D808113
:100B10000E943305CF5FE8CFCF911F910F910895C9
:100B20002FB7F89460917A0170917B0180917C01DC
:100B300090917D012FBF08951F920F920FB60F92D3
:100B400011242F933F938F939F93AF93BF938091E3
:100B50007A0190917B01A0917C01B0917D0130914F
:100B6000790123E0230F2D3720F40196A11DB11D3B
:100B700005C026E8230F0296A11DB11D209379011F
:100B800080937A0190937B01A0937C01B0937D01C7
:100B900080917E0190917F01A0918001B0918101AF
:100BA0000196A11DB11D80937E0190937F01A093BA
:100BB0008001B0938101BF91AF919F918F913F913F
:100BC0002F910F900FBE0F901F901895FC0144239A
:100BD00021F013861486168615868485258536852C
:100BE0002115310521F02130310559F029C081113D
:100BF00006C0662321F021E030E036872587648730
:100C000008958385982F929596959770891B6623F2
:100C100011F0895F05C0811102C0138602C08150A6
:100C20008387938589EF890F813D78F081E0983D36
:100C300008F480E0138622E030E0368725870895A7
:100C4000611104C016861586089580E008956F929C
:100C50007F928F929F92AF92BF92CF92DF92EF924C
:100C6000FF920F931F93CF93DF931F92CDB7DEB701
:100C70003C01912CE12CF12C0FEF1FEFD3015D967D
:100C80008C91981608F03FC0C92CD12CD3015B96EB
:100C9000ED91FC915C97EC0DFD1D208130E0F90198
:100CA000E254FF4F8491F901E655FF4FA490F901FA
:100CB000EA56FF4FB490BB20A1F081110E94DE02E2
:100CC000EB2DF0E0EE0FFF1FE858FF4FA591B49118
:100CD000EC91AE2231E020E009F430E0832F922F36
:100CE00002C080E090E0F301268D30E08217930788
:100CF00041F40F3FFFEF1F0709F486018FEFE81A59
:100D0000F80A9394BBCFEA94EF2861F5F301808D44
:100D1000918D0817190771F041E060E0C3010E944E
:100D2000E605D30113961C921E92129715961C92FB
:100D30001E92149761E0F301808D918D08171907B9
:100D400009F060E0D30159961C930E9358975B9677
:100D50008D919C915C97FC01E00FF11F808157966B
:100D60008C9301C060E040E0C3010E94E605F82ECC
:100D7000F301048115810115110519F01582148202
:100D800069C1828193818230910509F4EAC02CF413
:100D9000009769F00197F9F055C18430910509F485
:100DA00073C00CF416C1059709F4A6C04BC1FF200F
:100DB00009F450C181E090E0F301938382830E94A3
:100DC0009005D30116966D937D938D939C931997FF
:100DD00001E010E03FC1F1101EC0F301828582FFE7
:100DE00010C082E090E0938382830E949005D3013B
:100DF00016966D937D938D939C93199752E0E52EF3
:100E00000CC083E090E0F301958384831382128207
:100E100042E0E42E01C0E12CF12C0E949005D301A8
:100E200016960D911D912D913C911997AB01BC0126
:100E3000401B510B620B730B1F968D919C91509729
:100E4000A0E0B0E084179507A607B70708F0FDC03B
:100E50000E949005F301668377838087918782855E
:100E600081FF05C084E090E093838283EEC080FF21
:100E700005C085E090E093838283A8C086E090E07F
:100E8000F30193838283A2C0F11006C085E090E055
:100E9000D3019583848333C00E949005F301C680FB
:100EA000D780E084F184AB01BC014C195D096E0967
:100EB0007F0983899489A0E0B0E084179507A6078D
:100EC000B70708F0C7C0828580FF0EC085E090E0BC
:100ED000938382830E949005D30116966D937D9330
:100EE0008D939C93199772C086E090E0F3019383F1
:100EF000828305E010E0AEC0F11008C0D301139664
:100F00001C921E92129702E010E0A4C00E9490056D
:100F1000F301C680D780E084F184AB01BC014C1999
:100F20005D096E097F0985899689A0E0B0E04817C0
:100F300059076A077B0708F48DC0828583FD02C0CC
:100F400023E001C026E0F12C29830E949005D30103
:100F500016966D937D938D939C9319972981022FFB
:100F600075C0FF2089F083E090E0F30193838283D2
:100F70000E949005D30116966D937D938D939C935B
:100F80001997DD24D39401C0D12CE12C0E94900547
:100F9000F30186809780A084B184AB01BC0148191D
:100FA00059096A097B0981899289A0E0B0E0841718
:100FB0009507A607B70708F04BC0FF2011F006E021
:100FC00010E0D30113961C930E93129703E010E0E8
:100FD00041C0F1100AC084E090E0F301958384835E
:100FE0001382128232E0D32E01C0D12CE12C0E9458
:100FF0009005D30116968D909D90AD90BC90199759
:10100000AB01BC01481959096A097B091F968D91EA
:101010009C915097880F991FA0E0B0E0481759079E
:101020006A077B07A8F083E090E0F301958384834F
:10103000FF2011F006E010E0D30113961C930E93ED
:10104000129706C0F11006C059CF0E2D1F2D02C0F9
:101050000D2D1E2DC8010F90DF91CF911F910F9183
:10106000FF90EF90DF90CF90BF90AF909F908F90C8
:101070007F906F900895CF93DF93EC0186EF92E01D
:101080000E94270683309105E9F0059711F54091FC
:101090000D0350E060E070E02AE082E891E00E94F9
:1010A0004A0390910D03933039F09A3041F0923019
:1010B00081F481E090E00FC082E090E00CC083E01A
:1010C00090E009C080910D03823019F484E090E033
:1010D00002C080E090E021E030E039832883DF9196
:1010E000CF910895CF92DF92EF92FF920F931F93CB
:1010F000CF93DF937C016C0187E0C80ED11CC0E068
:10110000D0E0062F10E0B8010C2E02C0759567954F
:101110000A94E2F76170F60181916F010E94BD04AB
:101120002196C430D10579F7C701DF91CF911F9186
:101130000F91FF90EF90DF90CF900C94ED04CF9241
:10114000DF92EF92FF920F931F93CF93DF93EC0107
:10115000F62E642F8C810E94BD048D818F3F19F083
:1011600060E00E94BD048F850F2D10E084FF25C034
:101170006E0187E0C80ED11CE12CF12CB8010E2CB9
:1011800002C0759567950A94E2F76170F601819146
:101190006F010E94BD04FFEFEF1AFF0A88E0E81616
:1011A000F10461F7CE01DF91CF911F910F91FF9074
:1011B000EF90DF90CF900C94ED04B80184E075952A
:1011C00067958A95E1F7CE010E9472086F2DCE01D6
:1011D000DF91CF911F910F91FF90EF90DF90CF9013
:1011E0000C94720841E00E949F0881E090E008950D
:1011F00040E00C949F0861E00E94F8088BE39FE1B7
:101200000197F1F70895CF93DF93EB0181309105BA
:1012100099F104F5892B09F049C044E064E18FE1BC
:1012200092E00E94F1138FE192E00E94FB0860912E
:101230002F026D7F60932F0268608FE192E00E9421
:10124000F80844E150E060E270E084E691E00E943A
:1012500088182CC082309105A1F0039739F561E020
:101260008FE192E00E94E11364E671E08FE192E089
:101270000E94350361E011C08FE192E00E94FB08FB
:1012800015C060E08FE192E00E94E11364E671E036
:101290008FE192E00E94350360E08FE192E00E94CE
:1012A000E113BE018FE192E00E94350381E0DF91FE
:1012B000CF9108952F923F924F925F926F927F92BB
:1012C0008F929F92AF92BF92CF92DF92EF92FF9256
:1012D0000F931F93CF93DF9300D000D0CDB7DEB72D
:1012E0005C019E2C70E0615071091B01280E391EB3
:1012F000DA01C9018827B7FD83959927AA27BB275B
:10130000882E882341F0CC24DD247601C21AD30A2A
:10131000E40AF50A02C069017A01A114B10409F4D2
:101320004EC0D1011C92802F90E0A0E0B0E08983F4
:101330009A83AB83BC83C701B60129813A814B8173
:101340005C810E94221829013A0169817A818B818E
:101350009C810E94531897018601061B170B280BCE
:10136000390BB901A8010A3011052105310518F41E
:10137000F10180E30BC0D901C8010A97A109B109A5
:101380000697A105B10528F4F10187E3840F829344
:101390001F01411451046104710431F073016201B1
:1013A0002A143B0441F606C0C1012A143B0451F43F
:1013B000882019F083E2D5018C93C50117C080E025
:1013C00090E014C0882039F011E0211A3108FC01A6
:1013D00031972DE22083F101EA15FB0571F391109D
:1013E00002C080E201C080E38293F6CF0F900F909D
:1013F0000F900F90DF91CF911F910F91FF90EF9081
:10140000DF90CF90BF90AF909F908F907F906F9024
:101410005F904F903F902F900895FC01892B79F0B9
:101420008491811101C0089580E094919C3719F452
:101430008F5F3196FACF9111FCCF8F5F089580E0D6
:101440000895EF92FF920F931F93CF93DF93EC01D8
:1014500081E0888F9B8D8C8D981305C0E889F98970
:10146000808185FD24C0F62E0B8D10E00F5F1F4F8D
:101470000F731127E02E8C8DE8120CC00FB607FCFD
:10148000FACFE889F989808185FFF5CFCE010E94E6
:101490002204F1CF8B8DFE01E80FF11DE35AFF4FBF
:1014A000F0820B8FEA89FB898081806207C0EE8918
:1014B000FF896083E889F98980818064808381E085
:1014C00090E0DF91CF911F910F91FF90EF900895E1
:1014D0002F923F924F925F926F927F928F929F9244
:1014E000AF92BF92CF92DF92EF920F931F93CF9361
:1014F000DF9300D0CDB7DEB76B01142F4DB75EB7C9
:101500005A8349838130910509F452C01CF4892B18
:1015100021F108C28230910509F4BDC0039709F09A
:1015200001C2E0914D02F0914E0280914F029091E4
:101530005002A0915102B091520280839183A28304
:10154000B383809153028483DB015296ED91FC9129
:10155000539760E08C910995E7C1DB015296ED91BC
:10156000FC91539761E08C91099590934E02809382
:101570004D02009709F4D8C1FC014081518162817C
:10158000738140934F0250935002609351027093C5
:10159000520284818E3E0CF48EEE80935302809131
:1015A000530283310CF4E8C082E180935302E4C01B
:1015B000DB015F968C91829FA001839F500D1124C7
:1015C00080914F0290915002A0915102B09152022D
:1015D000BC01CD01640F751F811D911D0091530247
:1015E000F601B68C6034F2E47F07FFE08F079105C7
:1015F00014F50B1574F0D6015A964D905D906D90D0
:101600007C905D970B110EC06415750586059705D6
:101610004CF460934F027093500280935102909368
:101620005202AAC040924F02509250026092510260
:1016300070925202A1C028EE33E040E050E00E94D8
:10164000F81720934F023093500240935102509369
:1016500052020D5F00935302B0166CF00B118CC058
:10166000F601828D938DA48DB58D82179307A40703
:10167000B5070CF081C0F601828D938DA48DB58DD8
:1016800080934F0290935002A0935102B093520264
:10169000B092530271C0DB015F964C91429FC00132
:1016A000439F900D112440914F0250915002609140
:1016B0005102709152029A01AB01281B390B41096A
:1016C000510900915302283EB3E03B074105510503
:1016D0000CF1F601618D60175CF085899689A78908
:1016E000B08D06130EC082179307A407B5074CF4FC
:1016F00020934F0230935002409351025093520274
:101700003BC080934F0290935002A0935102B0933C
:10171000520232C0A8EEB3E00E94171860934F0245
:10172000709350028093510290935202EDEFE00FBC
:10173000E0935302D60159962C915997E2176CF019
:10174000E2131AC055968D909D90AD90BC9058971D
:10175000681579058A059B057CF4F601458956894B
:101760006789708D40934F025093500260935102ED
:1017700070935202209353022DB63EB6D6011196B5
:10178000FD0101900020E9F731975F01AA1ABB0A19
:10179000F60180A191A10E94EF17D60154962C91D9
:1017A00030E02B5F3F4FA20EB31E8A0D9B1DEDB79D
:1017B000FEB7E81BF90B0FB6F894FEBF0FBEEDBFE6
:1017C0002DB73EB72F5F3F4F5901B601C9010E94A7
:1017D0003A15D5010D900020E9F74D0160914F02B7
:1017E00070915002809151029091520228EE422E47
:1017F00023E0522E612C712CA30192010E94F81754
:10180000F60164896350E12C0AE0C40101970E944B
:101810005A09F50101900020E9F71082F5010190C5
:101820000020E9F731978EE28083F50101900020D6
:10183000E9F731974F018A189B0860914F02709128
:1018400050028091510290915202A30192010E9494
:10185000F8179B01AC0197FF07C050954095309554
:1018600021953F4F4F4F5F4FEE24E3940AE064E031
:10187000C501880D991D0E945A096CE171E0C501EE
:101880000E948F18F50101900020E9F71082D50120
:101890000D900020E9F7E1E0F1E001900020E9F788
:1018A0003197E150F1401197F695E79580915302F9
:1018B00063E00E946318EF5FFE4FE80FF11D87FDA4
:1018C000FA9580818C93D60190966D917C91919739
:1018D000C5010E94E417E0913902F0913A02B50186
:1018E00083E090E009951123C1F080914F0290911F
:1018F0005002A0915102B0915202E0914D02F0913C
:101900004E0280839183A283B383D6015296ED91D8
:10191000FC91539760E08C9109950FB6F8943EBE08
:101920000FBE2DBE80E001C081E0E981FA810FB6D3
:10193000F894FEBF0FBEEDBF0F900F90DF91CF91D7
:101940001F910F91EF90DF90CF90BF90AF909F903D
:101950008F907F906F905F904F903F902F90089561
:101960002F923F924F925F926F927F928F929F92AF
:10197000AF92BF92CF92DF92EF920F931F93CF93CC
:10198000DF9300D0CDB7DEB76B01142F4DB75EB734
:101990005A83498381309105C9F11CF4892B09F1DF
:1019A00026C18230910509F450C0039709F01FC188
:1019B00080914F0290915002A0915102B091520239
:1019C000E0914D02F0914E0280839183A283B38314
:1019D000DB015296ED91FC91539760E08C91099553
:1019E00008C1DB015296ED91FC91539761E08C9117
:1019F000099590934E0280934D02009709F4F9C027
:101A0000FC0180819181A281B3813DC0DB015F96A1
:101A10008C91829FA001839F500D112480914F02D1
:101A200090915002A0915102B0915202840F951FE3
:101A3000A11DB11DFB01428D538D648D758D8417E1
:101A40009507A607B70744F51EC0DB015F968C918A
:101A5000829FA001839F500D112480914F0290918D
:101A60005002A0915102B0915202841B950BA10922
:101A7000B109FB01458956896789708D4817590757
:101A80006A077B074CF480934F0290935002A09317
:101A90005102B093520208C040934F02509350023B
:101AA00060935102709352022DB63EB6D601119644
:101AB000FD0101900020E9F73197EA1BFB0BD601ED
:101AC00054968C9190E00496E80FF91F2DB73EB71D
:101AD0002E1B3F0B0FB6F8943EBF0FBE2DBF4DB768
:101AE0005EB74F5F5F4F5A01B601CA010E943A15B7
:101AF000D5010D900020E9F74D0160914F027091E2
:101B00005002809151029091520224E6422E512CB3
:101B1000612C712CA30192010E94F817F6016489CF
:101B20006250E12C0AE0C40101970E945A09F501B4
:101B300001900020E9F71082F50101900020E9F7FB
:101B400031978EE28083F50101900020E9F731970B
:101B50004F018A189B0860914F027091500280914A
:101B6000510290915202A30192010E94F8179B0129
:101B7000AC0197FF07C050954095309521953F4F98
:101B80004F4F5F4FEE24E3940AE063E0C501880DF8
:101B9000991D0E945A096CE171E0C5010E948F18DD
:101BA000E0913902F0913A02B50183E090E00995A5
:101BB0001123C1F080914F0290915002A0915102E7
:101BC000B0915202E0914D02F0914E0280839183D8
:101BD000A283B383D6015296ED91FC91539760E0B6
:101BE0008C9109950FB6F8943EBE0FBE2DBE80E0D5
:101BF00001C081E029813A810FB6F8943EBF0FBE43
:101C00002DBF0F900F90DF91CF911F910F91EF900B
:101C1000DF90CF90BF90AF909F908F907F906F900C
:101C20005F904F903F902F9008956F927F928F9288
:101C30009F92AF92BF92CF92DF92EF920F931F933A
:101C4000CF93DF93CDB7DEB76B01142FADB6BEB621
:101C500081309105C9F11CF4892B09F1DAC0823079
:101C6000910509F448C0039709F0D3C080914F0251
:101C700090915002A0915102B0915202E0914D0218
:101C8000F0914E0280839183A283B383DB0152964D
:101C9000ED91FC91539760E08C910995BCC0DB01FC
:101CA0005296ED91FC91539761E08C910995909338
:101CB0004E0280934D02009709F4ADC0FC01808173
:101CC0009181A281B3812DC080914F0290915002E9
:101CD000A0915102B0915202820F931FA11DB11D1C
:101CE000FB01428D538D648D758D84179507A60772
:101CF000B70704F516C080914F0290915002A09151
:101D00005102B0915202821B930BA109B109FB0150
:101D1000458956896789708D481759076A077B0777
:101D20004CF480934F0290935002A0935102B093D1
:101D3000520208C040934F025093500260935102E8
:101D4000709352028DB69EB6D6011196FD01019098
:101D50000020E9F73197EA1BFB0BD60154968C91D2
:101D600090E00496E80FF91F8DB79EB78E1B9F0B6E
:101D70000FB6F8949EBF0FBE8DBFADB7BEB711961C
:101D80003D01B601CD010E943A15F30101900020FA
:101D9000E9F7CF0120914F0230915002409151025A
:101DA00050915202D60154966C9154976F5FE12C7A
:101DB0005F960C9101970E945A096CE171E0C30192
:101DC0000E948F18E0913902F0913A02B30183E04A
:101DD00090E009951123C1F080914F02909150023B
:101DE000A0915102B0915202E0914D02F0914E0249
:101DF00080839183A283B383D6015296ED91FC91A7
:101E0000539760E08C9109950FB6F8949EBE0FBE73
:101E10008DBE80E001C081E00FB6F894BEBE0FBE5B
:101E2000ADBEDF91CF911F910F91EF90DF90CF90DA
:101E3000BF90AF909F908F907F906F9008959F92EA
:101E4000AF92BF92CF92DF92EF92FF920F931F93C8
:101E5000CF93DF93CDB7DEB78B01942EEDB6FEB6F0
:101E60008330910534F481309105A4F5892BE9F094
:101E7000AAC0039709F0A7C080914F029091500229
:101E8000A0915102B0915202E0914D02F0914E02A8
:101E900080839183A283B383DB015296ED91FC9101
:101EA000539760E08C91099590C0DB015296ED91BB
:101EB000FC91539761E08C91099590934E02809329
:101EC0004D02009709F481C0FC0180819181A281BB
:101ED000B38113C081E090E0A0E0B0E040914F02F8
:101EE000509150026091510270915202452B462B45
:101EF000472B19F080E090E0DC0180934F02909333
:101F00005002A0935102B0935202CDB6DEB6F80152
:101F10003196DF010D900020E9F7CD018E1B9F0B5C
:101F20000496EDB7FEB7E81BF90B0FB6F894FEBFA9
:101F30000FBEEDBF2DB73EB72F5F3F4F5901B80120
:101F4000C9010E943A1580914F0290915002A091D0
:101F50005102B0915202892B8A2B8B2B19F466E126
:101F600071E002C068E171E0C5010E948F186CE168
:101F700071E0C5010E948F18E0913902F0913A0298
:101F8000B50183E090E009959920C1F080914F025E
:101F900090915002A0915102B0915202E0914D02F5
:101FA000F0914E0280839183A283B383D80152962D
:101FB000ED91FC91539760E08C9109950FB6F894E0
:101FC000DEBE0FBECDBE80E001C081E00FB6F8944A
:101FD000FEBE0FBEEDBEDF91CF911F910F91FF901E
:101FE000EF90DF90CF90BF90AF909F9008952F9289
:101FF0003F924F925F926F927F928F929F92AF9299
:10200000BF92CF92DF92EF92FF920F931F93CF93E5
:10201000DF93CDB7DEB78B01542E2DB63EB681309F
:10202000910509F48FC01CF4892B09F12FC182306E
:10203000910509F456C0039709F028C180914F0219
:1020400090915002A0915102B0915202E0914D0244
:10205000F0914E0280839183A283B383DB01529679
:10206000ED91FC91539760E08C9109959BC0DB0149
:1020700090968D919C9191970E940D0AF82E88233D
:1020800009F490C0D8015296ED91FC91539761E00C
:102090008C91099590934E0280934D02009709F41C
:1020A00081C0FC01408151816281738140934F0264
:1020B0005093500260935102709352028F2D90E022
:1020C000A0E0B0E0481759076A077B070CF46CC022
:1020D00010924F021092500210925102109252022E
:1020E00063C0DB0190968D919C9191970E940D0A9F
:1020F00040914F02509150026091510270915202F2
:1021000014161506160617062CF4415051096109DC
:10211000710934C0452B462B472B09F0B7C090916D
:102120004C0292FFB3C090E00197092E000CAA0B5D
:10213000BB0B80934F0290935002A0935102B09337
:10214000520232C0FB0180A191A10E940D0A409170
:102150004F0250915002609151027091520290E0F2
:102160000197092E000CAA0BBB0B481759076A07E9
:102170007B076CF44F5F5F4F6F4F7F4F40934F0271
:102180005093500260935102709352020DC0481751
:1021900059076A077B0709F079C080914C0282FDDC
:1021A00097CF74C081E0ABC08DB69EB6F80184892C
:1021B00090E06C01FFEFCF1ADF0A2DB73EB72C1964
:1021C0003D090FB6F8943EBF0FBE2DBFADB7BEB7E9
:1021D00011963D01D8011196FD0101900020E9F70B
:1021E0003197EA1BFB0B0596E80FF91F2E1B3F0BDF
:1021F0000FB6F8943EBF0FBE2DBF8DB79EB70196A8
:102200005C01B8010E943A1540904F02D8019096A7
:10221000ED90FC909197DD24A60160E070E0C30191
:102220000E948818E114F10409F03DC0B301C50112
:102230000E948F186CE171E0C5010E948F18E09137
:102240003902F0913A02B50183E090E009955520FA
:10225000C1F080914F0290915002A0915102B09133
:102260005202E0914D02F0914E0280839183A2834D
:10227000B383D8015296ED91FC91539760E08C9115
:1022800009950FB6F8949EBE0FBE8DBE80E037C094
:10229000EC3741F0BFEFEB1AFB0AF7013197E491FD
:1022A000E111F6CF4A944110F5CF462DD301E1E07C
:1022B000CE1AD108CD012A2F241B30E02C153D0564
:1022C0007CF4F70124912C3711F02C9301C01C925F
:1022D0001196FFEFEF1AFF0AFC0120812111EACFCE
:1022E000DC0180E2F30101900020E9F73197E61963
:1022F000F709EC15FD0508F099CF8D93F3CF0FB6D4
:10230000F8943EBE0FBE2DBEDF91CF911F910F916D
:10231000FF90EF90DF90CF90BF90AF909F908F9005
:102320007F906F905F904F903F902F900895CF9344
:10233000DF93D82FC0E090914002C917A8F46091B4
:1023400041027091420282E2C89F600D711D11240A
:1023500042E250E089EA92E00E94DB178091A902F4
:102360008D1729F0CF5FE7CF80E090E002C089EAC7
:1023700092E0DF91CF910895AF92BF92CF92DF921A
:10238000EF92FF920F931F93CF93DF93CDB7DEB7FA
:1023900067970FB6F894DEBF0FBECDBFEDB6FEB6A1
:1023A0008823A1F1E0913902F0913A0260E070E0F7
:1023B00081E090E009956091540215E1169FB0010B
:1023C00011246A5A7D4FE0913902F0913A0282E07D
:1023D00090E00995E09154021E9FF0011124E95C00
:1023E000FD4F82A9811102C080A982AB80914C026D
:1023F000816080934C020E94900560934402709328
:102400004502809346029093470282C181E090E0AA
:102410009F8B8E8BE0913702F0913802CE01469669
:1024200009958C01892B51F00E949005609344021C
:102430007093450280934602909347020230110543
:1024400089F03CF40130110509F0A5C110E005E167
:1024500043C00330110509F44FC00430110509F4DD
:1024600046C199C110E005E18091540290E0089FB7
:10247000F001099FF00D1124E95CFD4F22A930A95C
:10248000321714F4215005C020914C0222FF03C0E2
:1024900021A922AB11E0089FF001099FF00D112442
:1024A000E95CFD4F82A90E949014892BE9F22DC1AD
:1024B00020914C0222FF03C020A922AB11E0089F0B
:1024C000F001099FF00D1124E95CFD4F82A90E94E3
:1024D0009014892B09F019C18091540290E0089F53
:1024E000F001099FF00D1124E95CFD4F22A931A9EB
:1024F0002317F4F62F5FE1CFE091540215E11E9F00
:10250000F0011124E95CFD4F82A90E949014FC01A6
:1025100080899189009729F097FD3DC10397ECF1DF
:102520003AC190915402933008F035C19F5F909367
:10253000540202890F3F11F410E019C010E080919D
:102540003D021817C8F760913B0270913C0225E1EB
:10255000129F600D711D112445E150E0CE010196DE
:102560000E94DB178981801711F01F5FE8CF60910F
:102570003B0270913C0235E11302600D711D112484
:1025800080915402E5E18E9FC001112445E150E0A5
:102590008B5A9D4F0E94DB1730C082890E94971191
:1025A000892B09F4F8C0E0913902F0913A0260E019
:1025B00070E081E090E00995E09154021E9FF001E7
:1025C0001124E95CFD4F82A90E9490146C01BC01AA
:1025D0006F5F7F4FE0913902F0913A0282E090E024
:1025E0000995F60182890E9497118C01009749F4A0
:1025F00080914C028D7F80934C0281E00E94BC113F
:10260000CAC0FC0182899389892B91F380914C0285
:10261000826080934C020E94900560934402709304
:1026200045028093460290934702F8018089918980
:102630008230910561F12CF4009779F00197D1F087
:10264000AAC08430910509F440C084F1059709F0CF
:10265000A2C0C8010E94B51446C041E0F6018089BD
:102660009189029709F040E0B80180E090E00E9473
:10267000F70F39C041E0F60180899189029709F08E
:1026800040E0B80180E090E00E941F0F2CC041E0C4
:10269000F60180899189029709F040E021E030E05D
:1026A000B80180E090E00E94150E1DC041E0F601E7
:1026B00080899189029709F040E021E030E0B8017B
:1026C00080E090E00E94B00C0EC041E0F6018089ED
:1026D0009189029709F040E021E030E0B80180E004
:1026E00090E00E94680A882309F455C081CF809148
:1026F0005402811106C080914C028E7F80934C025F
:102700004AC081508093540278CF112309F443C00A
:10271000E091540225E1E29FF0011124E95CFD4FB4
:1027200082A90E9490140097B1F1CDB6DEB68C015B
:102730000F5F1F4FF80101900020E9F7CF01801BC8
:10274000910B0296EDB7FEB7E81BF90B0FB6F894A4
:10275000FEBF0FBEEDBF2DB73EB72F5F3F4F5901F4
:1027600064E171E0C9010E949A18B801C5010E9494
:102770008F1862E171E0C5010E948F18E091390263
:10278000F0913A02B50183E090E009950FB6F89414
:10279000DEBE0FBECDBE0FB6F894FEBE0FBEEDBEC0
:1027A00067960FB6F894DEBF0FBECDBFDF91CF9115
:1027B0001F910F91FF90EF90DF90CF90BF90AF905F
:1027C0000895643008F063E0FC012389621710F07B
:1027D0006FEF620FFC01E60FF11D648960680C94D5
:1027E000F808EF92FF920F931F93CF93DF93EC01C2
:1027F000423018F08F8588608F874B8B1C8A80E46D
:102800008D8B6E8B70E0605C7F4F6F8B61E08C8195
:102810000E9433058D818F3F19F061E00E943305DE
:1028200061E08E810E9433057E0187E0E80EF11C95
:1028300000E010E08F8584FD03C084E090E002C0DA
:1028400088E090E0081719074CF461E0F7018191E6
:102850007F010E9433050F5F1F4FECCF8BE39DE09C
:102860000197F1F760E08C810E94BD0460E08E81E9
:102870000E94BD048D818F3F19F060E00E94BD046D
:102880006F8564FD1DC063E0CE010E9472080BE4F9
:1028900016E4C8010197F1F763E0CE010E947208C7
:1028A000C8010197F1F763E0CE010E94720883E549
:1028B00092E00197F1F762E0CE010E94720816C023
:1028C0006062CE010E94F8088BE496E40197F1F76C
:1028D0006F856062CE010E94F80883E592E001975F
:1028E000F1F76F856062CE010E94F8086F85606223
:1028F000CE010E94F80884E0888B6CE0CE010E9433
:10290000F808CE010E94FB0882E0898B66E0CE01C8
:10291000DF91CF911F910F91FF90EF900C94F808E9
:10292000CF93DF93D82FC0E090914002C917A8F44D
:1029300060913E0270913F0283E1C89F600D711D5E
:10294000112443E150E08BEC92E00E94DB17809170
:10295000CB028D1729F0CF5FE7CF80E090E002C077
:102960008BEC92E0DF91CF910895CF92DF92EF92BE
:10297000FF920F931F93CF93DF93CDB7DEB78C01F8
:10298000CDB6DEB6DC015296ED91FC91539761E035
:102990008C9109957C0190934E0280934D02009793
:1029A00051F50F5F1F4FF80101900020E9F7CF01AB
:1029B000801B910B03962DB73EB7281B390B0FB622
:1029C000F8943EBF0FBE2DBF8DB79EB701967C0118
:1029D0006EE171E00E949A18B801C7010E948F1839
:1029E0006CE171E0C7010E948F18E0913902F0910B
:1029F0003A02B70128C0FC0101900020E9F7CF019D
:102A00008E199F090396ADB7BEB7A81BB90B0FB6B9
:102A1000F894BEBF0FBEADBF0DB71EB70F5F1F4FFF
:102A20006EE171E0C8010E949A18B701C8010E94C6
:102A30008F186CE171E0C8010E948F18E091390293
:102A4000F0913A02B80183E090E009950FB6F8944E
:102A5000DEBE0FBECDBE80E00FB6F894DEBE0FBE68
:102A6000CDBEDF91CF911F910F91FF90EF90DF903E
:102A7000CF900895CF93DF93EC016F5F7F4F0E945B
:102A80009A186AE171E0CE010E948F186EE171E040
:102A9000CE01DF91CF910C948F18CF93DF9300D0AC
:102AA000CDB7DEB7789484B5826084BD84B581608B
:102AB00084BD85B5826085BD85B5816085BD809109
:102AC0006E00816080936E00109281008091810081
:102AD0008260809381008091810081608093810079
:102AE000809180008160809380008091B10084603B
:102AF0008093B1008091B00081608093B00080919C
:102B00007A00846080937A0080917A00826080935A
:102B10007A0080917A00816080937A0080917A00B7
:102B2000806880937A001092C10044E064E18EEDE9
:102B300092E00E94F11361E08DE00E94330560E0B5
:102B40008FE00E94330561E08EE00E94330561E072
:102B50008FE00E94330561E080E10E94330561E06F
:102B600081E10E94330560E070E080E090E00E9427
:102B7000030986EF92E00E946F05809100038E7F2B
:102B80008093000380914C028C6080934C0288E813
:102B900093E1A0E0B0E08093480290934902A093B3
:102BA0004A02B0934B0285E1D82E80910001882320
:102BB00021F080914C0280FF45C080914C02982FFB
:102BC00091709093000191110CC083FF38C0E09187
:102BD0003702F0913802CE0101960995039779F5F5
:102BE00038C081FFD0C081E090E09A838983E09172
:102BF0003702F0913802CE01019609958C0184309C
:102C0000910509F4B9C0892BA1F5809148029091F2
:102C10004902A0914A02B0914B02892B8A2B8B2B3F
:102C200009F0B5C080914C0280FD09C0E0913902E5
:102C3000F0913A0260E070E081E090E009950E9436
:102C4000A902B3CF69E571E08EED92E00E943503F1
:102C5000B4CF1092540260913B0270913C0245E166
:102C600050E085E592E00E94DB1781E00E94BC11F4
:102C7000E6CF0E94900560934402709345028093D2
:102C8000460290934702E0915402DE9EF001112427
:102C9000E95CFD4F82A90E9490147C01FC018289AD
:102CA0000E949711DC0150962D913C915197223052
:102CB000310549F13CF42115310569F02130310528
:102CC000B1F0A3CF24303105D1F15CF125303105CD
:102CD00009F443C09ACF41E0F701808991890297B6
:102CE00009F040E0BD01C8010E94F70F42C041E079
:102CF000F70180899189029709F040E0BD01C80180
:102D00000E941F0F36C029813A8141E0F701808976
:102D10009189029709F040E0BD01C8010E94150E9B
:102D200028C029813A8141E0F70180899189029781
:102D300009F040E0BD01C8010E94B00C1AC0298111
:102D40003A8141E0F70180899189029709F040E0DA
:102D5000BD01C8010E94680A0CC00330110509F0CA
:102D600054CF5296ED91FC91539760E08C91099568
:102D700003C0882309F449CF80914C028D7F809352
:102D80004C0281E001C080E00E94BC113ECF0E9455
:102D90009005009144021091450220914602309125
:102DA0004702DC01CB01801B910BA20BB30B0091FE
:102DB00048021091490220914A0230914B0280173B
:102DC0009107A207B30708F42DCF80914C028C7FA6
:102DD00080934C021092540225CF08959F92AF9297
:102DE000BF92CF92DF92EF92FF920F931F93CF93F8
:102DF000DF93E2E8F1E01382128288EE93E0A0E034
:102E0000B0E084839583A683B78384E291E09183C5
:102E1000808385EC90E09587848784EC90E09787A9
:102E2000868780EC90E0918B808B81EC90E0938B97
:102E3000828B82EC90E0958B848B86EC90E0978B74
:102E4000868B118E128E138E148EE5E1F3E01382C1
:102E5000128206E311E01183008388E0F82EF482E9
:102E600099249A94958299E0A92EA68224E0B22E04
:102E7000B78235E0C32EC08646E0D42ED18657E017
:102E8000E52EE2861386148615861686178641E09F
:102E900060E1CF010E94F113C6EFD2E082E491E03D
:102EA000998388831B821A821B868FEF9FEF998FED
:102EB000888F86E990E0988B8F878AEF90E09A8BD5
:102EC000898B8A8528E532E03C8B2B8B2CE231E024
:102ED0003E8B2D8B877F87608A8741E060E0CE0143
:102EE0000E94E6051B821A821D821C828CE491E0FE
:102EF000998388838FE091E09C8F8B8F83E08D8F07
:102F00001E8EEFE1F2E01382128211830083F482BD
:102F10009582A682B782C086D186E2861386148601
:102F200015861686178641E060E1CF010E94F113F5
:102F3000EEEDF2E01382128211830083F482958217
:102F4000A682B782C086D186E2861386148615864D
:102F50001686178641E060E1CF010E94F113E7E396
:102F6000F2E084EC93E095838483F68288E492E037
:102F70009087878384E1818782ED90E093878287C1
:102F80008BE08487118A128A138A148A158A8BE34C
:102F900098E09183808383E099E093838283DF913B
:102FA000CF911F910F91FF90EF90DF90CF90BF9046
:102FB000AF909F900895FB01DC0102C005900D9237
:102FC00041505040D8F70895FB01DC010D900020DE
:102FD000E9F7119705900D920020E1F70895FC01A3
:102FE00005900020E9F7809590958E0F9F1F08951A
:102FF000052E97FB1EF400940E940F1857FD07D072
:103000000E94221807FC03D04EF40C940F18509520
:103010004095309521953F4F4F4F5F4F08959095C4
:103020008095709561957F4F8F4F9F4F08950E94B7
:103030004418A59F900DB49F900DA49F800D911DE5
:1030400011240895A1E21A2EAA1BBB1BFD010DC07D
:10305000AA1FBB1FEE1FFF1FA217B307E407F50748
:1030600020F0A21BB30BE40BF50B661F771F881F24
:10307000991F1A9469F760957095809590959B01BA
:10308000AC01BD01CF010895A29FB001B39FC00163
:10309000A39F700D811D1124911DB29F700D811D84
:1030A0001124911D0895DB018F939F930E9417189F
:1030B000BF91AF91A29F800D911DA39F900DB29FD4
:1030C000900D1124089587FB082E062687FD819513
:1030D00067FD61950E9477180EF4919507FC819524
:1030E0000895EE0FFF1F0590F491E02D0994991BB0
:1030F00079E004C0991F961708F0961B881F7A95EF
:10310000C9F78095089581E090E0F8940C94A11897
:10311000DC0101C06D9341505040E0F70895FB0180
:10312000DC010D900020E9F7119701900D9200202D
:10313000E1F70895FB01DC0101900D920020E1F719
:10314000089512E0C7E3D2E004C0FE010E947118A6
:0C3150002196C833D107C9F7F894FFCFCF
:10315C00016166706E756D206B4D475450450002D1
:10316C00030A3E003C004E0059003A005D005B0033
:10317C0000000000210AB3026202430493027102B0
:10318C00850200000000F208B3022D032C0300009E
:10319C000000330333033003000000006F052706E3
:1031AC00300320202020202000434F525249454E0E
:0431BC00444F00007C
:107E0000112484B714BE81FFF0D085E080938100F7
:107E100082E08093C00088E18093C10086E0809377
:107E2000C20080E18093C4008EE0C9D0259A86E02C
:107E300020E33CEF91E0309385002093840096BBD3
:107E4000B09BFECF1D9AA8958150A9F7CC24DD24C4
:107E500088248394B5E0AB2EA1E19A2EF3E0BF2EE7
:107E6000A2D0813461F49FD0082FAFD0023811F036
:107E7000013811F484E001C083E08DD089C08234E0
:107E800011F484E103C0853419F485E0A6D080C0E4
:107E9000853579F488D0E82EFF2485D0082F10E0AE
:107EA000102F00270E291F29000F111F8ED06801E7
:107EB0006FC0863521F484E090D080E0DECF843638
:107EC00009F040C070D06FD0082F6DD080E0C81688
:107ED00080E7D80618F4F601B7BEE895C0E0D1E017
:107EE00062D089930C17E1F7F0E0CF16F0E7DF06D8
:107EF00018F0F601B7BEE89568D007B600FCFDCFD4
:107F0000A601A0E0B1E02C9130E011968C91119780
:107F100090E0982F8827822B932B1296FA010C0160
:107F200087BEE89511244E5F5F4FF1E0A038BF0790
:107F300051F7F601A7BEE89507B600FCFDCF97BE46
:107F4000E89526C08437B1F42ED02DD0F82E2BD052
:107F50003CD0F601EF2C8F010F5F1F4F84911BD097
:107F6000EA94F801C1F70894C11CD11CFA94CF0C13
:107F7000D11C0EC0853739F428D08EE10CD085E9AC
:107F80000AD08FE07ACF813511F488E018D01DD067
:107F900080E101D065CF982F8091C00085FFFCCF94
:107FA0009093C60008958091C00087FFFCCF809118
:107FB000C00084FD01C0A8958091C6000895E0E648
:107FC000F0E098E1908380830895EDDF803219F02E
:107FD00088E0F5DFFFCF84E1DECF1F93182FE3DFCA
:107FE0001150E9F7F2DF1F91089580E0E8DFEE27F6
:047FF000FF270994CA
:027FFE00040479
:0400000300007E007B
:00000001FF
