:1000000005C3000034C3000032C3000030C3000049
:100010002EC300002CC300002AC3000028C3000028
:1000200026C3000024C3000022C3000020C3000038
:100030001EC300001CC300001AC3000018C3000048
:1000400016C3000014C3000012C3000010C3000058
:100050000EC300000CC300000AC300000C9426105D
:1000600006C300000C94750E0C944C0E00C30000E7
:10007000FEC20000FCC20000FAC20000F8C200008C
:10008000F6C20000F4C20000F2C20000F0C200009C
:10009000EEC20000ECC20000EAC20000E8C20000AC
:1000A000E6C20000E4C20000E2C20000E0C20000BC
:1000B000DEC20000DCC20000DAC20000D8C20000CC
:1000C000D6C20000D4C20000D2C20000D0C20000DC
:1000D000CEC20000CCC20000CAC20000C8C20000EC
:1000E000C6C20000C60EC90EB80EBC0EC20E000F6E
:1000F000CD0ED10ED70EDB0EDF0EE50EE90EED0EA6
:10010000000FF30EF70EFB0ED50FD70FD90FDB0F35
:10011000DD0FE00FE30FE60F0000210024002700B1
:100120002A002D0030003300010100000401070106
:100130000A0100002200250028002B002E003100BB
:10014000340002010000050108010B010505050549
:10015000070508080808020202020A0A080804043F
:10016000040401010101010101010303030303036D
:100170000303040707070C0C0C0C0C0C0C0C0202FC
:10018000020206060606060606060B0B0B0B0B0BF9
:100190000B0B010210202008081020401020408086
:1001A000020102010804020101020408102040803B
:1001B00080402010080402018004020180402010C9
:1001C0000804020108040201010204081020408012
:1001D000010204081020408000000A0B02090C0DE7
:1001E0000E080703040100000000000000000000EA
:1001F00000000000000000000000000000000000FF
:1002000000000000121110000000000000000000BB
:1002100000000000000000000000000000000000DE
:1002200020002300260029002C002F0032000001AE
:1002300000000301060109010A4C454F4646000033
:1002400000000000000000000500EC0F00000000AE
:10025000000000000000000000000B4C454F4E0065
:10026000000000000000000000000500EC0F00008E
:100270000000000000000000000000000C563120CB
:10028000454E430000000000000000000500C50FBF
:1002900000000000000000000000000000000D56FB
:1002A0003120454E43000000000000000000050022
:1002B000C50F00000000000000000000000000006A
:1002C0000E563120454E43000000000000000000A3
:1002D0000500C50F00000000000000000000000045
:1002E00000000F563120454E430000000000000082
:1002F00000000500C50F0000000000000000000025
:1003000000000000105631204F464600000000005B
:10031000000000000500C50F000000000000000004
:10032000000000000000115631204F46460000003A
:100330000000000000000500C50F000000000000E4
:100340000000000000000000125631204F46460019
:1003500000000000000000000500C50F00000000C4
:1003600000000000000000000000135631204F463E
:10037000460000000000000000000500C50F00005E
:100380000000000000000000000000001450505465
:1003900000000000000000000000000002006814DF
:1003A00000000000000000000000000000001550E8
:1003B0005054000000000000000000000000020097
:1003C00079130000000000000000000000000000A1
:1003D0000A4D656E75204C65640000000000000049
:1003E00000000D0B496E74656772616E7465730071
:1003F00000000000000E0C416E616C6F6769636F56
:1004000000000000000000000C0D444F4D4F544907
:1004100043410000000000000000000F3C524F422A
:100420004552544F205341554C00000000000E3DF2
:10043000524F4D414E53494C4C4F000000000000BC
:10044000000E3E494E472E205449544F00000000F4
:10045000000000000E46454E43454E44455220568E
:100460003100000000000010494150414741522036
:100470005631000000000000000011324170616739
:100480006172204C6564000000000001000A3345E1
:100490006E63656E646572204C6564000000010047
:1004A0000B28504F54454E43494F4D4554524F0031
:1004B000000100142954454D5045524154555241B4
:1004C0000000000001001550454E43454E44455282
:1004D0002056310000000001000C51454E43454EAE
:1004E0004445522056320000000001000D52454E96
:1004F00043454E4445522056330000000001000E93
:1005000053454E43454E44455220563400000000AA
:1005100001000F54415041474152202020563100E4
:100520000000000100105541504147415220202059
:10053000563200000000010011564150414741521F
:100540002020205633000000000100125741504186
:100550004741522020205634000000000100130AB9
:100560004D656E75205072696E636970616C000034
:10057000000A0D000B496E74656772616E746573D5
:100580000000000000001E1F000C532E416E616C25
:100590006F6769636F0000000000002829000F5694
:1005A000454E54494C41444F5200000000000000A9
:1005B0004649000D4C454453000000000000000077
:1005C00000000000003233000E4E4F4D42524553A2
:1005D000000000000000000000003C3E001056310A
:1005E0004F4E00000000000000000000000000501E
:1005F00053001156314F4646000000000000000035
:1006000000000000545700003819371911241FBE8C
:10061000CFEFD1E2DEBFCDBF00E00CBF12E0A0E023
:10062000B2E0EAE1FAE300E00BBF02C007900D92EE
:10063000A03EB107D9F724E0A0EEB2E001C01D92C0
:10064000A93AB207E1F713E0C5E0D3E000E006C045
:1006500021970109802FFE010E94CB1CC430D107D5
:1006600080E00807A9F70E9447170C94FC1CC8CC2F
:10067000FC01892B79F08491811101C0089580E0FB
:1006800094919C3719F48F5F3196FACF9111FCCF7A
:100690008F5F089580E00895EF92FF920F931F936C
:1006A000CF93DF93EC0181E0888F9B8D8C8D981325
:1006B00005C0E889F989808185FD24C0F62E0B8D5F
:1006C00010E00F5F1F4F0F731127E02E8C8DE81283
:1006D0000CC00FB607FCFACFE889F989808185FF45
:1006E000F5CFCE010E94AC0DF1CF8B8DFE01E80F4E
:1006F000F11DE35AFF4FF0820B8FEA89FB8980815D
:10070000806207C0EE89FF896083E889F98980816A
:100710008064808381E090E0DF91CF911F910F9101
:10072000FF90EF9008952F923F924F925F926F92B9
:100730007F928F929F92AF92BF92CF92DF92EF9271
:100740000F931F93CF93DF931F921F92CDB7DEB706
:100750006B01142F4DB75EB75A83498381309105E1
:1007600009F452C01CF4892B21F108C28230910592
:1007700009F4BDC0039709F001C2E091C903F091EB
:10078000CA038091CB039091CC03A091CD03B0918B
:10079000CE0380839183A283B3838091CF0384832C
:1007A000DB015296ED91FC91539760E08C91199585
:1007B000E7C1DB015296ED91FC91539761E08C917A
:1007C00019959093CA038093C903009709F4D8C17F
:1007D000FC0140815181628173814093CB0350932E
:1007E000CC036093CD037093CE0384818E3E0CF4D2
:1007F0008EEE8093CF038091CF0383310CF4E8C059
:1008000082E18093CF03E4C0DB015F968C91829FED
:10081000A001839F500D11248091CB039091CC03B4
:10082000A091CD03B091CE03BC01CD01640F751F23
:10083000811D911D0091CF03F601B68C6034F2E466
:100840007F07FFE08F07910514F50B1574F0D601B3
:100850005A964D905D906D907C905D970B110EC0F7
:1008600064157505860597054CF46093CB0370936A
:10087000CC038093CD039093CE03AAC04092CB03C8
:100880005092CC036092CD037092CE03A1C028EEAB
:1008900033E040E050E00E943E1A2093CB033093B7
:1008A000CC034093CD035093CE030D5F0093CF0351
:1008B000B0166CF00B118CC0F601828D938DA48D57
:1008C000B58D82179307A407B5070CF081C0F60118
:1008D000828D938DA48DB58D8093CB039093CC03A3
:1008E000A093CD03B093CE03B092CF0371C0DB01D0
:1008F0005F964C91429FC001439F900D11244091FF
:10090000CB035091CC036091CD037091CE039A013B
:10091000AB01281B390B410951090091CF03283E37
:10092000B3E03B07410551050CF1F601618D6017FD
:100930005CF085899689A789B08D06130EC0821751
:100940009307A407B5074CF42093CB033093CC0353
:100950004093CD035093CE033BC08093CB03909341
:10096000CC03A093CD03B093CE0332C0A8EEB3E086
:100970000E945A1A6093CB037093CC038093CD03EB
:100980009093CE03EDEFE00FE093CF03D60159969D
:100990002C915997E2176CF0E2131AC055968D907E
:1009A0009D90AD90BC905897681579058A059B0578
:1009B0007CF4F601458956896789708D4093CB0395
:1009C0005093CC036093CD037093CE032093CF0359
:1009D0002DB63EB6D6011196FD0101900020E9F733
:1009E00031975F01AA1ABB0AF60180A191A10E946A
:1009F000351AD60154962C9130E02B5F3F4FA20E52
:100A0000B31E8A0D9B1DEDB7FEB7E81BF90B0FB6A1
:100A1000F894FEBF0FBEEDBF2DB73EB72F5F3F4F1F
:100A20005901B601C9010E943717D5010D90002068
:100A3000E9F74D016091CB037091CC038091CD0318
:100A40009091CE0328EE422E23E0522E612C712C81
:100A5000A30192010E943E1AF60164896350E12CC1
:100A60000AE0C40101970E941515F50101900020CC
:100A7000E9F71082F50101900020E9F731978EE245
:100A80008083F50101900020E9F731974F018A1822
:100A90009B086091CB037091CC038091CD03909122
:100AA000CE03A30192010E943E1A9B01AC0197FF65
:100AB00007C050954095309521953F4F4F4F5F4F60
:100AC000EE24E3940AE064E0C501880D991D0E94BC
:100AD00015156DE172E0C5010E94EA1CF501019057
:100AE0000020E9F71082D5010D900020E9F7E0E041
:100AF000F2E001900020E9F73197E050F2401197C1
:100B0000F695E7958091CF0363E00E94BE1CE0500C
:100B1000FE4FE80FF11D87FDFA9580818C93D60179
:100B200090966D917C919197C5010E942A1AE0914F
:100B3000B503F091B603B50183E090E01995112358
:100B4000C1F08091CB039091CC03A091CD03B091E3
:100B5000CE03E091C903F091CA0380839183A283FD
:100B6000B383D6015296ED91FC91539760E08C913E
:100B700019950FB6F8943EBE0FBE2DBE80E001C0A1
:100B800081E0E981FA810FB6F894FEBF0FBEEDBF98
:100B90000F900F90DF91CF911F910F91EF90DF9009
:100BA000CF90BF90AF909F908F907F906F905F900D
:100BB0004F903F902F9008952F923F924F925F92C7
:100BC0006F927F928F929F92AF92BF92CF92DF925D
:100BD000EF920F931F93CF93DF931F921F92CDB786
:100BE000DEB76B01142F4DB75EB75A83498381304E
:100BF0009105C9F11CF4892B09F126C182309105B8
:100C000009F450C0039709F01FC18091CB03909164
:100C1000CC03A091CD03B091CE03E091C903F09134
:100C2000CA0380839183A283B383DB015296ED9143
:100C3000FC91539760E08C91199508C1DB015296A5
:100C4000ED91FC91539761E08C9119959093CA03B3
:100C50008093C903009709F4F9C0FC018081918158
:100C6000A281B3813DC0DB015F968C91829FA00180
:100C7000839F500D11248091CB039091CC03A091C0
:100C8000CD03B091CE03840F951FA11DB11DFB01B3
:100C9000428D538D648D758D84179507A607B70710
:100CA00044F51EC0DB015F968C91829FA001839F5B
:100CB000500D11248091CB039091CC03A091CD03D2
:100CC000B091CE03841B950BA109B109FB014589A5
:100CD00056896789708D481759076A077B074CF456
:100CE0008093CB039093CC03A093CD03B093CE031A
:100CF00008C04093CB035093CC036093CD03709313
:100D0000CE032DB63EB6D6011196FD01019000200E
:100D1000E9F73197EA1BFB0BD60154968C9190E0D2
:100D20000496E80FF91F2DB73EB72E1B3F0B0FB6E9
:100D3000F8943EBF0FBE2DBF4DB75EB74F5F5F4FFC
:100D40005A01B601CA010E943717D5010D90002043
:100D5000E9F74D016091CB037091CC038091CD03F5
:100D60009091CE0324E6422E512C612C712CA301CC
:100D700092010E943E1AF60164896250E12C0AE059
:100D8000C40101970E941515F50101900020E9F7B3
:100D90001082F50101900020E9F731978EE28083FF
:100DA000F50101900020E9F731974F018A189B085F
:100DB0006091CB037091CC038091CD039091CE03D1
:100DC000A30192010E943E1A9B01AC0197FF07C04C
:100DD00050954095309521953F4F4F4F5F4FEE24F2
:100DE000E3940AE063E0C501880D991D0E94151582
:100DF0006DE172E0C5010E94EA1CE091B503F0913B
:100E0000B603B50183E090E019951123C1F08091FC
:100E1000CB039091CC03A091CD03B091CE03E09190
:100E2000C903F091CA0380839183A283B383D6015F
:100E30005296ED91FC91539760E08C9119950FB605
:100E4000F8943EBE0FBE2DBE80E001C081E0298136
:100E50003A810FB6F8943EBF0FBE2DBF0F900F9092
:100E6000DF91CF911F910F91EF90DF90CF90BF90C6
:100E7000AF909F908F907F906F905F904F903F903A
:100E80002F9008956F927F928F929F92AF92BF9210
:100E9000CF92DF92EF920F931F93CF93DF93CDB753
:100EA000DEB76B01142FADB6BEB681309105C9F126
:100EB0001CF4892B09F1DAC08230910509F448C08D
:100EC000039709F0D3C08091CB039091CC03A091FC
:100ED000CD03B091CE03E091C903F091CA038083A2
:100EE0009183A283B383DB015296ED91FC915397DA
:100EF00060E08C911995BCC0DB015296ED91FC919C
:100F0000539761E08C9119959093CA038093C9031C
:100F1000009709F4ADC0FC0180819181A281B38169
:100F20002DC08091CB039091CC03A091CD03B091C3
:100F3000CE03820F931FA11DB11DFB01428D538D66
:100F4000648D758D84179507A607B70704F516C03D
:100F50008091CB039091CC03A091CD03B091CE03AF
:100F6000821B930BA109B109FB0145895689678949
:100F7000708D481759076A077B074CF48093CB03A1
:100F80009093CC03A093CD03B093CE0308C04093BD
:100F9000CB035093CC036093CD037093CE038DB6F7
:100FA0009EB6D6011196FD0101900020E9F7319718
:100FB000EA1BFB0BD60154968C9190E00496E80F47
:100FC000F91F8DB79EB78E1B9F0B0FB6F8949EBF6F
:100FD0000FBE8DBFADB7BEB711963D01B601CD01B5
:100FE0000E943717F30101900020E9F7CF0120910B
:100FF000CB033091CC034091CD035091CE03D60169
:1010000054966C9154976F5FE12C5F960C91019709
:101010000E9415156DE172E0C3010E94EA1CE09187
:10102000B503F091B603B30183E090E01995112365
:10103000C1F08091CB039091CC03A091CD03B091EE
:10104000CE03E091C903F091CA0380839183A28308
:10105000B383D6015296ED91FC91539760E08C9149
:1010600019950FB6F8949EBE0FBE8DBE80E001C0EC
:1010700081E00FB6F894BEBE0FBEADBEDF91CF913A
:101080001F910F91EF90DF90CF90BF90AF909F9006
:101090008F907F906F9008959F92AF92BF92CF9262
:1010A000DF92EF92FF920F931F93CF93DF93CDB711
:1010B000DEB78B01942EEDB6FEB68330910534F485
:1010C00081309105A4F5892BE9F0AAC0039709F0B6
:1010D000A7C08091CB039091CC03A091CD03B09198
:1010E000CE03E091C903F091CA0380839183A28368
:1010F000B383DB015296ED91FC91539760E08C91A4
:10110000199590C0DB015296ED91FC91539761E0E7
:101110008C9119959093CA038093C903009709F4A1
:1011200081C0FC0180819181A281B38113C081E0E3
:1011300090E0A0E0B0E04091CB035091CC036091EF
:10114000CD037091CE03452B462B472B19F080E041
:1011500090E0DC018093CB039093CC03A093CD036C
:10116000B093CE03CDB6DEB6F8013196DF010D9017
:101170000020E9F7CD018E1B9F0B0496EDB7FEB75B
:10118000E81BF90B0FB6F894FEBF0FBEEDBF2DB7ED
:101190003EB72F5F3F4F5901B801C9010E94371771
:1011A0008091CB039091CC03A091CD03B091CE035D
:1011B000892B8A2B8B2B19F467E172E002C069E15D
:1011C00072E0C5010E94EA1C6DE172E0C5010E9457
:1011D000EA1CE091B503F091B603B50183E090E01D
:1011E00019959920C1F08091CB039091CC03A091E7
:1011F000CD03B091CE03E091C903F091CA0380837F
:101200009183A283B383D8015296ED91FC915397B9
:1012100060E08C9119950FB6F894DEBE0FBECDBE7E
:1012200080E001C081E00FB6F894FEBE0FBEEDBEB7
:10123000DF91CF911F910F91FF90EF90DF90CF90B2
:10124000BF90AF909F9008952F923F924F925F92E0
:101250006F927F928F929F92AF92BF92CF92DF92C6
:10126000EF92FF920F931F93CF93DF93CDB7DEB72B
:101270008B01542E2DB63EB68130910509F48DC0F8
:101280001CF4892B09F12CC18230910509F455C059
:10129000039709F025C18091CB039091CC03A091D5
:1012A000CD03B091CE03E091C903F091CA038083CE
:1012B0009183A283B383DB015296ED91FC91539706
:1012C00060E08C91199598C0DB0190968D919C916E
:1012D0009197CED9F82E882309F48EC0D801529662
:1012E000ED91FC91539761E08C9119959093CA030D
:1012F0008093C903009709F47FC0FC0140815181AC
:10130000628173814093CB035093CC036093CD03F0
:101310007093CE038F2D90E0A0E0B0E048175907FE
:101320006A077B070CF46AC01092CB031092CC03BF
:101330001092CD031092CE0361C0DB0190968D9187
:101340009C91919795D94091CB035091CC0360919A
:10135000CD037091CE0314161506160617062CF44D
:10136000415051096109710933C0452B462B472B68
:1013700009F0B6C09091C80392FFB2C090E0019707
:10138000092E000CAA0BBB0B8093CB039093CC03CC
:10139000A093CD03B093CE0331C0FB0180A191A1F6
:1013A00067D94091CB035091CC036091CD037091EC
:1013B000CE0390E00197092E000CAA0BBB0B481737
:1013C00059076A077B076CF44F5F5F4F6F4F7F4F82
:1013D0004093CB035093CC036093CD037093CE0323
:1013E0000DC0481759076A077B0709F079C080913B
:1013F000C80382FD99CF74C081E0ABC08DB69EB6A4
:10140000F801848990E06C01FFEFCF1ADF0A2DB755
:101410003EB72C193D090FB6F8943EBF0FBE2DBF45
:10142000ADB7BEB711963D01D8011196FD010190EF
:101430000020E9F73197EA1BFB0B0596E80FF91F2F
:101440002E1B3F0B0FB6F8943EBF0FBE2DBF8DB7BE
:101450009EB701965C01B8010E9437174090CB03FC
:10146000D8019096ED90FC909197DD24A60160E064
:1014700070E0C3010E94E31CE114F10409F03DC0D7
:10148000B301C5010E94EA1C6DE172E0C5010E9432
:10149000EA1CE091B503F091B603B50183E090E05A
:1014A00019955520C1F08091CB039091CC03A09168
:1014B000CD03B091CE03E091C903F091CA038083BC
:1014C0009183A283B383D8015296ED91FC915397F7
:1014D00060E08C9119950FB6F8949EBE0FBE8DBE3C
:1014E00080E037C0EC3741F0BFEFEB1AFB0AF701A1
:1014F0003197E491E111F6CF4A944110F5CF462D92
:10150000D301E1E0CE1AD108CD012A2F241B30E00F
:101510002C153D057CF4F70124912C3711F02C9308
:1015200001C01C921196FFEFEF1AFF0AFC01208107
:101530002111EACFDC0180E2F30101900020E9F7FC
:101540003197E619F709EC15FD0508F099CF8D9351
:10155000F3CF0FB6F8943EBE0FBE2DBEDF91CF91F4
:101560001F910F91FF90EF90DF90CF90BF90AF90C1
:101570009F908F907F906F905F904F903F902F90B3
:101580000895CF93DF93D82FC0E09091BC03C91783
:10159000A8F46091BD037091BE0382E2C89F600D04
:1015A000711D112442E250E085E294E00E94211A6C
:1015B000809125048D1729F0CF5FE7CF80E090E080
:1015C00002C085E294E0DF91CF910895AF92BF927F
:1015D000CF92DF92EF92FF920F931F93CF93DF93FF
:1015E000CDB7DEB767970FB6F894DEBF0FBECDBF9D
:1015F000EDB6FEB6882399F1E091B503F091B603FC
:1016000060E070E081E090E019956091D00315E111
:10161000169FB00111246E527C4FE091B503F091FA
:10162000B60382E090E01995E091D0031E9FF0018F
:101630001124ED54FC4F82A9811102C080A982AB14
:101640008091C80381608093C803F4D46093C00381
:101650007093C1038093C2039093C30379C181E067
:1016600090E09F8B8E8BE091B303F091B403CE0199
:10167000469619958C01892B49F0DCD46093C00300
:101680007093C1038093C2039093C303023011058A
:1016900089F03CF40130110509F09DC110E005E12D
:1016A00043C00330110509F44FC00430110509F49B
:1016B0003EC191C110E005E18091D00390E0089F08
:1016C000F001099FF00D1124ED54FC4F22A930A91F
:1016D000321714F4215005C02091C80322FF03C023
:1016E00021A922AB11E0089FF001099FF00D112400
:1016F000ED54FC4F82A90E949416892BE9F225C172
:101700002091C80322FF03C020A922AB11E0089F4B
:10171000F001099FF00D1124ED54FC4F82A90E94A5
:101720009416892B09F011C18091D00390E0089F95
:10173000F001099FF00D1124ED54FC4F22A931A9AD
:101740002317F4F62F5FE1CFE091D00315E11E9F40
:10175000F0011124ED54FC4F82A90E949416FC0163
:1017600080899189009729F097FD35C10397ECF1A5
:1017700032C19091D003933008F02DC19F5F9093B8
:10178000D00302890F3F11F410E019C010E08091DE
:10179000B9031817C8F76091B7037091B80325E132
:1017A000129F600D711D112445E150E0CE0101969C
:1017B0000E94211A8981801711F01F5FE8CF609184
:1017C000B7037091B80335E11302600D711D112448
:1017D0008091D003E5E18E9FC001112445E150E0E6
:1017E0008F529C4F0E94211A2EC08289CADE892BFB
:1017F00009F4F1C0E091B503F091B60360E070E048
:1018000081E090E01995E091D0031E9FF001112432
:10181000ED54FC4F82A90E9494166C01BC016F5FCD
:101820007F4FE091B503F091B60382E090E0199507
:10183000F6018289A6DE8C01009741F48091C803ED
:101840008D7F8093C80381E0C1DEC5C0FC01828921
:101850009389892B99F38091C80382608093C80390
:10186000E9D36093C0037093C1038093C203909344
:10187000C303F801808991898230910551F12CF4DC
:10188000009779F00197C9F0A6C08430910509F45A
:101890003CC06CF1059709F09EC0C8010E94B816C3
:1018A00042C041E0F60180899189029709F040E049
:1018B000B80180E090E0C8DC36C041E0F6018089E4
:1018C0009189029709F040E0B80180E090E0E4DB04
:1018D0002AC041E0F60180899189029709F040E031
:1018E00021E030E0B80180E090E0CCDA1CC041E0BB
:1018F000F60180899189029709F040E021E030E00B
:10190000B80180E090E058D90EC041E0F60180892E
:101910009189029709F040E021E030E0B80180E0D1
:1019200090E00E949303882309F455C087CF8091EB
:10193000D003811106C08091C8038E7F8093C803B5
:101940004AC081508093D0037ECF112309F443C055
:10195000E091D00325E1E29FF0011124ED54FC4F0A
:1019600082A90E9494160097B1F1CDB6DEB68C0123
:101970000F5F1F4FF80101900020E9F7CF01801B96
:10198000910B0296EDB7FEB7E81BF90B0FB6F89472
:10199000FEBF0FBEEDBF2DB73EB72F5F3F4F5901C2
:1019A00065E172E0C9010E94F51CB801C5010E9401
:1019B000EA1C63E172E0C5010E94EA1CE091B503F4
:1019C000F091B603B50183E090E019950FB6F89455
:1019D000DEBE0FBECDBE0FB6F894FEBE0FBEEDBE8E
:1019E00067960FB6F894DEBF0FBECDBFDF91CF91E3
:1019F0001F910F91FF90EF90DF90CF90BF90AF902D
:101A00000895FC01538D448D252F30E0842F90E004
:101A1000821B930B541710F0CF96089501970895E9
:101A2000FC01918D828D981761F0828DDF01A80FE6
:101A3000B11D5D968C91928D9F5F9F73928F90E008
:101A400008958FEF9FEF0895FC01918D828D981777
:101A500031F0828DE80FF11D858D90E008958FEFB4
:101A60009FEF0895FC01918D228D892F90E0805C7D
:101A70009F4F821B91098F73992708958EEF92E0F3
:101A8000F1DF21E0892B09F420E0822F089580E026
:101A900090E0892B19F0F2DF811125C080E090E001
:101AA000892B41F080E090E0892B21F00E9400001A
:101AB00081111CC080E090E0892B41F080E090E033
:101AC000892B21F00E940000811113C080E090E07A
:101AD000892BA1F080E090E0892B81F00E9400002A
:101AE00081110AC008950E940000D8CF0E94000012
:101AF000E1CF0E940000EACF0C9400000895CF923D
:101B0000DF92EF92FF920F931F93CF93DF936C01BD
:101B10007A018B01C0E0D0E0CE15DF0589F0D80155
:101B20006D918D01D601ED91FC910190F081E02D38
:101B3000C6011995892B11F47E0102C02196ECCFC4
:101B4000C701DF91CF911F910F91FF90EF90DF9030
:101B5000CF9008950E94DF1CFC01848DDF01A80F47
:101B6000B11DA35ABF4F2C91848D90E001968F73C5
:101B70009927848FA689B7892C93A089B1898C91E4
:101B800080648C93938D848D981306C00288F389AA
:101B9000E02D80818F7D80830895CF93DF93EC01CA
:101BA000888D8823C1F0EA89FB89808185FD05C085
:101BB000A889B9898C9186FD0EC00FB607FCF5CFB8
:101BC000808185FFF2CFA889B9898C9185FFEDCFFF
:101BD000CE01C2DFE8CFDF91CF9108956115710585
:101BE00079F0FB0101900020E9F73197AF01461B26
:101BF000570BDC01ED91FC910280F381E02D1994EB
:101C000080E090E008954F925F926F927F92EF9202
:101C1000FF920F931F93CF93DF93CDB7DEB7A197BA
:101C20000FB6F894DEBF0FBECDBF7C01FA01CB0129
:101C300019A2223008F42AE08E010F5D1F4F422EB8
:101C4000512C612C712CBF01A30192010E94641AD6
:101C5000F901CA01015011096A3014F4605D01C034
:101C6000695CD8016C93232B242B252B61F7B801D9
:101C7000C701B4DFA1960FB6F894DEBF0FBECDBF8B
:101C8000DF91CF911F910F91FF90EF907F906F9018
:101C90005F904F900895A2CF1F920F920FB60F92B0
:101CA00011240BB60F922F933F934F935F936F9333
:101CB0007F938F939F93AF93BF93EF93FF938EEF99
:101CC00092E04ADFFF91EF91BF91AF919F918F9189
:101CD0007F916F915F914F913F912F910F900BBE2C
:101CE0000F900FBE0F901F9018951F920F920FB676
:101CF0000F9211240BB60F922F938F939F93EF9314
:101D0000FF93E0910E03F0910F038081E0911403A3
:101D1000F091150382FD12C09081809117038F5FAF
:101D20008F7320911803821751F0E0911703F0E0B0
:101D3000E250FD4F958F8093170301C08081FF9182
:101D4000EF919F918F912F910F900BBE0F900FBE2F
:101D50000F901F90189590E0FC013197E231F1054A
:101D600008F04EC08827EE58FF4F8F4F0C94CB1CC5
:101D7000809180008F7703C0809180008F7D809359
:101D80008000089580918000877FF9CF84B58F7798
:101D900002C084B58F7D84BD08958091B0008F7797
:101DA00003C08091B0008F7D8093B0000895809132
:101DB00090008F7707C0809190008F7D03C0809145
:101DC0009000877F8093900008958091A0008F7786
:101DD00007C08091A0008F7D03C08091A000877F05
:101DE0008093A0000895809120018F7707C0809193
:101DF00020018F7D03C080912001877F8093200187
:101E000008951F93CF93DF93282F30E0F901E85214
:101E1000FE4F8491F901EE56FE4FD491F901E45B37
:101E2000FE4FC491CC23C1F0162F811194DFEC2F0B
:101E3000F0E0EE0FFF1FEE5CFE4FA591B4918FB75F
:101E4000F894111105C09C91ED2FE095E92302C093
:101E5000EC91ED2BEC938FBFDF91CF911F91089503
:101E6000CF93DF9390E0FC01EE56FE4F2491FC01EE
:101E7000E45BFE4F8491882361F190E0880F991F05
:101E8000FC01E85EFE4FC591D491FC01EE5CFE4F73
:101E9000A591B491611109C09FB7F89488812095EC
:101EA00082238883EC912E230BC0623061F49FB7AC
:101EB000F8943881822F809583238883EC912E2B90
:101EC0002C939FBF06C08FB7F894E8812E2B2883F0
:101ED0008FBFDF91CF910895863308F0865390919C
:101EE0007B00282F2870977F922B90937B00877020
:101EF000806480937C0080917A00806480937A0073
:101F000080917A0086FDFCCF809178002091790045
:101F100090E0922B0895089580E090E00895FC01F0
:101F2000878908950F931F93CF938C01C0E0F80128
:101F3000858DC81798F4D8015E968C91882311F08E
:101F400060E001C062E0D8015B96ED91FC915C9786
:101F5000EC0FF11D808184DFCF5FE9CFCF911F911E
:101F60000F910895CF93DF93EC0160E08E8149DFFC
:101F700061E08E8146DF60E08E8143DF8BE891E097
:101F80000197F1F7DF91CF910895082E000C990B7E
:101F9000AA0BBB0BFC013C97E830F105D0F4882775
:101FA000EC57FF4F8F4F0C94CB1C61E007C061E0F2
:101FB00008C061E009C061E00AC060E08EE008C0CE
:101FC00060E08FE005C060E080E102C060E081E198
:101FD00018DF80E090E0089561E08A3009F460E065
:101FE0008DE00FDF80E090E008953FB7F894809196
:101FF000FA029091FB02A091FC02B091FD0226B57D
:10200000A89B05C02F3F19F00196A11DB11D3FBF30
:10201000BA2FA92F982F8827820F911DA11DB11DBE
:10202000BC01CD0142E0660F771F881F991F4A95BA
:10203000D1F708952FB7F8946091F6027091F702E6
:102040008091F8029091F9022FBF08951F920F928C
:102050000FB60F9211242F933F938F939F93AF93BB
:10206000BF938091F6029091F702A091F802B0918F
:10207000F9023091F50223E0230F2D3720F4019669
:10208000A11DB11D05C026E8230F0296A11DB11D9B
:102090002093F5028093F6029093F702A093F80242
:1020A000B093F9028091FA029091FB02A091FC0298
:1020B000B091FD020196A11DB11D8093FA0290938B
:1020C000FB02A093FC02B093FD02BF91AF919F91E0
:1020D0008F913F912F910F900FBE0F901F901895E9
:1020E000FC01442321F01386148616861586848508
:1020F000258536852115310521F02130310559F02E
:1021000029C0811106C0662321F021E030E0368726
:102110002587648708958385982F92959695977063
:10212000891B662311F0895F05C0811102C01386E7
:1021300002C081508387938589EF890F813D78F0B4
:1021400081E0983D08F480E0138622E030E0368795
:1021500025870895611104C016861586089580E0CC
:1021600008956F927F928F929F92AF92BF92CF927B
:10217000DF92EF92FF920F931F93CF93DF931F9203
:10218000CDB7DEB73C01912CE12CF12C0FEF1FEF06
:10219000D3015D968C91981608F03EC0C92CD12CC5
:1021A000D3015B96ED91FC915C97EC0DFD1D2081B8
:1021B00030E0F901E852FE4F8491F901EE56FE4FEE
:1021C000A490F901E45BFE4FB490BB2099F081111B
:1021D000C2DDEB2DF0E0EE0FFF1FE25EFD4FA5919B
:1021E000B491EC91AE2231E020E009F430E0832F8D
:1021F000922F02C080E090E0F301268D30E082173C
:10220000930741F40F3FFFEF1F0709F486018FEF9B
:10221000E81AF80A9394BCCFEA94EF2859F5F30131
:10222000808D918D0817190769F041E060E0C301C6
:1022300057DFD30113961C921E92129715961C928B
:102240001E92149761E0F301808D918D0817190794
:1022500009F060E0D30159961C930E9358975B9652
:102260008D919C915C97FC01E00FF11F8081579646
:102270008C9301C060E040E0C30132DFF82EF3012F
:10228000048115810115110519F0158214825EC1B2
:10229000828193818230910509F4E2C02CF4009789
:1022A00069F00197F1F04AC18430910509F46FC0DB
:1022B0000CF40CC1059709F4A0C040C1FF2009F43B
:1022C00045C181E090E0F30193838283B3DED301C3
:1022D00016966D937D938D939C93199701E010E072
:1022E00035C1F1101DC0F301828582FF0FC082E06D
:1022F00090E0938382839EDED30116966D937D9347
:102300008D939C93199752E0E52E0CC083E090E0EA
:10231000F301958384831382128242E0E42E01C08C
:10232000E12CF12C87DED30116960D911D912D9194
:102330003C911997AB01BC01401B510B620B730B15
:102340001F968D919C915097A0E0B0E0841795075F
:10235000A607B70708F0F5C06DDEF3016683778343
:1023600080879187828581FF05C084E090E0938318
:102370008283E7C080FF05C085E090E0938382837D
:10238000A2C086E090E0F301938382839CC0F110A9
:1023900006C085E090E0D3019583848331C04ADE96
:1023A000F301C680D780E084F184AB01BC014C19F5
:1023B0005D096E097F0983899489A0E0B0E08417E4
:1023C0009507A607B70708F0C1C0828580FF0DC03A
:1023D00085E090E0938382832DDED30116966D9382
:1023E0007D938D939C9319976EC086E090E0F301E6
:1023F0009383828305E010E0A9C0F11008C0D301E7
:1024000013961C921E92129702E010E09FC012DEFB
:10241000F301C680D780E084F184AB01BC014C1984
:102420005D096E097F0985899689A0E0B0E04817AB
:1024300059076A077B0708F489C0828583FD02C0BB
:1024400023E001C026E0F12C2983F4DDD3011696A8
:102450006D937D938D939C9319972981022F72C060
:10246000FF2081F083E090E0F30193838283E2DD3B
:10247000D30116966D937D938D939C931997DD24CC
:10248000D39401C0D12CE12CD5DDF3018680978057
:10249000A084B184AB01BC01481959096A097B09C0
:1024A00081899289A0E0B0E084179507A607B70755
:1024B00008F04AC0FF2011F006E010E0D3011396A7
:1024C0001C930E93129703E010E040C0F1100AC075
:1024D00084E090E0F301958384831382128232E0DA
:1024E000D32E01C0D12CE12CA5DDD30116968D9001
:1024F0009D90AD90BC901997AB01BC01481959094A
:102500006A097B091F968D919C915097880F991F9E
:10251000A0E0B0E0481759076A077B07A8F083E0FE
:1025200090E0F30195838483FF2011F006E010E032
:10253000D30113961C930E93129706C0F11006C098
:102540005ECF0E2D1F2D02C00D2D1E2DC8010F9028
:10255000DF91CF911F910F91FF90EF90DF90CF907F
:10256000BF90AF909F908F907F906F900895CF9382
:10257000DF93EC0182E794E0F4DD059701F54091EB
:10258000890450E060E070E02AE08EEF92E03BDBEF
:1025900090918904933069F028F4923081F481E0BD
:1025A00090E00FC09A3041F09B3049F484E090E015
:1025B00008C082E090E005C083E090E002C080E0C7
:1025C00090E021E030E039832883DF91CF910895B6
:1025D000CF92DF92EF92FF920F931F93CF93DF93EF
:1025E0007C016C0187E0C80ED11CC0E0D0E0062F52
:1025F00010E0B8010C2E02C0759567950A94E2F7B9
:102600006170F60181916F01FCDB2196C430D10528
:1026100081F7C701DF91CF911F910F91FF90EF904C
:10262000DF90CF909FCCCF92DF92EF92FF920F93EB
:102630001F93CF93DF93EC01F62E642F8C81E1DBA7
:102640008D818F3F11F060E0DCDB8F850F2D10E076
:1026500084FF23C06E0187E0C80ED11CE12CF12C51
:10266000B8010E2C02C0759567950A94E2F7617067
:10267000F60181916F01C5DBFFEFEF1AFF0A88E0D9
:10268000E816F10469F7CE01DF91CF911F910F9108
:10269000FF90EF90DF90CF9065CCB80184E0759506
:1026A00067958A95E1F7CE0193DF6F2DCE01DF911B
:1026B000CF911F910F91FF90EF90DF90CF9088CF37
:1026C00041E0B1DF81E090E0089540E0ACCFFC0153
:1026D000443008F043E08389481710F04FEF480F6B
:1026E000DF01A40FB11D54969C91690F6068CF0162
:1026F000ECCF4F925F926F927F928F929F92AF92A8
:10270000BF92CF92DF92EF92FF92CF93DF93CBE015
:10271000D0E087E3E1DBBC01990F880B990B0E94A5
:10272000941B20E030E040EA50E40E94481C20E086
:1027300030E048EC52E40E94481C20E030EC4FE7C7
:1027400054E45CD76B017C014B015C0142E060E02A
:102750008AE594E0BCDF68EA72E08AE594E09BDAFF
:1027600043E06DE08AE594E0B2DFA7019601C7017E
:10277000B6010E94AB1C882319F061EC72E019C00D
:1027800026013701E89477F82FEF3FEF4FE75FE737
:10279000C301B2010E94AB1C81110FC02FEF3FEFAC
:1027A0004FE75FE7C301B20125D7181634F465EC93
:1027B00072E08AE594E012DA6CC02FEF3FEF4FE74A
:1027C0005FE4C701B6010E94441C18161CF469ECB2
:1027D00072E0EFCF2FEF3FEF4FE75FECC701B6019D
:1027E00009D787FDF4CF20E030E0A901C701B60189
:1027F00001D787FF08C08DE2FFD146015701B7FA24
:10280000B094B7F8B0942AE037ED43EA5BE3C50132
:10281000B4018CD64B015C0159D76B017C0182D786
:102820009B01AC01C501B40180D64B015C012AE0DB
:10283000B701A6018AE594E0E6D98EE2DDD120E079
:1028400030E040E251E4C501B4010E94481C4B0154
:102850005C013CD76B01E12CF12C2AE0B701A60109
:102860008AE594E0D0D9C701B6015CD79B01AC01E1
:10287000C501B4015AD620E030E040E251E40E94A4
:10288000481C24D7AB0160E070E02AE08AE594E0C0
:10289000BAD97CD142E060E08AE594E018DF6DECC3
:1028A00072E08AE594E0F7D9219709F032CF80E011
:1028B00090E0DF91CF91FF90EF90DF90CF90BF90AD
:1028C000AF909F908F907F906F905F904F90089502
:1028D000EF92FF920F931F93CF93DF9300D01F923D
:1028E000CDB7DEB78BE0E82EF12C86E3F5DA8C016C
:1028F00042E060E08AE594E0EADEA801110F660B91
:10290000770B77FF11C08DE249835A836B837C83F9
:1029100073D149815A816B817C8170956095509506
:1029200041955F4F6F4F7F4F2AE08AE594E06BD966
:1029300041E060E08AE594E0CADE64ED72E08AE599
:1029400094E0A9D923D142E060E08AE594E0BFDEBB
:102950006DEC72E08AE594E09ED981E0E81AF10816
:1029600009F0C3CF80E090E00F900F900F900F9090
:10297000DF91CF911F910F91FF90EF90089561E04B
:10298000A4DE8BE39FE10197F1F70895CF93DF93E6
:10299000EB018130910571F1E4F4892B09F041C01C
:1029A00044E064E18BE993E032D18BE993E0E7DF27
:1029B0006091AB036D7F6093AB0368608BE993E03C
:1029C00084DE44E150E060E270E080EE92E0FBD70C
:1029D00028C08230910591F0039719F541E060E03D
:1029E0008BE993E074DE60EE72E08BE993E053D9FB
:1029F00041E00FC08BE993E0C2DF13C040E060E02C
:102A00008BE993E064DE60EE72E08BE993E043D9FA
:102A100040E060E08BE993E05ADEBE018BE993E091
:102A20003AD981E0DF91CF9108952F923F924F9252
:102A30005F926F927F928F929F92AF92BF92CF924E
:102A4000DF92EF92FF920F931F93CF93DF9300D00B
:102A50001F92CDB7DEB75C019E2C70E0615071090A
:102A60001B01280E391EDA01C9018827B7FD83959D
:102A70009927AA27BB27882E882341F0CC24DD2460
:102A80007601C21AD30AE40AF50A02C069017A0182
:102A9000A114B10409F44CC0D1011C92802F90E024
:102AA000A0E0B0E089839A83AB83BC83C701B60101
:102AB00029813A814B815C8107D529013A016981DD
:102AC0007A818B819C814BD797018601061B170B5E
:102AD000280B390BB901A8010A3011052105310570
:102AE00018F4F10180E30BC0D901C8010A97A109CC
:102AF000B1090697A105B10528F4F10187E3840F18
:102B000082931F01411451046104710431F0730177
:102B100062012A143B0451F606C0C1012A143B0489
:102B200051F4882019F083E2D5018C93C50117C0B8
:102B300080E090E014C0882039F011E0211A3108BB
:102B4000FC0131972DE22083F101EA15FB0571F3B9
:102B5000911002C080E201C080E38293F6CF0F9013
:102B60000F900F900F90DF91CF911F910F91FF90D9
:102B7000EF90DF90CF90BF90AF909F908F907F901D
:102B80006F905F904F903F902F9008958F929F92FB
:102B9000AF92BF92CF92DF92EF92FF9226DA4B0173
:102BA0005C0188EEC82E83E0D82EE12CF12C1DDAD2
:102BB000DC01CB0188199909AA09BB09883E934019
:102BC000A105B10558F021E0C21AD108E108F108C9
:102BD00088EE880E83E0981EA11CB11CC114D1049C
:102BE000E104F10421F7FF90EF90DF90CF90BF90C8
:102BF000AF909F908F900895E0915A04F0915B04FC
:102C00000190F081E02D682F8AE594E01994EF920D
:102C1000FF920F931F93CF93DF93EC01423018F094
:102C20008F8588608F874B8B1C8A80E48D8B6E8BA1
:102C300070E0605C7F4F6F8B61E08C8111D98D817A
:102C40008F3F11F061E00CD961E08E8109D97E01DE
:102C500087E0E80EF11C00E010E08F8584FD03C0E2
:102C600084E090E002C088E090E00817190744F47F
:102C700061E0F70181917F01F3D80F5F1F4FEDCF26
:102C80008BE39DE00197F1F760E08C81BAD860E0BA
:102C90008E81B7D88D818F3F11F060E0B2D86F85FB
:102CA00064FD19C063E0CE0193DC0BE416E4C801B7
:102CB0000197F1F763E0CE018BDCC8010197F1F7D2
:102CC00063E0CE0185DC83E592E00197F1F762E0F5
:102CD000CE017EDC13C06062CE01F7DC8BE496E4AB
:102CE0000197F1F76F856062CE01EFDC83E592E03A
:102CF0000197F1F76F856062CE01E7DC6F85606256
:102D0000CE01E3DC84E0888B6CE0CE01DEDCCE011A
:102D100036DE82E0898B66E0CE01DF91CF911F9194
:102D20000F91FF90EF90D1CCCF93DF93D82FC0E0DD
:102D30009091BC03C917A0F46091BA037091BB03D2
:102D400083E1C89F600D711D112443E150E087E4C9
:102D500094E077D3809147048D1729F0CF5FE8CFB7
:102D600080E090E002C087E494E0DF91CF91089585
:102D7000CF92DF92EF92FF920F931F93CF93DF9347
:102D8000CDB7DEB78C01CDB6DEB6DC015296ED9143
:102D9000FC91539761E08C9119957C019093CA0343
:102DA0008093C903009739F50F5F1F4FF801019019
:102DB0000020E9F7CF01801B910B03962DB73EB79A
:102DC000281B390B0FB6F8943EBF0FBE2DBF8DB731
:102DD0009EB701967C016FE172E007D6B801C7018A
:102DE000F9D56DE172E0C701F5D5E091B503F09139
:102DF000B603B70125C0FC0101900020E9F7CF011F
:102E00008E199F090396ADB7BEB7A81BB90B0FB6B5
:102E1000F894BEBF0FBEADBF0DB71EB70F5F1F4FFB
:102E20006FE172E0C801E1D5B701C801D3D56DE10A
:102E300072E0C801CFD5E091B503F091B603B801B7
:102E400083E090E019950FB6F894DEBE0FBECDBEBC
:102E500080E00FB6F894DEBE0FBECDBEDF91CF91FD
:102E60001F910F91FF90EF90DF90CF900895CF9337
:102E7000DF93EC016F5F7F4FB8D56BE172E0CE015D
:102E8000A9D56FE172E0CE01DF91CF91A3C5CF93B9
:102E9000DF931F921F92CDB7DEB7789484B582601E
:102EA00084BD84B5816084BD85B5826085BD85B5EE
:102EB000816085BD80916E00816080936E0010926C
:102EC00081008091810082608093810080918100E7
:102ED0008160809381008091800081608093800078
:102EE0008091B10084608093B1008091B0008160D6
:102EF0008093B000809191008260809391008091D6
:102F00009100816080939100809190008160809316
:102F100090008091A10082608093A1008091A10027
:102F200081608093A1008091A00081608093A000C7
:102F30008091210182608093210180912101816033
:102F400080932101809120018160809320018091F4
:102F50007A00846080937A0080917A008260809306
:102F60007A0080917A00816080937A0080917A0063
:102F7000806880937A001092C10044E064E18AE5A1
:102F800094E045DE61E08DE00E94300F60E087E371
:102F90000E94300F60E088E30E94300F61E08EE015
:102FA0000E94300F61E08FE00E94300F61E080E10D
:102FB0000E94300F61E081E10E94300F60E070E01C
:102FC00080E090E0E3DC82E794E00E94920F809141
:102FD0007C048E7F80937C048091C8038C608093F6
:102FE000C80388E893E1A0E0B0E08093C403909325
:102FF000C503A093C603B093C70385E1D82E809183
:103000000E02882321F08091C80380FF46C0809182
:10301000C803982F917090930E0291110CC083FFFA
:1030200039C0E091B303F091B403CE010196199534
:10303000039781F55AC081FFF0C081E090E09A8348
:103040008983E091B303F091B403CE010196199501
:103050008C018430910509F4D9C0892B09F054C042
:103060008091C4039091C503A091C603B091C7039A
:10307000892B8A2B8B2B09F0D4C08091C80380FD4B
:1030800009C0E091B503F091B60360E070E081E023
:1030900090E019950E94470DB2CF63E572E08AE592
:1030A00094E00E944B0E41E060E08AE594E00FDB83
:1030B00068E672E08AE594E00E944B0E42E060E030
:1030C0008AE594E004DB6EE772E08AE594E00E9412
:1030D0004B0E43E060E08AE594E0F9DA63E972E0E0
:1030E0008AE594E00E944B0E92CF1092D00360913B
:1030F000B7037091B80345E150E081ED93E0A1D1B1
:1031000081E00E94E60AC6CF0E941A106093C003B5
:103110007093C1038093C2039093C303E091D003E3
:10312000DE9EF0011124ED54FC4F82A9FDDD7C01EF
:10313000FC0182890E94C10ADC0150962D913C91CC
:1031400051972230310549F13CF42115310569F0E0
:1031500021303105B1F084CF24303105D1F15CF15B
:103160002530310509F443C07BCF41E0F701808968
:103170009189029709F040E0BD01C8010E9424092D
:1031800042C041E0F70180899189029709F040E04F
:10319000BD01C8010E944C0836C029813A8141E036
:1031A000F70180899189029709F040E0BD01C801CB
:1031B0000E94420728C029813A8141E0F7018089B5
:1031C0009189029709F040E0BD01C8010E94DC0529
:1031D0001AC029813A8141E0F701808991890297DB
:1031E00009F040E0BD01C8010E9493030CC0033008
:1031F000110509F035CF5296ED91FC91539760E09F
:103200008C91199503C0882309F42ACF8091C803B3
:103210008D7F8093C80381E001C080E00E94E60AB0
:103220001FCF0E941A100091C0031091C10320917A
:10323000C2033091C303DC01CB01801B910BA20BB5
:10324000B30B0091C4031091C5032091C6033091C4
:10325000C70380179107A207B30708F40ECF809128
:10326000C8038C7F8093C8031092D00306CF0895C3
:103270009F92AF92BF92CF92DF92EF92FF920F9305
:103280001F93CF93DF93EEEFF2E01382128288EE6A
:1032900093E0A0E0B0E084839583A683B78385E2C2
:1032A00092E09183808385EC90E09587848784EC1D
:1032B00090E09787868780EC90E0918B808B81EC03
:1032C00090E0938B828B82EC90E0958B848B86ECE4
:1032D00090E0978B868B118E128E138E148EE1E9FF
:1032E000F4E01382128207E312E01183008388E086
:1032F000F82EF48299249A94958299E0A92EA682B8
:1033000024E0E22EE78235E0B32EB08646E0C42EFC
:10331000C18657E0D52ED28613861486158616866A
:10332000178641E060E1CF0172DCC2E7D4E083E4BC
:1033300092E0998388831B821A821B868FEF9FEF0E
:10334000998F888F86E990E0988B8F878AEF90E03D
:103350009A8B898B8A8528E532E03C8B2B8B2CE27B
:1033600031E03E8B2D8B877F87608A8741E060E06C
:10337000CE010E9470101B821A821D821C828DE475
:1033800092E0998388838FE092E09C8F8B8FED8E03
:103390001E8EEBE9F3E01382128211830083F48224
:1033A0009582A682E782B086C186D286138614866D
:1033B00015861686178641E060E1CF0128DCEAE534
:1033C000F4E01382128211830083F4829582A68234
:1033D000E782B086C186D286138614861586168645
:1033E000178641E060E1CF0112DCE3EBF3E08FE50B
:1033F00095E095838483F68280ED93E090878783C0
:1034000085E1818788E392E0938782878CE08487D7
:10341000118A128A138A148A158A87EB92E19183A2
:10342000808386EC94E193838283DF91CF911F9117
:103430000F91FF90EF90DF90CF90BF90AF909F9053
:103440000895FB01DC0102C005900D9241505040EF
:10345000D8F70895FB01DC010D900020E9F71197E2
:1034600005900D920020E1F70895FC0105900020E1
:10347000E9F7809590958E0F9F1F0895052E97FB75
:1034800016F400940FD057FD05D01ED007FC02D0D3
:1034900046F408C050954095309521953F4F4F4FC9
:1034A0005F4F089590958095709561957F4F8F4FF0
:1034B0009F4F08952BD0A59F900DB49F900DA49F72
:1034C000800D911D11240895A1E21A2EAA1BBB1B89
:1034D000FD010DC0AA1FBB1FEE1FFF1FA217B307E0
:1034E000E407F50720F0A21BB30BE40BF50B661FF6
:1034F000771F881F991F1A9469F7609570958095BA
:1035000090959B01AC01BD01CF010895A29FB00130
:10351000B39FC001A39F700D811D1124911DB29F07
:10352000700D811D1124911D08955058BB27AA27A5
:103530000ED070C161D130F066D120F031F49F3FE0
:1035400011F41EF456C10EF4E095E7FB4CC1E92FCF
:1035500072D180F3BA17620773078407950718F0D2
:1035600071F49EF58AC10EF4E0950B2EBA2FA02DB2
:103570000B01B90190010C01CA01A0011124FF2720
:10358000591B99F0593F50F4503E68F11A16F0401B
:10359000A22F232F342F4427585FF3CF469537951A
:1035A0002795A795F0405395C9F77EF41F16BA0BDF
:1035B000620B730B840BBAF09150A1F0FF0FBB1F8D
:1035C000661F771F881FC2F70EC0BA0F621F731FD6
:1035D000841F48F4879577956795B795F7959E3F33
:1035E00008F0B3CF9395880F08F09927EE0F9795C1
:1035F00087950895D4D008F481E008950CD00AC1CD
:1036000002D140F0F9D030F021F45F3F19F0EBC067
:10361000511134C1EEC00FD198F39923C9F355234A
:10362000B1F3951B550BBB27AA27621773078407B5
:1036300038F09F5F5F4F220F331F441FAA1FA9F36B
:1036400033D00E2E3AF0E0E830D091505040E6955D
:10365000001CCAF729D0FE2F27D0660F771F881FBE
:10366000BB1F261737074807AB07B0E809F0BB0BAD
:10367000802DBF01FF2793585F4F2AF09E3F5105D1
:1036800068F0B1C0FBC05F3FECF3983EDCF3869579
:1036900077956795B795F7959F5FC9F7880F911D47
:1036A0009695879597F90895E1E0660F771F881F33
:1036B000BB1F621773078407BA0720F0621B730BE6
:1036C000840BBA0BEE1F88F7E0950895BCD088F004
:1036D0009F5790F0B92F9927B751A0F0D1F0660FFE
:1036E000771F881F991F1AF0BA95C9F712C0B13019
:1036F00081F0C3D0B1E00895C0C0672F782F88272C
:10370000B85F39F0B93FCCF3869577956795B39557
:10371000D9F73EF490958095709561957F4F8F4FC6
:103720009F4F0895E89409C097FB3EF490958095CB
:10373000709561957F4F8F4F9F4F9923A9F0F92F77
:1037400096E9BB279395F695879577956795B795F5
:10375000F111F8CFFAF4BB0F11F460FF1BC06F5FDB
:103760007F4F8F4F9F4F16C0882311F096E911C0ED
:10377000772321F09EE8872F762F05C0662371F00E
:1037800096E8862F70E060E02AF09A95660F771F22
:10379000881FDAF7880F9695879597F90895990FFE
:1037A0000008550FAA0BE0E8FEEF16161706E8070B
:1037B000F907C0F012161306E407F50798F0621B2C
:1037C000730B840B950B39F40A2661F0232B242B01
:1037D000252B21F408950A2609F4A140A6958FEF20
:1037E000811D811D089597F99F6780E870E060E072
:1037F00008959FEF80EC089500240A94161617068A
:1038000018060906089500240A94121613061406D1
:1038100005060895092E0394000C11F4882352F034
:10382000BB0F40F4BF2B11F460FF04C06F5F7F4FEC
:103830008F4F9F4F089557FD9058440F551F59F0D3
:103840005F3F71F04795880F97FB991F61F09F3F8D
:1038500079F087950895121613061406551FF2CFB6
:103860004695F1DF08C0161617061806991FF1CF06
:1038700086957105610508940895E894BB2766272D
:103880007727CB0197F908958ADF08F48FEF089521
:103890000BD0C0CFB1DF28F0B6DF18F0952309F0C8
:1038A000A2CFA7CF1124EACFC6DFA0F3959FD1F313
:1038B000950F50E0551F629FF001729FBB27F00DDE
:1038C000B11D639FAA27F00DB11DAA1F649F662733
:1038D000B00DA11D661F829F2227B00DA11D621F82
:1038E000739FB00DA11D621F839FA00D611D221F3C
:1038F000749F3327A00D611D231F849F600D211D20
:10390000822F762F6A2F11249F5750408AF0E1F0C2
:1039100088234AF0EE0FFF1FBB1F661F771F881F0B
:1039200091505040A9F79E3F510570F05CCFA6CF53
:103930005F3FECF3983EDCF3869577956795B795F6
:10394000F795E7959F5FC1F7FE2B880F911D969520
:10395000879597F9089523DF880B990B0895DB016C
:103960008F939F93A7DDBF91AF91A29F800D911D73
:10397000A39F900DB29F900D1124089587FB082EF0
:10398000062687FD819567FD61950DD00EF4919512
:1039900007FC81950895EE0FFF1F881F8BBF0790CE
:1039A000F691E02D1994991B79E004C0991F9617A0
:1039B00008F0961B881F7A95C9F78095089581E0D5
:1039C00090E0F89419C0DC0101C06D934150504063
:1039D000E0F70895FB01DC010D900020E9F7119755
:1039E00001900D920020E1F70895FB01DC010190A8
:1039F0000D920020E1F7089513E0C5E0D3E000E068
:103A000005C0802FFE01C7DF2196011DC630D107FA
:0A3A100080E00807B1F7F894FFCF3B
:103A1A006166706E756D206B4D475450450001020A
:103A2A00030A0B3E003C004E0059003A005D005B61
:103A3A0000000000004C037F0D010DCD0D320D106A
:103A4A000D240D0000000060137F0D8C0F8B0F00FA
:103A5A00000000AA0DAA0D8F0F00000000920FB1FE
:103A6A00108F0F53656C656363696F6E6120456ED5
:103A7A007465722D2D2D3E003C2D2D2D2D2D457159
:103A8A007569706F20342D2D2D2D2D3E20003C2D73
:103A9A002D2D2D486F6C61204D756E646F2D2D2D67
:103AAA002D3E003C2D2D4D656E7520426173696374
:103ABA006F2053452D2D3E0054656D7065726174FB
:103ACA007572613A2D2D2D2D2D2D2D2D2D2D2D2D4E
:103ADA00006E616E00696E66006F766600202020B7
:103AEA002020200052657375746C61646F3A00007F
:00000001FF
